{
  "_format": "hh-sol-artifact-1",
  "contractName": "CollectNFT",
  "sourceName": "contracts/core/CollectNFT.sol",
  "abi": [
    {
      "inputs": [
        {
          "internalType": "address",
          "name": "hub",
          "type": "address"
        }
      ],
      "stateMutability": "nonpayable",
      "type": "constructor"
    },
    {
      "inputs": [],
      "name": "InitParamsInvalid",
      "type": "error"
    },
    {
      "inputs": [],
      "name": "Initialized",
      "type": "error"
    },
    {
      "inputs": [],
      "name": "InvalidParameter",
      "type": "error"
    },
    {
      "inputs": [],
      "name": "NotHub",
      "type": "error"
    },
    {
      "inputs": [],
      "name": "NotOwnerOrApproved",
      "type": "error"
    },
    {
      "inputs": [],
      "name": "NotProfileOwner",
      "type": "error"
    },
    {
      "inputs": [],
      "name": "SignatureExpired",
      "type": "error"
    },
    {
      "inputs": [],
      "name": "SignatureInvalid",
      "type": "error"
    },
    {
      "inputs": [],
      "name": "TokenDoesNotExist",
      "type": "error"
    },
    {
      "inputs": [],
      "name": "ZeroSpender",
      "type": "error"
    },
    {
      "anonymous": false,
      "inputs": [
        {
          "indexed": true,
          "internalType": "address",
          "name": "owner",
          "type": "address"
        },
        {
          "indexed": true,
          "internalType": "address",
          "name": "approved",
          "type": "address"
        },
        {
          "indexed": true,
          "internalType": "uint256",
          "name": "tokenId",
          "type": "uint256"
        }
      ],
      "name": "Approval",
      "type": "event"
    },
    {
      "anonymous": false,
      "inputs": [
        {
          "indexed": true,
          "internalType": "address",
          "name": "owner",
          "type": "address"
        },
        {
          "indexed": true,
          "internalType": "address",
          "name": "operator",
          "type": "address"
        },
        {
          "indexed": false,
          "internalType": "bool",
          "name": "approved",
          "type": "bool"
        }
      ],
      "name": "ApprovalForAll",
      "type": "event"
    },
    {
      "anonymous": false,
      "inputs": [
        {
          "indexed": true,
          "internalType": "address",
          "name": "from",
          "type": "address"
        },
        {
          "indexed": true,
          "internalType": "address",
          "name": "to",
          "type": "address"
        },
        {
          "indexed": true,
          "internalType": "uint256",
          "name": "tokenId",
          "type": "uint256"
        }
      ],
      "name": "Transfer",
      "type": "event"
    },
    {
      "inputs": [],
      "name": "HUB",
      "outputs": [
        {
          "internalType": "address",
          "name": "",
          "type": "address"
        }
      ],
      "stateMutability": "view",
      "type": "function"
    },
    {
      "inputs": [
        {
          "internalType": "address",
          "name": "to",
          "type": "address"
        },
        {
          "internalType": "uint256",
          "name": "tokenId",
          "type": "uint256"
        }
      ],
      "name": "approve",
      "outputs": [],
      "stateMutability": "nonpayable",
      "type": "function"
    },
    {
      "inputs": [
        {
          "internalType": "address",
          "name": "owner",
          "type": "address"
        }
      ],
      "name": "balanceOf",
      "outputs": [
        {
          "internalType": "uint256",
          "name": "",
          "type": "uint256"
        }
      ],
      "stateMutability": "view",
      "type": "function"
    },
    {
      "inputs": [
        {
          "internalType": "uint256",
          "name": "tokenId",
          "type": "uint256"
        }
      ],
      "name": "burn",
      "outputs": [],
      "stateMutability": "nonpayable",
      "type": "function"
    },
    {
      "inputs": [
        {
          "internalType": "uint256",
          "name": "tokenId",
          "type": "uint256"
        },
        {
          "components": [
            {
              "internalType": "uint8",
              "name": "v",
              "type": "uint8"
            },
            {
              "internalType": "bytes32",
              "name": "r",
              "type": "bytes32"
            },
            {
              "internalType": "bytes32",
              "name": "s",
              "type": "bytes32"
            },
            {
              "internalType": "uint256",
              "name": "deadline",
              "type": "uint256"
            }
          ],
          "internalType": "struct DataTypes.EIP712Signature",
          "name": "sig",
          "type": "tuple"
        }
      ],
      "name": "burnWithSig",
      "outputs": [],
      "stateMutability": "nonpayable",
      "type": "function"
    },
    {
      "inputs": [
        {
          "internalType": "bytes32",
          "name": "c__0x7d8b3428",
          "type": "bytes32"
        }
      ],
      "name": "c_0x7d8b3428",
      "outputs": [],
      "stateMutability": "pure",
      "type": "function"
    },
    {
      "inputs": [
        {
          "internalType": "bytes32",
          "name": "c__0xb5dcc8d5",
          "type": "bytes32"
        }
      ],
      "name": "c_0xb5dcc8d5",
      "outputs": [],
      "stateMutability": "pure",
      "type": "function"
    },
    {
      "inputs": [
        {
          "internalType": "uint256",
          "name": "tokenId",
          "type": "uint256"
        }
      ],
      "name": "exists",
      "outputs": [
        {
          "internalType": "bool",
          "name": "",
          "type": "bool"
        }
      ],
      "stateMutability": "view",
      "type": "function"
    },
    {
      "inputs": [
        {
          "internalType": "uint256",
          "name": "tokenId",
          "type": "uint256"
        }
      ],
      "name": "getApproved",
      "outputs": [
        {
          "internalType": "address",
          "name": "",
          "type": "address"
        }
      ],
      "stateMutability": "view",
      "type": "function"
    },
    {
      "inputs": [],
      "name": "getDomainSeparator",
      "outputs": [
        {
          "internalType": "bytes32",
          "name": "",
          "type": "bytes32"
        }
      ],
      "stateMutability": "view",
      "type": "function"
    },
    {
      "inputs": [],
      "name": "getSourcePublicationPointer",
      "outputs": [
        {
          "internalType": "uint256",
          "name": "",
          "type": "uint256"
        },
        {
          "internalType": "uint256",
          "name": "",
          "type": "uint256"
        }
      ],
      "stateMutability": "view",
      "type": "function"
    },
    {
      "inputs": [
        {
          "internalType": "uint256",
          "name": "profileId",
          "type": "uint256"
        },
        {
          "internalType": "uint256",
          "name": "pubId",
          "type": "uint256"
        },
        {
          "internalType": "string",
          "name": "name",
          "type": "string"
        },
        {
          "internalType": "string",
          "name": "symbol",
          "type": "string"
        }
      ],
      "name": "initialize",
      "outputs": [],
      "stateMutability": "nonpayable",
      "type": "function"
    },
    {
      "inputs": [
        {
          "internalType": "address",
          "name": "owner",
          "type": "address"
        },
        {
          "internalType": "address",
          "name": "operator",
          "type": "address"
        }
      ],
      "name": "isApprovedForAll",
      "outputs": [
        {
          "internalType": "bool",
          "name": "",
          "type": "bool"
        }
      ],
      "stateMutability": "view",
      "type": "function"
    },
    {
      "inputs": [
        {
          "internalType": "address",
          "name": "to",
          "type": "address"
        }
      ],
      "name": "mint",
      "outputs": [
        {
          "internalType": "uint256",
          "name": "",
          "type": "uint256"
        }
      ],
      "stateMutability": "nonpayable",
      "type": "function"
    },
    {
      "inputs": [
        {
          "internalType": "uint256",
          "name": "tokenId",
          "type": "uint256"
        }
      ],
      "name": "mintTimestampOf",
      "outputs": [
        {
          "internalType": "uint256",
          "name": "",
          "type": "uint256"
        }
      ],
      "stateMutability": "view",
      "type": "function"
    },
    {
      "inputs": [],
      "name": "name",
      "outputs": [
        {
          "internalType": "string",
          "name": "",
          "type": "string"
        }
      ],
      "stateMutability": "view",
      "type": "function"
    },
    {
      "inputs": [
        {
          "internalType": "uint256",
          "name": "tokenId",
          "type": "uint256"
        }
      ],
      "name": "ownerOf",
      "outputs": [
        {
          "internalType": "address",
          "name": "",
          "type": "address"
        }
      ],
      "stateMutability": "view",
      "type": "function"
    },
    {
      "inputs": [
        {
          "internalType": "address",
          "name": "spender",
          "type": "address"
        },
        {
          "internalType": "uint256",
          "name": "tokenId",
          "type": "uint256"
        },
        {
          "components": [
            {
              "internalType": "uint8",
              "name": "v",
              "type": "uint8"
            },
            {
              "internalType": "bytes32",
              "name": "r",
              "type": "bytes32"
            },
            {
              "internalType": "bytes32",
              "name": "s",
              "type": "bytes32"
            },
            {
              "internalType": "uint256",
              "name": "deadline",
              "type": "uint256"
            }
          ],
          "internalType": "struct DataTypes.EIP712Signature",
          "name": "sig",
          "type": "tuple"
        }
      ],
      "name": "permit",
      "outputs": [],
      "stateMutability": "nonpayable",
      "type": "function"
    },
    {
      "inputs": [
        {
          "internalType": "address",
          "name": "owner",
          "type": "address"
        },
        {
          "internalType": "address",
          "name": "operator",
          "type": "address"
        },
        {
          "internalType": "bool",
          "name": "approved",
          "type": "bool"
        },
        {
          "components": [
            {
              "internalType": "uint8",
              "name": "v",
              "type": "uint8"
            },
            {
              "internalType": "bytes32",
              "name": "r",
              "type": "bytes32"
            },
            {
              "internalType": "bytes32",
              "name": "s",
              "type": "bytes32"
            },
            {
              "internalType": "uint256",
              "name": "deadline",
              "type": "uint256"
            }
          ],
          "internalType": "struct DataTypes.EIP712Signature",
          "name": "sig",
          "type": "tuple"
        }
      ],
      "name": "permitForAll",
      "outputs": [],
      "stateMutability": "nonpayable",
      "type": "function"
    },
    {
      "inputs": [
        {
          "internalType": "uint256",
          "name": "tokenId",
          "type": "uint256"
        },
        {
          "internalType": "uint256",
          "name": "salePrice",
          "type": "uint256"
        }
      ],
      "name": "royaltyInfo",
      "outputs": [
        {
          "internalType": "address",
          "name": "",
          "type": "address"
        },
        {
          "internalType": "uint256",
          "name": "",
          "type": "uint256"
        }
      ],
      "stateMutability": "view",
      "type": "function"
    },
    {
      "inputs": [
        {
          "internalType": "address",
          "name": "from",
          "type": "address"
        },
        {
          "internalType": "address",
          "name": "to",
          "type": "address"
        },
        {
          "internalType": "uint256",
          "name": "tokenId",
          "type": "uint256"
        }
      ],
      "name": "safeTransferFrom",
      "outputs": [],
      "stateMutability": "nonpayable",
      "type": "function"
    },
    {
      "inputs": [
        {
          "internalType": "address",
          "name": "from",
          "type": "address"
        },
        {
          "internalType": "address",
          "name": "to",
          "type": "address"
        },
        {
          "internalType": "uint256",
          "name": "tokenId",
          "type": "uint256"
        },
        {
          "internalType": "bytes",
          "name": "_data",
          "type": "bytes"
        }
      ],
      "name": "safeTransferFrom",
      "outputs": [],
      "stateMutability": "nonpayable",
      "type": "function"
    },
    {
      "inputs": [
        {
          "internalType": "address",
          "name": "operator",
          "type": "address"
        },
        {
          "internalType": "bool",
          "name": "approved",
          "type": "bool"
        }
      ],
      "name": "setApprovalForAll",
      "outputs": [],
      "stateMutability": "nonpayable",
      "type": "function"
    },
    {
      "inputs": [
        {
          "internalType": "uint256",
          "name": "royaltyBasisPoints",
          "type": "uint256"
        }
      ],
      "name": "setRoyalty",
      "outputs": [],
      "stateMutability": "nonpayable",
      "type": "function"
    },
    {
      "inputs": [
        {
          "internalType": "address",
          "name": "",
          "type": "address"
        }
      ],
      "name": "sigNonces",
      "outputs": [
        {
          "internalType": "uint256",
          "name": "",
          "type": "uint256"
        }
      ],
      "stateMutability": "view",
      "type": "function"
    },
    {
      "inputs": [
        {
          "internalType": "bytes4",
          "name": "interfaceId",
          "type": "bytes4"
        }
      ],
      "name": "supportsInterface",
      "outputs": [
        {
          "internalType": "bool",
          "name": "",
          "type": "bool"
        }
      ],
      "stateMutability": "view",
      "type": "function"
    },
    {
      "inputs": [],
      "name": "symbol",
      "outputs": [
        {
          "internalType": "string",
          "name": "",
          "type": "string"
        }
      ],
      "stateMutability": "view",
      "type": "function"
    },
    {
      "inputs": [
        {
          "internalType": "uint256",
          "name": "index",
          "type": "uint256"
        }
      ],
      "name": "tokenByIndex",
      "outputs": [
        {
          "internalType": "uint256",
          "name": "",
          "type": "uint256"
        }
      ],
      "stateMutability": "view",
      "type": "function"
    },
    {
      "inputs": [
        {
          "internalType": "uint256",
          "name": "tokenId",
          "type": "uint256"
        }
      ],
      "name": "tokenDataOf",
      "outputs": [
        {
          "components": [
            {
              "internalType": "address",
              "name": "owner",
              "type": "address"
            },
            {
              "internalType": "uint96",
              "name": "mintTimestamp",
              "type": "uint96"
            }
          ],
          "internalType": "struct IERC721Time.TokenData",
          "name": "",
          "type": "tuple"
        }
      ],
      "stateMutability": "view",
      "type": "function"
    },
    {
      "inputs": [
        {
          "internalType": "address",
          "name": "owner",
          "type": "address"
        },
        {
          "internalType": "uint256",
          "name": "index",
          "type": "uint256"
        }
      ],
      "name": "tokenOfOwnerByIndex",
      "outputs": [
        {
          "internalType": "uint256",
          "name": "",
          "type": "uint256"
        }
      ],
      "stateMutability": "view",
      "type": "function"
    },
    {
      "inputs": [
        {
          "internalType": "uint256",
          "name": "tokenId",
          "type": "uint256"
        }
      ],
      "name": "tokenURI",
      "outputs": [
        {
          "internalType": "string",
          "name": "",
          "type": "string"
        }
      ],
      "stateMutability": "view",
      "type": "function"
    },
    {
      "inputs": [],
      "name": "totalSupply",
      "outputs": [
        {
          "internalType": "uint256",
          "name": "",
          "type": "uint256"
        }
      ],
      "stateMutability": "view",
      "type": "function"
    },
    {
      "inputs": [
        {
          "internalType": "address",
          "name": "from",
          "type": "address"
        },
        {
          "internalType": "address",
          "name": "to",
          "type": "address"
        },
        {
          "internalType": "uint256",
          "name": "tokenId",
          "type": "uint256"
        }
      ],
      "name": "transferFrom",
      "outputs": [],
      "stateMutability": "nonpayable",
      "type": "function"
    }
  ],
  "bytecode": "0x60a06040523480156200001157600080fd5b50604051620054f4380380620054f48339818101604052810190620000379190620002cc565b6200006b7f03a6d992869654bc09daa1dcaacf6bf7f3dd0fc664300917a7c8cd060289b83860001b620002c960201b60201c565b6200009f7f1d788dde22e9ddf6f6bc06e4018678b1219c37686157b490db9ad5be5a75f1fb60001b620002c960201b60201c565b620000d37f763bafec441f635549b7c37a884c77b31de840658c1dd14b3f01ec6fb98430b860001b620002c960201b60201c565b600073ffffffffffffffffffffffffffffffffffffffff168173ffffffffffffffffffffffffffffffffffffffff1614156200016f576200013d7f223a7bdfe99696485fbef89713008410e8fd95fb45809456810655aa10d58ec160001b620002c960201b60201c565b6040517f48be0eb300000000000000000000000000000000000000000000000000000000815260040160405180910390fd5b620001a37f13b60f3a38cfc69f20cd34dfc7d6eb52ce853d0cc8d7f0df46bc78becc338eae60001b620002c960201b60201c565b620001d77fe45e6f8a67938235e32778081c6a7bb339e862235558a37be3280abbfa7f8d2d60001b620002c960201b60201c565b6200020b7f6f27085fc28090779422092496c36171dbce173b9a0c61b1a84d7a43cc724c5f60001b620002c960201b60201c565b8073ffffffffffffffffffffffffffffffffffffffff1660808173ffffffffffffffffffffffffffffffffffffffff1681525050620002737faf8a1d3e028d400db5d996e041538573693cbab3ba893a3a9351ce9228fbb89e60001b620002c960201b60201c565b620002a77f2627fa2142afc8721ac1a061331f57a2a70210c0092e0ac3f08bd7b7d386389c60001b620002c960201b60201c565b6001600e60006101000a81548160ff0219169083151502179055505062000300565b50565b600060208284031215620002df57600080fd5b815160018060a01b0381168114620002f657600080fd5b8091505092915050565b6080516151b56200033f60003960008181610acc0152818161111901528181611805015281816120840152818161238b015261397d01526151b56000f3fe608060405234801561001057600080fd5b50600436106101fb5760003560e01c80636352211e1161011a578063aaea194c116100ad578063dd69cdb11161007c578063dd69cdb11461060c578063e985e9c514610628578063ec188be614610658578063ed24911d14610674578063f990ccd714610692576101fb565b8063aaea194c14610574578063b88d4fde14610590578063c0da9bcd146105ac578063c87b56dd146105dc576101fb565b806389028a13116100e957806389028a131461050057806395d89b411461051c578063a22cb4651461053a578063a4c52b8614610556576101fb565b80636352211e146104545780636a6278421461048457806370a08231146104b45780637ef67f99146104e4576101fb565b80633a755ed11161019257806342966c681161016157806342966c68146103a85780634f558e79146103c45780634f6ccce7146103f457806350ddf35c14610424576101fb565b80633a755ed1146103355780633fa78c0a146103545780634209a2e11461037057806342842e0e1461038c576101fb565b806318160ddd116101ce57806318160ddd1461029a57806323b872dd146102b85780632a55205a146102d45780632f745c5914610305576101fb565b806301ffc9a71461020057806306fdde0314610230578063081812fc1461024e578063095ea7b31461027e575b600080fd5b61021a6004803603810190610215919061416e565b6106c2565b6040516102279190614195565b60405180910390f35b6102386107a7565b6040516102459190614209565b60405180910390f35b61026860048036038101906102639190614224565b610839565b6040516102759190614240565b60405180910390f35b61029860048036038101906102939190614270565b6108be565b005b6102a26109d6565b6040516102af91906142a0565b60405180910390f35b6102d260048036038101906102cd91906142b1565b6109e3565b005b6102ee60048036038101906102e991906142f5565b610a43565b6040516102fc92919061431a565b60405180910390f35b61031f600480360381019061031a9190614270565b610b90565b60405161032c91906142a0565b60405180910390f35b61033d610c35565b60405161034b92919061433a565b60405180910390f35b61036e6004803603810190610369919061439c565b610cca565b005b61038a60048036038101906103859190614224565b61107c565b005b6103a660048036038101906103a191906142b1565b611408565b005b6103c260048036038101906103bd9190614224565b611428565b005b6103de60048036038101906103d99190614224565b6115a8565b6040516103eb9190614195565b60405180910390f35b61040e60048036038101906104099190614224565b6115ba565b60405161041b91906142a0565b60405180910390f35b61043e60048036038101906104399190614224565b61162b565b60405161044b91906142a0565b60405180910390f35b61046e60048036038101906104699190614224565b6116c8565b60405161047b9190614240565b60405180910390f35b61049e60048036038101906104999190614425565b61177d565b6040516104ab91906142a0565b60405180910390f35b6104ce60048036038101906104c99190614425565b611932565b6040516104db91906142a0565b60405180910390f35b6104fe60048036038101906104f99190614467565b6119ea565b005b61051a600480360381019061051591906144c1565b611cd8565b005b610524611f64565b6040516105319190614209565b60405180910390f35b610554600480360381019061054f919061451e565b611ff6565b005b61055e612082565b60405161056b9190614240565b60405180910390f35b61058e60048036038101906105899190614555565b6120a6565b005b6105aa60048036038101906105a591906145ec565b6120a9565b005b6105c660048036038101906105c19190614224565b61210b565b6040516105d391906146a2565b60405180910390f35b6105f660048036038101906105f19190614224565b612214565b6040516106039190614209565b60405180910390f35b610626600480360381019061062191906146d4565b612435565b005b610642600480360381019061063d9190614701565b612608565b60405161064f9190614195565b60405180910390f35b610672600480360381019061066d9190614555565b61269c565b005b61067c61269f565b604051610689919061473c565b60405180910390f35b6106ac60048036038101906106a79190614425565b612732565b6040516106b991906142a0565b60405180910390f35b60006106f07fddb60db1fb4cad36fd3b54c21a6bbb0c7e631b2fcba211b7c83ee81cf9cf461a60001b6120a6565b61071c7fbadd7a635e3fcbf342f4acd5cf3d1357f9635674d21d945e6f34dd14312dca6360001b6120a6565b6107487f6fc8988426c106f6250b225d948bbe0f99e4990cc745d19545af929e644c721960001b6120a6565b632a55205a60e01b7bffffffffffffffffffffffffffffffffffffffffffffffffffffffff1916827bffffffffffffffffffffffffffffffffffffffffffffffffffffffff191614806107a0575061079f8261274a565b5b9050919050565b6060600080546107b69061474d565b80601f01602080910402602001604051908101604052809291908181526020018280546107e29061474d565b801561082f5780601f106108045761010080835404028352916020019161082f565b820191906000526020600020905b81548152906001019060200180831161081257829003601f168201915b5050505050905090565b6000610844826127c4565b610883576040517f08c379a000000000000000000000000000000000000000000000000000000000815260040161087a9061478c565b60405180910390fd5b6004600083815260200190815260200160002060009054906101000a900473ffffffffffffffffffffffffffffffffffffffff169050919050565b60006108c9826116c8565b90508073ffffffffffffffffffffffffffffffffffffffff168373ffffffffffffffffffffffffffffffffffffffff16141561093a576040517f08c379a0000000000000000000000000000000000000000000000000000000008152600401610931906147f0565b60405180910390fd5b8073ffffffffffffffffffffffffffffffffffffffff16610959612833565b73ffffffffffffffffffffffffffffffffffffffff161480610988575061098781610982612833565b612608565b5b6109c7576040517f08c379a00000000000000000000000000000000000000000000000000000000081526004016109be90614854565b60405180910390fd5b6109d1838361283b565b505050565b6000600880549050905090565b6109f46109ee612833565b826128f4565b610a33576040517f08c379a0000000000000000000000000000000000000000000000000000000008152600401610a2a906148b8565b60405180910390fd5b610a3e8383836129d2565b505050565b600080610a727f4de0144f81c713175c1433723f5f4d11ab74d9df3aaf712daeb62def97de5b4d60001b6120a6565b610a9e7f6593be3648522f17e7531de06a151bd84c5194d9bb0fcdaee2fb4d6455d50a5060001b6120a6565b610aca7f206e1e4b8666f5416dd0cdab875233f10783e7f882c911af8ac5da8141aa195e60001b6120a6565b7f000000000000000000000000000000000000000000000000000000000000000073ffffffffffffffffffffffffffffffffffffffff16636352211e600b546040518263ffffffff1660e01b8152600401610b2591906142a0565b602060405180830381865afa158015610b42573d6000803e3d6000fd5b505050506040513d601f19601f82011682018060405250810190610b66919061491c565b61271061ffff16600f5485610b7b9190614959565b610b85919061497f565b915091509250929050565b6000610b9b83611932565b8210610bdc576040517f08c379a0000000000000000000000000000000000000000000000000000000008152600401610bd3906149a7565b60405180910390fd5b600660008473ffffffffffffffffffffffffffffffffffffffff1673ffffffffffffffffffffffffffffffffffffffff168152602001908152602001600020600083815260200190815260200160002054905092915050565b600080610c647f6a549f730580b8387157fd1eb00d06b7b5d64d4ca3e317f403ff2c25e2a33d5a60001b6120a6565b610c907fe35b41f6034bd0d081aeefc3b39d20d340b1c00a8cbef92f200f2f7672ccbeda60001b6120a6565b610cbc7f62cf19702849700e14aa7e24a95d93fe2ba795f0bfc48e120d49af51f7b6716460001b6120a6565b600b54600c54915091509091565b610cf67f1de618ecc7ed7d411edde9c1b67ea7689edb896fecaa5413daf90cb3a8023cec60001b6120a6565b610d227f6679bef52492ec289b11f06616c1c1f37da24712b878248ca4cf01693ebce12a60001b6120a6565b610d4e7f344a6423343be4e7b3a32c9525cc5ab0ab0fb82956caf83c2101f0859747e19a60001b6120a6565b600e60009054906101000a900460ff1615610dc157610d8f7fa1016c0d06879ed2de2bbadbe1cd6c7a5ac9c6f2514ca295802dc4cd3b38843d60001b6120a6565b6040517f5daa87a000000000000000000000000000000000000000000000000000000000815260040160405180910390fd5b610ded7f1f361a4269896c298d941845645f89a83d388e78bbf63dc0df333d8fb11daffa60001b6120a6565b610e197fefa392b6261a09704cea3d1d972da52f9ffe40cbbc887f07b5a55a6c75bcb1a460001b6120a6565b610e457fa4623dbff2ddab1c32ecf3a962368fb4044e8b6f281340aff69f431ecb2c97c460001b6120a6565b6001600e60006101000a81548160ff021916908315150217905550610e8c7fb8f8dfcae2fe45b43c593315e186b870a61af48e9c7deb1281a6dff9ccc437b560001b6120a6565b610eb87f46e2ce09e888567b780ca24ddeab39b226042001022c1f165cc69beef2b9b93c60001b6120a6565b6103e8600f81905550610eed7fb5edfffe0f523d31bde31db7230d7b9504f5970ac88160a8aa0416d24206d41c60001b6120a6565b610f197fef622265ccbe6947f5bb8416721016812e0a11b5d0721c8717053e2dbce41f2a60001b6120a6565b85600b81905550610f4c7f57986cd876480dd5245bc5c93a274039d85ed6783681e7b4131bcc233a58d03060001b6120a6565b610f787f317c14c285ea5a73264fed3926cf20d3d500e7b4638730dc42938bba7042a78c60001b6120a6565b84600c81905550610fab7f4498dea9a8dc61f2324ae73c508447f0976aa7927032a5cdcd9db54c427921ce60001b6120a6565b610fd77f91cb0dfe6328ef23ecde039fc9113b5805f2bef555628d90090d1b255a8af18360001b6120a6565b610fe384848484612c31565b61100f7f36bcf65ee41788422543396b612dbd28ae904197adc20c3b191e15885d6799a360001b6120a6565b61103b7fb3f2ebbcd8d491b627d78ededed20530acaab5672e7681d8de9f64c4b103587d60001b6120a6565b84867f898a2dec95856255977a0fb48cebc30051d50c0d8d33f93dea1e3ddb2e3424424260405161106c91906142a0565b60405180910390a3505050505050565b6110a87f4d0a06aa082bb9e024fa31a3226cedc5e509ec7640a3a08411dd48c932bb066c60001b6120a6565b6110d47fbb8dc81c5076eeaa866513c2b9f97aafde3c9c404c7b26772d3760484fee284160001b6120a6565b6111007fb88052e23940083069d0d7cec6019b70743f1922949e092e17553411e439142460001b6120a6565b3373ffffffffffffffffffffffffffffffffffffffff167f000000000000000000000000000000000000000000000000000000000000000073ffffffffffffffffffffffffffffffffffffffff16636352211e600b546040518263ffffffff1660e01b815260040161117291906142a0565b602060405180830381865afa15801561118f573d6000803e3d6000fd5b505050506040513d601f19601f820116820180604052508101906111b3919061491c565b73ffffffffffffffffffffffffffffffffffffffff16141561137b576111fb7fa06a7b8028e4dceaa1b86c2a159b8e10a42e3f60b0dfa441592f33582845c69960001b6120a6565b6112277f6a65ce6d344512ea92072f6c62ed2a31ab59e3369bb4b962cec6d35202c6a43a60001b6120a6565b6112537fa9962e79b7254e45aedc5d723e5fdfda7d0637e7188eafc5162455347cc7990460001b6120a6565b61271061ffff168111156112eb5761128d7fc620fc23c34e63382e6e3e481e5f921e8e74d920242d32f44076420bc695982060001b6120a6565b6112b97f1b517f43aa4abc8d65791bb6df62d87204a156e41bb0cbd07223c1512b18042d60001b6120a6565b6040517f613970e000000000000000000000000000000000000000000000000000000000815260040160405180910390fd5b6113177f89fec38611df44f96448ea1d4c6eccbab91e7840a97aa85cb6bc28263c18434b60001b6120a6565b6113437f2bc7edc31cc9a11ddb1f735c2864d7b9a25ecbe6a5676ffe1da50ea0481e10f260001b6120a6565b61136f7f07520ff39fd112d115df697d6f36c37385348c23479aba773e5db68378734f2160001b6120a6565b80600f81905550611405565b6113a77fae3aa61b0ccd2f37757345791d5ed644215f5191f486f2b681f9f5b6d6612e8960001b6120a6565b6113d37f720ec9172e2fa84094bb2ff554df61682b789ebb0330f628c7999f08ac94c4df60001b6120a6565b6040517ff194fae500000000000000000000000000000000000000000000000000000000815260040160405180910390fd5b50565b611423838383604051806020016040528060008152506120a9565b505050565b6114547f1e443033c6d02bbaa03bdf4970f561a75af3ed82ad9781c0ab4fd6e74ce75bae60001b61269c565b6114807f2a42674d77a265060340c7cf0fdc739cff691bcafb35037b7a8f3eccb971352260001b61269c565b6114ac7f441c7a71b50b4622ef6002013e492a2d78a773f74fd4b5a256dce13d1f2aa8d960001b61269c565b6114b633826128f4565b611518576114e67fad972cc2101e1e3de980e2c152e766b809664195285046f5481dedeac5ca8c9660001b61269c565b6040517fdb1453ce00000000000000000000000000000000000000000000000000000000815260040160405180910390fd5b6115447fd92f40cf9fee1ce225d8edcfa66dfea14bed6339e5bac50c6ad9f51fdc88bc5a60001b61269c565b6115707fb036ec274487e608e740a54e912a906f815223559be24c384605589efd3fea7460001b61269c565b61159c7f3bd8b994e9ed7fd1db7311da3911d68534a2196f3c78dc36624cc2cc516162fa60001b61269c565b6115a581612d5d565b50565b60006115b3826127c4565b9050919050565b60006115c46109d6565b8210611605576040517f08c379a00000000000000000000000000000000000000000000000000000000081526004016115fc90614a0b565b60405180910390fd5b6008828154811061161957611618614a6f565b5b90600052602060002001549050919050565b6000806002600084815260200190815260200160002060000160149054906101000a90046bffffffffffffffffffffffff1690506000816bffffffffffffffffffffffff1614156116b1576040517f08c379a00000000000000000000000000000000000000000000000000000000081526004016116a890614a85565b60405180910390fd5b806bffffffffffffffffffffffff16915050919050565b6000806002600084815260200190815260200160002060000160009054906101000a900473ffffffffffffffffffffffffffffffffffffffff169050600073ffffffffffffffffffffffffffffffffffffffff168173ffffffffffffffffffffffffffffffffffffffff161415611774576040517f08c379a000000000000000000000000000000000000000000000000000000000815260040161176b90614ae9565b60405180910390fd5b80915050919050565b60006117ab7f938c6c66fe04b5e04bbc42e9b710f3627be5cd0fea2a72423d10bae9a098941c60001b6120a6565b6117d77fe1957ad5921f3dc9a81684057fe82fdcb68ac5b488a44355baee65a00b78433b60001b6120a6565b6118037f8e837e6087cc5c887cfe3e158a03a37de1a0b2bc31ae41b9512ab6297c846bab60001b6120a6565b7f000000000000000000000000000000000000000000000000000000000000000073ffffffffffffffffffffffffffffffffffffffff163373ffffffffffffffffffffffffffffffffffffffff16146118b4576118827f4f89ed231ef35a18b4bf23f5adb6bede8b1744930e25b9d85f3524a37d65811a60001b6120a6565b6040517f9de9741800000000000000000000000000000000000000000000000000000000815260040160405180910390fd5b6118e07f7c04203ab2730a1412f0d669a2510959ef2e4f92259d6ff8acf49d2a4a6a2e3560001b6120a6565b61190c7f5cdaf898604462a73add66135f4511242a954654d3c925f6e337c166153399d060001b6120a6565b6000600d6000815460010191905081905590506119298382612e94565b80915050919050565b60008073ffffffffffffffffffffffffffffffffffffffff168273ffffffffffffffffffffffffffffffffffffffff1614156119a3576040517f08c379a000000000000000000000000000000000000000000000000000000000815260040161199a90614b4d565b60405180910390fd5b600360008373ffffffffffffffffffffffffffffffffffffffff1673ffffffffffffffffffffffffffffffffffffffff168152602001908152602001600020549050919050565b611a167f632106f6bd346f0dcae78fc2a89b45f5ad16031c5e7f4700b354d4106fed9dcc60001b61269c565b611a427fb187107d06550fc166f0a399448d3721d14d9909ac10a91fd245b2f9c17a6bbb60001b61269c565b611a6e7f324438e96ca519098cca5f2f23428c91f83727123c3e49d29efe17c29f13143860001b61269c565b600073ffffffffffffffffffffffffffffffffffffffff168373ffffffffffffffffffffffffffffffffffffffff161415611b0157611acf7f541afe405bb2713655ed5251ec1b504e4b4625912d1537cc2d89f3d4d65b3d6d60001b61269c565b6040517f1fac5b7400000000000000000000000000000000000000000000000000000000815260040160405180910390fd5b611b2d7fa329fce4e41c74c84cc84078bf7da7b25239bf129149085272e49d1eb504f7ef60001b61269c565b611b597f7dd014c86d9546338077cc48eeb85bce456664ef107af70f04cdd841fd4f17a360001b61269c565b611b857f241e6a198c1d3e5142697e874f916c54140674e16a518ac82e8aa2cf46c51b2260001b61269c565b6000611b90836116c8565b9050611bbe7f14e7b54e4bfefdd1d592e1cf4a6ce45f52092dc2dab8d0b2f08ca9bf471b27af60001b61269c565b611c70611c697f49ecf333e5b8c95c40fdafc95c1ad136e8914a8fb55e9dc8bb01eaa83a2df9ad8686600a60008773ffffffffffffffffffffffffffffffffffffffff1673ffffffffffffffffffffffffffffffffffffffff1681526020019081526020016000206000815480929190600101919050558760600135604051602001611c4e959493929190614bb1565b604051602081830303815290604052805190602001206130aa565b82846131f1565b611c9c7f98ad8a9b6043385eb415e9b66e79c886185640b48e618d7fa8d81ad6869580fa60001b61269c565b611cc87f21f2b1dc39a865ce7c68fc8a4487eaa05cbfb8f711a3e7a47059fb69187c541d60001b61269c565b611cd2848461283b565b50505050565b611d047ff91d9c296456cdaeb83d1e17509ef0a7b3f1067ff9814b42a87b43d058d4b05060001b61269c565b611d307fef681b18372c2180d1d12d4db13c6ed445b102c0788ebc7d576b3711dcd7d3fe60001b61269c565b611d5c7f13425a2317a404020d782da2ac995329602e69f4e1ee51b9e25fb3edf6d82ae160001b61269c565b600073ffffffffffffffffffffffffffffffffffffffff168373ffffffffffffffffffffffffffffffffffffffff161415611def57611dbd7f40283bb36c06759b2556a1b97ba8b7aed732ca776e7efd3250540f891ac9f72b60001b61269c565b6040517f1fac5b7400000000000000000000000000000000000000000000000000000000815260040160405180910390fd5b611e1b7f0816936b820f6da98f9a6242a25507969e91b4064426cb59d161fc94d5f5432060001b61269c565b611e477fc17495168561a8b3d5f09aa0780bbfa618cd0674804048a9d98c43ee3a0a8e2560001b61269c565b611efb611ef47f47ab88482c90e4bb94b82a947ae78fa91fb25de1469ab491f4c15b9a0a2677ee868686600a60008b73ffffffffffffffffffffffffffffffffffffffff1673ffffffffffffffffffffffffffffffffffffffff1681526020019081526020016000206000815480929190600101919050558760600135604051602001611ed996959493929190614be6565b604051602081830303815290604052805190602001206130aa565b85836131f1565b611f277fe1809dda1980d1132c0ed0651ea80080884028f8e62fe6c860cffbf5bf06e50260001b61269c565b611f537fd871baad26c4abf901e175600966e4ed3a63b79d1433f2b535b272bb90df2f4d60001b61269c565b611f5e848484613550565b50505050565b606060018054611f739061474d565b80601f0160208091040260200160405190810160405280929190818152602001828054611f9f9061474d565b8015611fec5780601f10611fc157610100808354040283529160200191611fec565b820191906000526020600020905b815481529060010190602001808311611fcf57829003601f168201915b5050505050905090565b611ffe612833565b73ffffffffffffffffffffffffffffffffffffffff168273ffffffffffffffffffffffffffffffffffffffff16141561206c576040517f08c379a000000000000000000000000000000000000000000000000000000000815260040161206390614c28565b60405180910390fd5b61207e612077612833565b8383613550565b5050565b7f000000000000000000000000000000000000000000000000000000000000000081565b50565b6120ba6120b4612833565b836128f4565b6120f9576040517f08c379a00000000000000000000000000000000000000000000000000000000081526004016120f0906148b8565b60405180910390fd5b6121058484848461364e565b50505050565b612113614075565b61211c826127c4565b61215b576040517f08c379a000000000000000000000000000000000000000000000000000000000815260040161215290614c66565b60405180910390fd5b600260008381526020019081526020016000206040518060400160405290816000820160009054906101000a900473ffffffffffffffffffffffffffffffffffffffff1673ffffffffffffffffffffffffffffffffffffffff1673ffffffffffffffffffffffffffffffffffffffff1681526020016000820160149054906101000a90046bffffffffffffffffffffffff166bffffffffffffffffffffffff166bffffffffffffffffffffffff16815250509050919050565b60606122427fd25a21ba8b605b3c776849a767656804d22168815f36a950ee9a7b99b339e8b660001b6120a6565b61226e7f8d4125629485d4eb0c99b6832ee231a66d3dbcbc1bbf6823198808a622ec136e60001b6120a6565b61229a7f0bd89196b15a1c6ce4ecf7753541d468c747155c8ab95672ad816bf1a8d82ee960001b6120a6565b6122a3826127c4565b612305576122d37f76edc39fab4246d0286c81333958015e5efc8afa9177f61824481bd52f097fad60001b6120a6565b6040517fceea21b600000000000000000000000000000000000000000000000000000000815260040160405180910390fd5b6123317fbc87609245b8ade821b8caae983eecc40c726f0c5d926b47e55fcf926f3750ff60001b6120a6565b61235d7f050214fd106e76e7c0da544a517d11f0886b671dcc6ee0bb79b3d28236eca52760001b6120a6565b6123897f082f5abaaf6718ae4c51db46d80d8cfe5a4a0a6939ffa41354f88a6248b1785d60001b6120a6565b7f000000000000000000000000000000000000000000000000000000000000000073ffffffffffffffffffffffffffffffffffffffff1663b5a31496600b54600c546040518363ffffffff1660e01b81526004016123e892919061433a565b600060405180830381865afa158015612405573d6000803e3d6000fd5b505050506040513d6000823e3d601f19601f8201168201806040525081019061242e9190614cca565b9050919050565b6124617fa52223f83782fafaa3dfd442cf854026aaa7c5d4c568369a80bbf8d49b4474ed60001b61269c565b61248d7f7b78d8c297bfa0ad51cc2266e7e3585c54bdcdab7e467f27234013fe585b8c1560001b61269c565b6124b97f2ab1d7704d4266f2d8bcb1d8234f61fc335f5ed52a97414dd8c34f6b8bb4fbdc60001b61269c565b60006124c4836116c8565b90506124f27f608bca24267773e18becdb3b48bf8a00a3a9e2f605c006d3e50e1d80989ab6a560001b61269c565b6125a261259b7f108ccda6d7331b00561a3eea66a2ae331622356585681c62731e4a01aae2261a85600a60008673ffffffffffffffffffffffffffffffffffffffff1673ffffffffffffffffffffffffffffffffffffffff16815260200190815260200160002060008154809291906001019190505586606001356040516020016125809493929190614d4c565b604051602081830303815290604052805190602001206130aa565b82846131f1565b6125ce7f578e04a864e27e7ca2ab3b9eefbe6dff5df8e593432c8f871ddb50c445bb055860001b61269c565b6125fa7f257c96be6a897b65909d17df5083c3713e0e709328f5392a90239d0f7d83e39f60001b61269c565b61260383612d5d565b505050565b6000600560008473ffffffffffffffffffffffffffffffffffffffff1673ffffffffffffffffffffffffffffffffffffffff16815260200190815260200160002060008373ffffffffffffffffffffffffffffffffffffffff1673ffffffffffffffffffffffffffffffffffffffff16815260200190815260200160002060009054906101000a900460ff16905092915050565b50565b60006126cd7f2c9acd25c9540de399328a2375ce3d6c48afefb9cc6b1b151939157c8f88dee360001b61269c565b6126f97f0bfc0a393ce86133ea2330095f6425e51796d27a4d89f3b340171197263ce39a60001b61269c565b6127257f1ba8bf142f1c509bd10ab6716346d2a55d0c8d7b6ddcc0822f6d5e7bdf4966b260001b61269c565b61272d6136aa565b905090565b600a6020528060005260406000206000915090505481565b60007f780e9d63000000000000000000000000000000000000000000000000000000007bffffffffffffffffffffffffffffffffffffffffffffffffffffffff1916827bffffffffffffffffffffffffffffffffffffffffffffffffffffffff191614806127bd57506127bc826137b2565b5b9050919050565b60008073ffffffffffffffffffffffffffffffffffffffff166002600084815260200190815260200160002060000160009054906101000a900473ffffffffffffffffffffffffffffffffffffffff1673ffffffffffffffffffffffffffffffffffffffff1614159050919050565b600033905090565b816004600083815260200190815260200160002060006101000a81548173ffffffffffffffffffffffffffffffffffffffff021916908373ffffffffffffffffffffffffffffffffffffffff160217905550808273ffffffffffffffffffffffffffffffffffffffff166128ae836116c8565b73ffffffffffffffffffffffffffffffffffffffff167f8c5be1e5ebec7d5bd14f71427d1e84f3dd0314c0f7b2291e5b200ac8c7c3b92560405160405180910390a45050565b60006128ff826127c4565b61293e576040517f08c379a000000000000000000000000000000000000000000000000000000000815260040161293590614d72565b60405180910390fd5b6000612949836116c8565b90508073ffffffffffffffffffffffffffffffffffffffff168473ffffffffffffffffffffffffffffffffffffffff1614806129b857508373ffffffffffffffffffffffffffffffffffffffff166129a084610839565b73ffffffffffffffffffffffffffffffffffffffff16145b806129c957506129c88185612608565b5b91505092915050565b8273ffffffffffffffffffffffffffffffffffffffff166129f2826116c8565b73ffffffffffffffffffffffffffffffffffffffff1614612a48576040517f08c379a0000000000000000000000000000000000000000000000000000000008152600401612a3f90614dd6565b60405180910390fd5b600073ffffffffffffffffffffffffffffffffffffffff168273ffffffffffffffffffffffffffffffffffffffff161415612ab8576040517f08c379a0000000000000000000000000000000000000000000000000000000008152600401612aaf90614e3a565b60405180910390fd5b612ac3838383613894565b612ace60008261283b565b6001600360008573ffffffffffffffffffffffffffffffffffffffff1673ffffffffffffffffffffffffffffffffffffffff1681526020019081526020016000206000828254612b1e9190614e9e565b925050819055506001600360008473ffffffffffffffffffffffffffffffffffffffff1673ffffffffffffffffffffffffffffffffffffffff1681526020019081526020016000206000828254612b759190614ebc565b92505081905550816002600083815260200190815260200160002060000160006101000a81548173ffffffffffffffffffffffffffffffffffffffff021916908373ffffffffffffffffffffffffffffffffffffffff160217905550808273ffffffffffffffffffffffffffffffffffffffff168473ffffffffffffffffffffffffffffffffffffffff167fddf252ad1be2c89b69c2b068fc378daa952ba7f163c4a11628f55a4df523b3ef60405160405180910390a4505050565b612c5d7f16a92f2b6ac3c11b97febf2cc15b152fc9d04704871fac5e9063be9a4ec87c7660001b61269c565b612c897f59d6fe526097614c257717b0069b4a067b8d3e4633fc4e08e55334b51fa8a37e60001b61269c565b612cb47e7cac95e89e29e94621f9b3d5802f175056324efcc07d2be0abee54b622e93760001b61269c565b612cc084848484613a17565b612cec7f302fa53f6316444e7d179fc393ade3a2ed8cd348c74c392908e3ccd2f4592fb560001b61269c565b612d187fa5049245cc22838fb02227d25c30d7b8e7c5e6a63b4a65b437e3830add39e30660001b61269c565b7f414cd0b34676984f09a5f76ce9718d4062e50283abe0e7e274a9a5b4e0c99c308484848442604051612d4f959493929190614f06565b60405180910390a150505050565b6000612d68826116c8565b9050612d7681600084613894565b612d8160008361283b565b6001600360008373ffffffffffffffffffffffffffffffffffffffff1673ffffffffffffffffffffffffffffffffffffffff1681526020019081526020016000206000828254612dd19190614e9e565b9250508190555060026000838152602001908152602001600020600080820160006101000a81549073ffffffffffffffffffffffffffffffffffffffff02191690556000820160146101000a8154906bffffffffffffffffffffffff0219169055505081600073ffffffffffffffffffffffffffffffffffffffff168273ffffffffffffffffffffffffffffffffffffffff167fddf252ad1be2c89b69c2b068fc378daa952ba7f163c4a11628f55a4df523b3ef60405160405180910390a45050565b600073ffffffffffffffffffffffffffffffffffffffff168273ffffffffffffffffffffffffffffffffffffffff161415612f04576040517f08c379a0000000000000000000000000000000000000000000000000000000008152600401612efb90614f40565b60405180910390fd5b612f0d816127c4565b15612f4d576040517f08c379a0000000000000000000000000000000000000000000000000000000008152600401612f4490614f7d565b60405180910390fd5b612f5960008383613894565b6001600360008473ffffffffffffffffffffffffffffffffffffffff1673ffffffffffffffffffffffffffffffffffffffff1681526020019081526020016000206000828254612fa99190614ebc565b92505081905550816002600083815260200190815260200160002060000160006101000a81548173ffffffffffffffffffffffffffffffffffffffff021916908373ffffffffffffffffffffffffffffffffffffffff160217905550426002600083815260200190815260200160002060000160146101000a8154816bffffffffffffffffffffffff02191690836bffffffffffffffffffffffff160217905550808273ffffffffffffffffffffffffffffffffffffffff16600073ffffffffffffffffffffffffffffffffffffffff167fddf252ad1be2c89b69c2b068fc378daa952ba7f163c4a11628f55a4df523b3ef60405160405180910390a45050565b60006130d87fd89baf4740064c2ea281d128390a8e26b2bb8d9c1f7e5098f59e8c3a4b67141f60001b61269c565b6131047fd69731a1d1da4965af9d9c90aa9061df1077ee581b3c07ba1f5428cbf6b1767b60001b61269c565b6131307f766dec958317820722c21547e7581524be869e361a488a46d9c218a5684f531060001b61269c565b600061315e7f0becec9f241d9d8f525066871448e608b11861523cfd503678499c2a225c609c60001b61269c565b6131666136aa565b83604051602001613178929190614fbb565b6040516020818303038152906040528051906020012090506131bc7f243480fa977ae50fdc4dd48978f3282c2ccfa3d0d894d5a741721bb6c3282ea960001b61269c565b6131e87ffb392bb1bf46ce708778983447592b6f120afec52dbe13d5b3c3ce5f86f70fd160001b61269c565b80915050919050565b61321d7f37fd276641baafc08e65809714161d731c6951eac760d8053aa40bfe4cdfde8560001b61269c565b6132497f98b35617702ea5c0ff1bc4207dd11c6250b65c76cbc2849af7b891bd1c6af6b560001b61269c565b6132757f48f26d1a0b4e6092ca616da92583cfca1e9e401780ea32254bbb8139d18d110760001b61269c565b42816060013510156132df576132ad7fafc82607c6cd75ea9c6739eab8d4a6dbbb0af4d4f1b80132a2a917ed29efe7be60001b61269c565b6040517f0819bdcd00000000000000000000000000000000000000000000000000000000815260040160405180910390fd5b61330b7fde1f8ee4b6a0cafcac9d32d2b0fdf1c0782c5f5ffca7dd02442c3edba16a335260001b61269c565b6133377f37973822d20079658b4df14254ef25c7fe25afa01b22cf8979bbf28b5cd061c560001b61269c565b6133637f4bb4c6180b4f8e747fd2262ecfcb1583111d7365fc9e93c0e047f85e2c85cbad60001b61269c565b600060018483600001602081019061337b9190614fde565b84602001358560400135604051600081526020016040526040516133a2949392919061500b565b6020604051602081039080840390855afa1580156133c4573d6000803e3d6000fd5b5050506020604051035190506133fc7fd09b70ba90ef890f32a078f145067ac8a4dbfc699f27f3c263c8f122e4123d7660001b61269c565b6134287f75351b233b3f07f28fbea901f1b8d48f697a9ff7a5db3009ce3e5955274754b560001b61269c565b600073ffffffffffffffffffffffffffffffffffffffff168173ffffffffffffffffffffffffffffffffffffffff16148061348f57508273ffffffffffffffffffffffffffffffffffffffff168173ffffffffffffffffffffffffffffffffffffffff1614155b1561351e576134c07f26e86910d8e361c9815e05022935a3ded7d3d3f6c901448de70bedd0237431eb60001b61269c565b6134ec7f70181a645e7eb39e7d7cdba2b11414e40b00d29e2f94142ad9185f9fd4433bf360001b61269c565b6040517f37e8456b00000000000000000000000000000000000000000000000000000000815260040160405180910390fd5b61354a7f5d285cbc8c9f4390c581e0c80f2d136d35e17b182f6534aa190b47221e8f9c0960001b61269c565b50505050565b80600560008573ffffffffffffffffffffffffffffffffffffffff1673ffffffffffffffffffffffffffffffffffffffff16815260200190815260200160002060008473ffffffffffffffffffffffffffffffffffffffff1673ffffffffffffffffffffffffffffffffffffffff16815260200190815260200160002060006101000a81548160ff0219169083151502179055508173ffffffffffffffffffffffffffffffffffffffff168373ffffffffffffffffffffffffffffffffffffffff167f17307eab39ab6107e8899845ad3d59bd9653f200f220920489ca2b5937696c31836040516136419190614195565b60405180910390a3505050565b6136598484846129d2565b61366584848484613a41565b6136a4576040517f08c379a000000000000000000000000000000000000000000000000000000000815260040161369b90615034565b60405180910390fd5b50505050565b60006136d87ffb0f2c7c13c379f02f395dadfb5442f3153bfc665ad4e693f366cce7b118065660001b61269c565b6137047faae53ca1781639af042f67a60dbc15512a817c702ef820bcfc9bc29526d9b83760001b61269c565b6137307fd38dee2c5fef587ce7ff6dfcd098f136da632ec3049dd628c2480bc5be25d54c60001b61269c565b7f8b73c3c69bb8fe3d512ecc4cf759cc79239f7b179b0ffacaa9a75d522b39400f6137596107a7565b805190602001207fc89efdaa54c0f20c7adf612882df0950f5a951637e0307cdcb4c672f298b8bc64630604051602001613797959493929190615098565b60405160208183030381529060405280519060200120905090565b60007f80ac58cd000000000000000000000000000000000000000000000000000000007bffffffffffffffffffffffffffffffffffffffffffffffffffffffff1916827bffffffffffffffffffffffffffffffffffffffffffffffffffffffff1916148061387d57507f5b5e139f000000000000000000000000000000000000000000000000000000007bffffffffffffffffffffffffffffffffffffffffffffffffffffffff1916827bffffffffffffffffffffffffffffffffffffffffffffffffffffffff1916145b8061388d575061388c82613bc9565b5b9050919050565b6138c07f33f25d48162d605101028650fda2da6bc429a8a1a68e21dec6719d833708b8bc60001b6120a6565b6138ec7ff9bc7eef8fe36f32c141672d4c702a5258d833d49ebb27bdb171a58211b4f7b960001b6120a6565b6139187f7aa69c613dd739742bc2be78ab38806773daeb5b3239f68d4ec200f1f5de863360001b6120a6565b613923838383613c33565b61394f7fd26ec78f6b1f2e73d3e29784af73430388f5756c1804bf8e81e6b40018625e9960001b6120a6565b61397b7ff66cc962c4b3409fafbdbaae8e9ab24df5d64eb0572990442332c0942a0338d860001b6120a6565b7f000000000000000000000000000000000000000000000000000000000000000073ffffffffffffffffffffffffffffffffffffffff166386e2947b600b54600c548487876040518663ffffffff1660e01b81526004016139e09594939291906150cd565b600060405180830381600087803b1580156139fa57600080fd5b505af1158015613a0e573d6000803e3d6000fd5b50505050505050565b838360009190613a289291906140b3565b50818160019190613a3a9291906140b3565b5050505050565b6000613a628473ffffffffffffffffffffffffffffffffffffffff16613d47565b15613bbc578373ffffffffffffffffffffffffffffffffffffffff1663150b7a02613a8b612833565b8786866040518563ffffffff1660e01b8152600401613aad9493929190615106565b6020604051808303816000875af1925050508015613ae957506040513d601f19601f82011682018060405250810190613ae69190615142565b60015b613b6c573d8060008114613b19576040519150601f19603f3d011682016040523d82523d6000602084013e613b1e565b606091505b50600081511415613b64576040517f08c379a0000000000000000000000000000000000000000000000000000000008152600401613b5b90615034565b60405180910390fd5b805181602001fd5b63150b7a0260e01b7bffffffffffffffffffffffffffffffffffffffffffffffffffffffff1916817bffffffffffffffffffffffffffffffffffffffffffffffffffffffff191614915050613bc1565b600190505b949350505050565b60007f01ffc9a7000000000000000000000000000000000000000000000000000000007bffffffffffffffffffffffffffffffffffffffffffffffffffffffff1916827bffffffffffffffffffffffffffffffffffffffffffffffffffffffff1916149050919050565b613c3e838383613d6a565b600073ffffffffffffffffffffffffffffffffffffffff168373ffffffffffffffffffffffffffffffffffffffff161415613c8157613c7c81613d6f565b613cc0565b8173ffffffffffffffffffffffffffffffffffffffff168373ffffffffffffffffffffffffffffffffffffffff1614613cbf57613cbe8382613db8565b5b5b600073ffffffffffffffffffffffffffffffffffffffff168273ffffffffffffffffffffffffffffffffffffffff161415613d0357613cfe81613f25565b613d42565b8273ffffffffffffffffffffffffffffffffffffffff168273ffffffffffffffffffffffffffffffffffffffff1614613d4157613d408282613ff6565b5b5b505050565b6000808273ffffffffffffffffffffffffffffffffffffffff163b119050919050565b505050565b6008805490506009600083815260200190815260200160002081905550600881908060018154018082558091505060019003906000526020600020016000909190919091505550565b60006001613dc584611932565b613dcf9190614e9e565b9050600060076000848152602001908152602001600020549050818114613eb4576000600660008673ffffffffffffffffffffffffffffffffffffffff1673ffffffffffffffffffffffffffffffffffffffff168152602001908152602001600020600084815260200190815260200160002054905080600660008773ffffffffffffffffffffffffffffffffffffffff1673ffffffffffffffffffffffffffffffffffffffff168152602001908152602001600020600084815260200190815260200160002081905550816007600083815260200190815260200160002081905550505b6007600084815260200190815260200160002060009055600660008573ffffffffffffffffffffffffffffffffffffffff1673ffffffffffffffffffffffffffffffffffffffff16815260200190815260200160002060008381526020019081526020016000206000905550505050565b60006001600880549050613f399190614e9e565b9050600060096000848152602001908152602001600020549050600060088381548110613f6957613f68614a6f565b5b906000526020600020015490508060088381548110613f8b57613f8a614a6f565b5b906000526020600020018190555081600960008381526020019081526020016000208190555060096000858152602001908152602001600020600090556008805480613fda57613fd9615169565b5b6001900381819060005260206000200160009055905550505050565b600061400183611932565b905081600660008573ffffffffffffffffffffffffffffffffffffffff1673ffffffffffffffffffffffffffffffffffffffff168152602001908152602001600020600083815260200190815260200160002081905550806007600084815260200190815260200160002081905550505050565b6040518060400160405280600073ffffffffffffffffffffffffffffffffffffffff16815260200160006bffffffffffffffffffffffff1681525090565b8280546140bf9061474d565b90600052602060002090601f0160209004810192826140e15760008555614128565b82601f106140fa57803560ff1916838001178555614128565b82800160010185558215614128579182015b8281111561412757823582559160200191906001019061410c565b5b5090506141359190614139565b5090565b5b8082111561415257600081600090555060010161413a565b5090565b63ffffffff60e01b8116811461416b57600080fd5b50565b60006020828403121561418057600080fd5b813561418b81614156565b8091505092915050565b6000602082019050821515825292915050565b60005b838110156141c65780820151818401526020810190506141ab565b838111156141d5576000848401525b50505050565b600081518084526141f38160208601602086016141a8565b6020601f19601f83011685010191505092915050565b60208152600061421c60208301846141db565b905092915050565b60006020828403121561423657600080fd5b8135905092915050565b600060208201905060018060a01b038316825292915050565b60018060a01b038116811461426d57600080fd5b50565b6000806040838503121561428357600080fd5b823561428e81614259565b80925050602083013590509250929050565b600060208201905082825292915050565b6000806000606084860312156142c657600080fd5b83356142d181614259565b8093505060208401356142e381614259565b80925050604084013590509250925092565b6000806040838503121561430857600080fd5b82359150602083013590509250929050565b600060408201905060018060a01b03841682528260208301529392505050565b60006040820190508382528260208301529392505050565b60008083601f84011261436457600080fd5b8235905067ffffffffffffffff81111561437d57600080fd5b60208301915083602082850101111561439557600080fd5b9250929050565b600080600080600080608087890312156143b557600080fd5b8635955060208701359450604087013567ffffffffffffffff808211156143db57600080fd5b6143e78a838b01614352565b925080965050819450606089013591508082111561440457600080fd5b5061441189828a01614352565b915080935050809150509295509295509295565b60006020828403121561443757600080fd5b813561444281614259565b8091505092915050565b60006080828403121561445e57600080fd5b81905092915050565b600080600060c0848603121561447c57600080fd5b833561448781614259565b809350506020840135915061449f856040860161444c565b90509250925092565b60008135905080151581146144bc57600080fd5b919050565b60008060008060e085870312156144d757600080fd5b84356144e281614259565b8094505060208501356144f481614259565b80935050614504604086016144a8565b9150614513866060870161444c565b905092959194509250565b6000806040838503121561453157600080fd5b823561453c81614259565b8092505061454c602084016144a8565b90509250929050565b60006020828403121561456757600080fd5b8135905092915050565b634e487b7160e01b600052604160045260246000fd5b60006040519050601f19601f830116810181811067ffffffffffffffff821117156145b5576145b4614571565b5b8060405250919050565b600067ffffffffffffffff8211156145da576145d9614571565b5b6020601f19601f840116019050919050565b6000806000806080858703121561460257600080fd5b843561460d81614259565b80945050602085013561461f81614259565b8093505060408501359150606085013567ffffffffffffffff81111561464457600080fd5b808601905086601f82011261465857600080fd5b803561466b614666826145bf565b614587565b81815288602083850101111561468057600080fd5b8160208401602083013760006020838301015280935050505092959194509250565b600060408201905060018060a01b0383511682526bffffffffffffffffffffffff602084015116602083015292915050565b60008060a083850312156146e757600080fd5b823591506146f8846020850161444c565b90509250929050565b6000806040838503121561471457600080fd5b823561471f81614259565b80925050602083013561473181614259565b809150509250929050565b600060208201905082825292915050565b60008160011c9050600182168061476557607f821691505b6020821081141561478657634e487b7160e01b600052602260045260246000fd5b50919050565b60208152602c60208201527f4552433732313a20617070726f76656420717565727920666f72206e6f6e657860408201527f697374656e7420746f6b656e000000000000000000000000000000000000000060608201526000608082019050919050565b60208152602160208201527f4552433732313a20617070726f76616c20746f2063757272656e74206f776e6560408201527f720000000000000000000000000000000000000000000000000000000000000060608201526000608082019050919050565b60208152603860208201527f4552433732313a20617070726f76652063616c6c6572206973206e6f74206f7760408201527f6e6572206e6f7220617070726f76656420666f7220616c6c000000000000000060608201526000608082019050919050565b60208152603160208201527f4552433732313a207472616e736665722063616c6c6572206973206e6f74206f60408201527f776e6572206e6f7220617070726f76656400000000000000000000000000000060608201526000608082019050919050565b60006020828403121561492e57600080fd5b815161493981614259565b8091505092915050565b634e487b7160e01b600052601160045260246000fd5b600081600019048311821515161561497457614973614943565b5b828202905092915050565b60008261499c57634e487b7160e01b600052601260045260246000fd5b828204905092915050565b60208152602b60208201527f455243373231456e756d657261626c653a206f776e657220696e646578206f7560408201527f74206f6620626f756e647300000000000000000000000000000000000000000060608201526000608082019050919050565b60208152602c60208201527f455243373231456e756d657261626c653a20676c6f62616c20696e646578206f60408201527f7574206f6620626f756e6473000000000000000000000000000000000000000060608201526000608082019050919050565b634e487b7160e01b600052603260045260246000fd5b60208152603260208201527f4552433732313a206d696e742074696d657374616d7020717565727920666f7260408201527f206e6f6e6578697374656e7420746f6b656e000000000000000000000000000060608201526000608082019050919050565b60208152602960208201527f4552433732313a206f776e657220717565727920666f72206e6f6e657869737460408201527f656e7420746f6b656e000000000000000000000000000000000000000000000060608201526000608082019050919050565b60208152602a60208201527f4552433732313a2062616c616e636520717565727920666f7220746865207a6560408201527f726f20616464726573730000000000000000000000000000000000000000000060608201526000608082019050919050565b600060a08201905086825260018060a01b03861660208301528460408301528360608301528260808301529695505050505050565b600060c08201905087825260018060a01b03808816602084015280871660408401525084151560608301528360808301528260a0830152979650505050505050565b60208152601960208201527f4552433732313a20617070726f766520746f2063616c6c65720000000000000060408201526000606082019050919050565b60208152602e60208201527f4552433732313a20746f6b656e206461746120717565727920666f72206e6f6e60408201527f6578697374656e7420746f6b656e00000000000000000000000000000000000060608201526000608082019050919050565b600060208284031215614cdc57600080fd5b815167ffffffffffffffff811115614cf357600080fd5b808301905083601f820112614d0757600080fd5b8051614d1a614d15826145bf565b614587565b818152856020838501011115614d2f57600080fd5b614d408260208301602086016141a8565b80935050505092915050565b600060808201905085825284602083015283604083015282606083015295945050505050565b60208152602c60208201527f4552433732313a206f70657261746f7220717565727920666f72206e6f6e657860408201527f697374656e7420746f6b656e000000000000000000000000000000000000000060608201526000608082019050919050565b60208152602960208201527f4552433732313a207472616e73666572206f6620746f6b656e2074686174206960408201527f73206e6f74206f776e000000000000000000000000000000000000000000000060608201526000608082019050919050565b60208152602460208201527f4552433732313a207472616e7366657220746f20746865207a65726f2061646460408201527f726573730000000000000000000000000000000000000000000000000000000060608201526000608082019050919050565b600082821015614eb157614eb0614943565b5b828203905092915050565b60008219821115614ed057614ecf614943565b5b828201905092915050565b818352818160208501375060006020828401015260006020601f19601f840116840101905092915050565b606081526000614f1a606083018789614edb565b8281036020840152614f2d818688614edb565b9150508260408301529695505050505050565b602081526020808201527f4552433732313a206d696e7420746f20746865207a65726f206164647265737360408201526000606082019050919050565b60208152601c60208201527f4552433732313a20746f6b656e20616c7265616479206d696e7465640000000060408201526000606082019050919050565b61190160f01b815282600282015281602282015260006042820190509392505050565b600060208284031215614ff057600080fd5b813560ff8116811461500157600080fd5b8091505092915050565b600060808201905085825260ff8516602083015283604083015282606083015295945050505050565b60208152603260208201527f4552433732313a207472616e7366657220746f206e6f6e20455243373231526560408201527f63656976657220696d706c656d656e746572000000000000000000000000000060608201526000608082019050919050565b600060a08201905086825285602083015284604083015283606083015260018060a01b03831660808301529695505050505050565b600060a08201905086825285602083015284604083015260018060a01b0380851660608401528084166080840152509695505050505050565b600060018060a01b0380871683528086166020840152508360408301526080606083015261513760808301846141db565b905095945050505050565b60006020828403121561515457600080fd5b815161515f81614156565b8091505092915050565b634e487b7160e01b600052603160045260246000fdfea264697066735822122010a1d88ee88fa59f5874d5778a00e3b1ef52b1fd65fe32de64c455f87b10fc6f64736f6c634300080a0033",
  "linkReferences": {},
  "deployedLinkReferences": {}
}