{
  "_format": "hh-sol-artifact-1",
  "contractName": "FollowNFT",
  "sourceName": "contracts/core/FollowNFT.sol",
  "abi": [
    {
      "inputs": [
        {
          "internalType": "address",
          "name": "hub",
          "type": "address"
        }
      ],
      "stateMutability": "nonpayable",
      "type": "constructor"
    },
    {
      "inputs": [],
      "name": "BlockNumberInvalid",
      "type": "error"
    },
    {
      "inputs": [],
      "name": "InitParamsInvalid",
      "type": "error"
    },
    {
      "inputs": [],
      "name": "Initialized",
      "type": "error"
    },
    {
      "inputs": [],
      "name": "NotHub",
      "type": "error"
    },
    {
      "inputs": [],
      "name": "NotOwnerOrApproved",
      "type": "error"
    },
    {
      "inputs": [],
      "name": "SignatureExpired",
      "type": "error"
    },
    {
      "inputs": [],
      "name": "SignatureInvalid",
      "type": "error"
    },
    {
      "inputs": [],
      "name": "TokenDoesNotExist",
      "type": "error"
    },
    {
      "inputs": [],
      "name": "ZeroSpender",
      "type": "error"
    },
    {
      "anonymous": false,
      "inputs": [
        {
          "indexed": true,
          "internalType": "address",
          "name": "owner",
          "type": "address"
        },
        {
          "indexed": true,
          "internalType": "address",
          "name": "approved",
          "type": "address"
        },
        {
          "indexed": true,
          "internalType": "uint256",
          "name": "tokenId",
          "type": "uint256"
        }
      ],
      "name": "Approval",
      "type": "event"
    },
    {
      "anonymous": false,
      "inputs": [
        {
          "indexed": true,
          "internalType": "address",
          "name": "owner",
          "type": "address"
        },
        {
          "indexed": true,
          "internalType": "address",
          "name": "operator",
          "type": "address"
        },
        {
          "indexed": false,
          "internalType": "bool",
          "name": "approved",
          "type": "bool"
        }
      ],
      "name": "ApprovalForAll",
      "type": "event"
    },
    {
      "anonymous": false,
      "inputs": [
        {
          "indexed": true,
          "internalType": "address",
          "name": "from",
          "type": "address"
        },
        {
          "indexed": true,
          "internalType": "address",
          "name": "to",
          "type": "address"
        },
        {
          "indexed": true,
          "internalType": "uint256",
          "name": "tokenId",
          "type": "uint256"
        }
      ],
      "name": "Transfer",
      "type": "event"
    },
    {
      "inputs": [],
      "name": "HUB",
      "outputs": [
        {
          "internalType": "address",
          "name": "",
          "type": "address"
        }
      ],
      "stateMutability": "view",
      "type": "function"
    },
    {
      "inputs": [
        {
          "internalType": "address",
          "name": "to",
          "type": "address"
        },
        {
          "internalType": "uint256",
          "name": "tokenId",
          "type": "uint256"
        }
      ],
      "name": "approve",
      "outputs": [],
      "stateMutability": "nonpayable",
      "type": "function"
    },
    {
      "inputs": [
        {
          "internalType": "address",
          "name": "owner",
          "type": "address"
        }
      ],
      "name": "balanceOf",
      "outputs": [
        {
          "internalType": "uint256",
          "name": "",
          "type": "uint256"
        }
      ],
      "stateMutability": "view",
      "type": "function"
    },
    {
      "inputs": [
        {
          "internalType": "uint256",
          "name": "tokenId",
          "type": "uint256"
        }
      ],
      "name": "burn",
      "outputs": [],
      "stateMutability": "nonpayable",
      "type": "function"
    },
    {
      "inputs": [
        {
          "internalType": "uint256",
          "name": "tokenId",
          "type": "uint256"
        },
        {
          "components": [
            {
              "internalType": "uint8",
              "name": "v",
              "type": "uint8"
            },
            {
              "internalType": "bytes32",
              "name": "r",
              "type": "bytes32"
            },
            {
              "internalType": "bytes32",
              "name": "s",
              "type": "bytes32"
            },
            {
              "internalType": "uint256",
              "name": "deadline",
              "type": "uint256"
            }
          ],
          "internalType": "struct DataTypes.EIP712Signature",
          "name": "sig",
          "type": "tuple"
        }
      ],
      "name": "burnWithSig",
      "outputs": [],
      "stateMutability": "nonpayable",
      "type": "function"
    },
    {
      "inputs": [
        {
          "internalType": "bytes32",
          "name": "c__0xb5dcc8d5",
          "type": "bytes32"
        }
      ],
      "name": "c_0xb5dcc8d5",
      "outputs": [],
      "stateMutability": "pure",
      "type": "function"
    },
    {
      "inputs": [
        {
          "internalType": "bytes32",
          "name": "c__0xdd7a8cc5",
          "type": "bytes32"
        }
      ],
      "name": "c_0xdd7a8cc5",
      "outputs": [],
      "stateMutability": "pure",
      "type": "function"
    },
    {
      "inputs": [
        {
          "internalType": "address",
          "name": "delegatee",
          "type": "address"
        }
      ],
      "name": "delegate",
      "outputs": [],
      "stateMutability": "nonpayable",
      "type": "function"
    },
    {
      "inputs": [
        {
          "internalType": "address",
          "name": "delegator",
          "type": "address"
        },
        {
          "internalType": "address",
          "name": "delegatee",
          "type": "address"
        },
        {
          "components": [
            {
              "internalType": "uint8",
              "name": "v",
              "type": "uint8"
            },
            {
              "internalType": "bytes32",
              "name": "r",
              "type": "bytes32"
            },
            {
              "internalType": "bytes32",
              "name": "s",
              "type": "bytes32"
            },
            {
              "internalType": "uint256",
              "name": "deadline",
              "type": "uint256"
            }
          ],
          "internalType": "struct DataTypes.EIP712Signature",
          "name": "sig",
          "type": "tuple"
        }
      ],
      "name": "delegateBySig",
      "outputs": [],
      "stateMutability": "nonpayable",
      "type": "function"
    },
    {
      "inputs": [
        {
          "internalType": "uint256",
          "name": "tokenId",
          "type": "uint256"
        }
      ],
      "name": "exists",
      "outputs": [
        {
          "internalType": "bool",
          "name": "",
          "type": "bool"
        }
      ],
      "stateMutability": "view",
      "type": "function"
    },
    {
      "inputs": [
        {
          "internalType": "uint256",
          "name": "tokenId",
          "type": "uint256"
        }
      ],
      "name": "getApproved",
      "outputs": [
        {
          "internalType": "address",
          "name": "",
          "type": "address"
        }
      ],
      "stateMutability": "view",
      "type": "function"
    },
    {
      "inputs": [
        {
          "internalType": "uint256",
          "name": "blockNumber",
          "type": "uint256"
        }
      ],
      "name": "getDelegatedSupplyByBlockNumber",
      "outputs": [
        {
          "internalType": "uint256",
          "name": "",
          "type": "uint256"
        }
      ],
      "stateMutability": "view",
      "type": "function"
    },
    {
      "inputs": [],
      "name": "getDomainSeparator",
      "outputs": [
        {
          "internalType": "bytes32",
          "name": "",
          "type": "bytes32"
        }
      ],
      "stateMutability": "view",
      "type": "function"
    },
    {
      "inputs": [
        {
          "internalType": "address",
          "name": "user",
          "type": "address"
        },
        {
          "internalType": "uint256",
          "name": "blockNumber",
          "type": "uint256"
        }
      ],
      "name": "getPowerByBlockNumber",
      "outputs": [
        {
          "internalType": "uint256",
          "name": "",
          "type": "uint256"
        }
      ],
      "stateMutability": "view",
      "type": "function"
    },
    {
      "inputs": [
        {
          "internalType": "uint256",
          "name": "profileId",
          "type": "uint256"
        }
      ],
      "name": "initialize",
      "outputs": [],
      "stateMutability": "nonpayable",
      "type": "function"
    },
    {
      "inputs": [
        {
          "internalType": "address",
          "name": "owner",
          "type": "address"
        },
        {
          "internalType": "address",
          "name": "operator",
          "type": "address"
        }
      ],
      "name": "isApprovedForAll",
      "outputs": [
        {
          "internalType": "bool",
          "name": "",
          "type": "bool"
        }
      ],
      "stateMutability": "view",
      "type": "function"
    },
    {
      "inputs": [
        {
          "internalType": "address",
          "name": "to",
          "type": "address"
        }
      ],
      "name": "mint",
      "outputs": [
        {
          "internalType": "uint256",
          "name": "",
          "type": "uint256"
        }
      ],
      "stateMutability": "nonpayable",
      "type": "function"
    },
    {
      "inputs": [
        {
          "internalType": "uint256",
          "name": "tokenId",
          "type": "uint256"
        }
      ],
      "name": "mintTimestampOf",
      "outputs": [
        {
          "internalType": "uint256",
          "name": "",
          "type": "uint256"
        }
      ],
      "stateMutability": "view",
      "type": "function"
    },
    {
      "inputs": [],
      "name": "name",
      "outputs": [
        {
          "internalType": "string",
          "name": "",
          "type": "string"
        }
      ],
      "stateMutability": "view",
      "type": "function"
    },
    {
      "inputs": [
        {
          "internalType": "uint256",
          "name": "tokenId",
          "type": "uint256"
        }
      ],
      "name": "ownerOf",
      "outputs": [
        {
          "internalType": "address",
          "name": "",
          "type": "address"
        }
      ],
      "stateMutability": "view",
      "type": "function"
    },
    {
      "inputs": [
        {
          "internalType": "address",
          "name": "spender",
          "type": "address"
        },
        {
          "internalType": "uint256",
          "name": "tokenId",
          "type": "uint256"
        },
        {
          "components": [
            {
              "internalType": "uint8",
              "name": "v",
              "type": "uint8"
            },
            {
              "internalType": "bytes32",
              "name": "r",
              "type": "bytes32"
            },
            {
              "internalType": "bytes32",
              "name": "s",
              "type": "bytes32"
            },
            {
              "internalType": "uint256",
              "name": "deadline",
              "type": "uint256"
            }
          ],
          "internalType": "struct DataTypes.EIP712Signature",
          "name": "sig",
          "type": "tuple"
        }
      ],
      "name": "permit",
      "outputs": [],
      "stateMutability": "nonpayable",
      "type": "function"
    },
    {
      "inputs": [
        {
          "internalType": "address",
          "name": "owner",
          "type": "address"
        },
        {
          "internalType": "address",
          "name": "operator",
          "type": "address"
        },
        {
          "internalType": "bool",
          "name": "approved",
          "type": "bool"
        },
        {
          "components": [
            {
              "internalType": "uint8",
              "name": "v",
              "type": "uint8"
            },
            {
              "internalType": "bytes32",
              "name": "r",
              "type": "bytes32"
            },
            {
              "internalType": "bytes32",
              "name": "s",
              "type": "bytes32"
            },
            {
              "internalType": "uint256",
              "name": "deadline",
              "type": "uint256"
            }
          ],
          "internalType": "struct DataTypes.EIP712Signature",
          "name": "sig",
          "type": "tuple"
        }
      ],
      "name": "permitForAll",
      "outputs": [],
      "stateMutability": "nonpayable",
      "type": "function"
    },
    {
      "inputs": [
        {
          "internalType": "address",
          "name": "from",
          "type": "address"
        },
        {
          "internalType": "address",
          "name": "to",
          "type": "address"
        },
        {
          "internalType": "uint256",
          "name": "tokenId",
          "type": "uint256"
        }
      ],
      "name": "safeTransferFrom",
      "outputs": [],
      "stateMutability": "nonpayable",
      "type": "function"
    },
    {
      "inputs": [
        {
          "internalType": "address",
          "name": "from",
          "type": "address"
        },
        {
          "internalType": "address",
          "name": "to",
          "type": "address"
        },
        {
          "internalType": "uint256",
          "name": "tokenId",
          "type": "uint256"
        },
        {
          "internalType": "bytes",
          "name": "_data",
          "type": "bytes"
        }
      ],
      "name": "safeTransferFrom",
      "outputs": [],
      "stateMutability": "nonpayable",
      "type": "function"
    },
    {
      "inputs": [
        {
          "internalType": "address",
          "name": "operator",
          "type": "address"
        },
        {
          "internalType": "bool",
          "name": "approved",
          "type": "bool"
        }
      ],
      "name": "setApprovalForAll",
      "outputs": [],
      "stateMutability": "nonpayable",
      "type": "function"
    },
    {
      "inputs": [
        {
          "internalType": "address",
          "name": "",
          "type": "address"
        }
      ],
      "name": "sigNonces",
      "outputs": [
        {
          "internalType": "uint256",
          "name": "",
          "type": "uint256"
        }
      ],
      "stateMutability": "view",
      "type": "function"
    },
    {
      "inputs": [
        {
          "internalType": "bytes4",
          "name": "interfaceId",
          "type": "bytes4"
        }
      ],
      "name": "supportsInterface",
      "outputs": [
        {
          "internalType": "bool",
          "name": "",
          "type": "bool"
        }
      ],
      "stateMutability": "view",
      "type": "function"
    },
    {
      "inputs": [],
      "name": "symbol",
      "outputs": [
        {
          "internalType": "string",
          "name": "",
          "type": "string"
        }
      ],
      "stateMutability": "view",
      "type": "function"
    },
    {
      "inputs": [
        {
          "internalType": "uint256",
          "name": "index",
          "type": "uint256"
        }
      ],
      "name": "tokenByIndex",
      "outputs": [
        {
          "internalType": "uint256",
          "name": "",
          "type": "uint256"
        }
      ],
      "stateMutability": "view",
      "type": "function"
    },
    {
      "inputs": [
        {
          "internalType": "uint256",
          "name": "tokenId",
          "type": "uint256"
        }
      ],
      "name": "tokenDataOf",
      "outputs": [
        {
          "components": [
            {
              "internalType": "address",
              "name": "owner",
              "type": "address"
            },
            {
              "internalType": "uint96",
              "name": "mintTimestamp",
              "type": "uint96"
            }
          ],
          "internalType": "struct IERC721Time.TokenData",
          "name": "",
          "type": "tuple"
        }
      ],
      "stateMutability": "view",
      "type": "function"
    },
    {
      "inputs": [
        {
          "internalType": "address",
          "name": "owner",
          "type": "address"
        },
        {
          "internalType": "uint256",
          "name": "index",
          "type": "uint256"
        }
      ],
      "name": "tokenOfOwnerByIndex",
      "outputs": [
        {
          "internalType": "uint256",
          "name": "",
          "type": "uint256"
        }
      ],
      "stateMutability": "view",
      "type": "function"
    },
    {
      "inputs": [
        {
          "internalType": "uint256",
          "name": "tokenId",
          "type": "uint256"
        }
      ],
      "name": "tokenURI",
      "outputs": [
        {
          "internalType": "string",
          "name": "",
          "type": "string"
        }
      ],
      "stateMutability": "view",
      "type": "function"
    },
    {
      "inputs": [],
      "name": "totalSupply",
      "outputs": [
        {
          "internalType": "uint256",
          "name": "",
          "type": "uint256"
        }
      ],
      "stateMutability": "view",
      "type": "function"
    },
    {
      "inputs": [
        {
          "internalType": "address",
          "name": "from",
          "type": "address"
        },
        {
          "internalType": "address",
          "name": "to",
          "type": "address"
        },
        {
          "internalType": "uint256",
          "name": "tokenId",
          "type": "uint256"
        }
      ],
      "name": "transferFrom",
      "outputs": [],
      "stateMutability": "nonpayable",
      "type": "function"
    }
  ],
  "bytecode": "0x60a06040523480156200001157600080fd5b50604051620068ca380380620068ca8339818101604052810190620000379190620002cc565b6200006b7f31076621665d250d4aab35b9a929767614843090c2db2b200e969ac09c45cfb860001b620002c960201b60201c565b6200009f7f3fb5bd95b7842ab6f24390d3951fc45d5586cc15835b47d828f2e35342fdd02860001b620002c960201b60201c565b620000d37fee37a1e9b4d8aa3544829eda6d878c7343dbf863ecec790b7d6f40c230f35db160001b620002c960201b60201c565b600073ffffffffffffffffffffffffffffffffffffffff168173ffffffffffffffffffffffffffffffffffffffff1614156200016f576200013d7f29a10813d5d8216460fdd9c666f9037dee1d80feaf1d8e8b43df36688588af8f60001b620002c960201b60201c565b6040517f48be0eb300000000000000000000000000000000000000000000000000000000815260040160405180910390fd5b620001a37f60dab6c25f4623779e20f09148c29f084194510ce7aa15c608d508ec2276d47260001b620002c960201b60201c565b620001d77f7d7e7bb37512535d1809d398c1158a3e0406527344e5c900779073b5e9e4f86760001b620002c960201b60201c565b6200020b7f914f6c1164f45f367a313f6d0724bbc0b7f8b3642f725a9b9febe9cc370436c860001b620002c960201b60201c565b8073ffffffffffffffffffffffffffffffffffffffff1660808173ffffffffffffffffffffffffffffffffffffffff1681525050620002737fde517930edc6cda0e216cc3a8246dfb19bad4e380e3d8892867cadef3fb279bd60001b620002c960201b60201c565b620002a77f5fd01ba4c8ab5ece9806643d90768a06d0858f54b43e0abcfe2f82ff0175cac260001b620002c960201b60201c565b6001601260006101000a81548160ff0219169083151502179055505062000300565b50565b600060208284031215620002df57600080fd5b815160018060a01b0381168114620002f657600080fd5b8091505092915050565b60805161658462000346600039600081816107fd015281816113de01528181611e9d015281816120e8015281816123ec0152818161432601526144e301526165846000f3fe608060405234801561001057600080fd5b50600436106102065760003560e01c80637ef67f991161011a578063c0da9bcd116100ad578063e985e9c51161007c578063e985e9c514610643578063ec188be614610673578063ed24911d1461068f578063f990ccd7146106ad578063fe4b84df146106dd57610206565b8063c0da9bcd146105ab578063c87b56dd146105db578063dd69cdb11461060b578063df8d80711461062757610206565b806395d89b41116100e957806395d89b4114610537578063a22cb46514610555578063a4c52b8614610571578063b88d4fde1461058f57610206565b80637ef67f99146104b357806389028a13146104cf5780638fca0d41146104eb57806394602a821461051b57610206565b806342842e0e1161019d57806350ddf35c1161016c57806350ddf35c146103d75780635c19a95c146104075780636352211e146104235780636a6278421461045357806370a082311461048357610206565b806342842e0e1461033f57806342966c681461035b5780634f558e79146103775780634f6ccce7146103a757610206565b806318160ddd116101d957806318160ddd146102a557806323b872dd146102c35780632c994dc8146102df5780632f745c591461030f57610206565b806301ffc9a71461020b57806306fdde031461023b578063081812fc14610259578063095ea7b314610289575b600080fd5b610225600480360381019061022091906155fc565b6106f9565b6040516102329190615623565b60405180910390f35b610243610773565b6040516102509190615697565b60405180910390f35b610273600480360381019061026e91906156b2565b610953565b60405161028091906156ce565b60405180910390f35b6102a3600480360381019061029e91906156fe565b6109d8565b005b6102ad610af0565b6040516102ba919061572e565b60405180910390f35b6102dd60048036038101906102d8919061573f565b610afd565b005b6102f960048036038101906102f491906156fe565b610b5d565b604051610306919061572e565b60405180910390f35b610329600480360381019061032491906156fe565b610eab565b604051610336919061572e565b60405180910390f35b6103596004803603810190610354919061573f565b610f50565b005b610375600480360381019061037091906156b2565b610f70565b005b610391600480360381019061038c91906156b2565b6110f0565b60405161039e9190615623565b60405180910390f35b6103c160048036038101906103bc91906156b2565b611102565b6040516103ce919061572e565b60405180910390f35b6103f160048036038101906103ec91906156b2565b611173565b6040516103fe919061572e565b60405180910390f35b610421600480360381019061041c9190615783565b611210565b005b61043d600480360381019061043891906156b2565b6112a1565b60405161044a91906156ce565b60405180910390f35b61046d60048036038101906104689190615783565b611356565b60405161047a919061572e565b60405180910390f35b61049d60048036038101906104989190615783565b61150b565b6040516104aa919061572e565b60405180910390f35b6104cd60048036038101906104c891906157c5565b6115c3565b005b6104e960048036038101906104e4919061581f565b6118b1565b005b610505600480360381019061050091906156b2565b611b3d565b604051610512919061572e565b60405180910390f35b6105356004803603810190610530919061587c565b611e10565b005b61053f611e13565b60405161054c9190615697565b60405180910390f35b61056f600480360381019061056a9190615898565b61205a565b005b6105796120e6565b60405161058691906156ce565b60405180910390f35b6105a960048036038101906105a4919061594a565b61210a565b005b6105c560048036038101906105c091906156b2565b61216c565b6040516105d29190615a00565b60405180910390f35b6105f560048036038101906105f091906156b2565b612275565b6040516106029190615697565b60405180910390f35b61062560048036038101906106209190615a32565b612492565b005b610641600480360381019061063c9190615a5f565b612665565b005b61065d60048036038101906106589190615aab565b6127d6565b60405161066a9190615623565b60405180910390f35b61068d6004803603810190610688919061587c565b61286a565b005b61069761286d565b6040516106a49190615ae6565b60405180910390f35b6106c760048036038101906106c29190615783565b612900565b6040516106d4919061572e565b60405180910390f35b6106f760048036038101906106f291906156b2565b612918565b005b60007f780e9d63000000000000000000000000000000000000000000000000000000007bffffffffffffffffffffffffffffffffffffffffffffffffffffffff1916827bffffffffffffffffffffffffffffffffffffffffffffffffffffffff1916148061076c575061076b82612ba0565b5b9050919050565b60606107a17f78248295de2b56d9aab1faa32ffd25ea92a10294cb5167f53aacc78f220b780b60001b611e10565b6107cd7ff0063c3e58cf2dc636e7ea96af71d8f17e3c32f21bf9935c1a440d3c381d674e60001b611e10565b6107f97fa4c4db2ef2b7a87d33ded0c82a380655f9102fd93ad5acfa199764967fb70b5a60001b611e10565b60007f000000000000000000000000000000000000000000000000000000000000000073ffffffffffffffffffffffffffffffffffffffff1663ec81d1946010546040518263ffffffff1660e01b8152600401610856919061572e565b600060405180830381865afa158015610873573d6000803e3d6000fd5b505050506040513d6000823e3d601f19601f8201168201806040525081019061089c9190615af7565b90506108ca7fdfef2bff8832c0d404f2100a5680990a4a281a6ef34c05d9f7b4057188e13bce60001b611e10565b6108f67f1cda072d7e3d60e85204eef12ff29960ac6da9fd6f5bcf84f65be20de7c5cf8760001b611e10565b806040518060400160405280600981526020017f2d466f6c6c6f776572000000000000000000000000000000000000000000000081525060405160200161093e929190615b79565b60405160208183030381529060405291505090565b600061095e82612c82565b61099d576040517f08c379a000000000000000000000000000000000000000000000000000000000815260040161099490615bae565b60405180910390fd5b6004600083815260200190815260200160002060009054906101000a900473ffffffffffffffffffffffffffffffffffffffff169050919050565b60006109e3826112a1565b90508073ffffffffffffffffffffffffffffffffffffffff168373ffffffffffffffffffffffffffffffffffffffff161415610a54576040517f08c379a0000000000000000000000000000000000000000000000000000000008152600401610a4b90615c12565b60405180910390fd5b8073ffffffffffffffffffffffffffffffffffffffff16610a73612cf1565b73ffffffffffffffffffffffffffffffffffffffff161480610aa25750610aa181610a9c612cf1565b6127d6565b5b610ae1576040517f08c379a0000000000000000000000000000000000000000000000000000000008152600401610ad890615c76565b60405180910390fd5b610aeb8383612cf9565b505050565b6000600880549050905090565b610b0e610b08612cf1565b82612db2565b610b4d576040517f08c379a0000000000000000000000000000000000000000000000000000000008152600401610b4490615cda565b60405180910390fd5b610b58838383612e90565b505050565b6000610b8b7f30a1bb8b7d686ccced3027e5be7b0859b278af3bb7697c822d599465601f027960001b611e10565b610bb77f5fd2748375e0254539544cf0feb33baf646caae767c72ec4363400ca7b5d4e0660001b611e10565b610be37f104cea0cc44db6be694c3178b5cd0e95e280678d640ae72d0fb7270bc3f1338360001b611e10565b43821115610c4957610c177fa024b593119c439196871174594906bfae318aa0d695bf5bda373ce47453077b60001b611e10565b6040517f2b23a7c000000000000000000000000000000000000000000000000000000000815260040160405180910390fd5b610c757f67d0182994a11c8ec25bea3d3d279666fbd1a4fc4001bf8b18f1a407010ce21f60001b611e10565b610ca17f33a2088a8f140f69df4d846c65516b11b265c1c24bfa259847ca478e2c32076060001b611e10565b610ccd7f11620aa2c633cc9d02204919435eb23dfd45ba8056669b6c0470accba5d8146260001b611e10565b6000600d60008573ffffffffffffffffffffffffffffffffffffffff1673ffffffffffffffffffffffffffffffffffffffff168152602001908152602001600020549050610d3d7f4308025bc0ce97d284e7348d4e94f2579d5763a1eb481cc02696aa2d8357753060001b611e10565b610d697f95e6eaca64df9bc0f8ce2e4aea9d574c5fc73d493c0418fa1b56bd358ae1c20860001b611e10565b6000811415610dd457610d9e7f7662fa68e30ab76084787043c8d59baf1e06e54635ddfe7eb7fb5b2afc5d055760001b611e10565b610dca7fbcdbc5904485c33cf1e94390be770ca21fc971322c96b81429e7236f6782e6c660001b611e10565b6000915050610ea5565b610e007f4c555a4207590d1cb90574a15733bba9ad79ddee19b65555a0dcc93ba2727be060001b611e10565b610e2c7fa9dce45e516091a5ee77723df72f3f0abb9156a2228bfbb28d14e52c6b2adb9960001b611e10565b610e587f641bd6364f191868f1dd6c91cfa1b73aaf2baedc3eac3ff60045aaca53b870d960001b611e10565b610ea1600b60008673ffffffffffffffffffffffffffffffffffffffff1673ffffffffffffffffffffffffffffffffffffffff16815260200190815260200160002084836130ef565b9150505b92915050565b6000610eb68361150b565b8210610ef7576040517f08c379a0000000000000000000000000000000000000000000000000000000008152600401610eee90615d3e565b60405180910390fd5b600660008473ffffffffffffffffffffffffffffffffffffffff1673ffffffffffffffffffffffffffffffffffffffff168152602001908152602001600020600083815260200190815260200160002054905092915050565b610f6b8383836040518060200160405280600081525061210a565b505050565b610f9c7f1e443033c6d02bbaa03bdf4970f561a75af3ed82ad9781c0ab4fd6e74ce75bae60001b61286a565b610fc87f2a42674d77a265060340c7cf0fdc739cff691bcafb35037b7a8f3eccb971352260001b61286a565b610ff47f441c7a71b50b4622ef6002013e492a2d78a773f74fd4b5a256dce13d1f2aa8d960001b61286a565b610ffe3382612db2565b6110605761102e7fad972cc2101e1e3de980e2c152e766b809664195285046f5481dedeac5ca8c9660001b61286a565b6040517fdb1453ce00000000000000000000000000000000000000000000000000000000815260040160405180910390fd5b61108c7fd92f40cf9fee1ce225d8edcfa66dfea14bed6339e5bac50c6ad9f51fdc88bc5a60001b61286a565b6110b87fb036ec274487e608e740a54e912a906f815223559be24c384605589efd3fea7460001b61286a565b6110e47f3bd8b994e9ed7fd1db7311da3911d68534a2196f3c78dc36624cc2cc516162fa60001b61286a565b6110ed816133db565b50565b60006110fb82612c82565b9050919050565b600061110c610af0565b821061114d576040517f08c379a000000000000000000000000000000000000000000000000000000000815260040161114490615da2565b60405180910390fd5b6008828154811061116157611160615e06565b5b90600052602060002001549050919050565b6000806002600084815260200190815260200160002060000160149054906101000a90046bffffffffffffffffffffffff1690506000816bffffffffffffffffffffffff1614156111f9576040517f08c379a00000000000000000000000000000000000000000000000000000000081526004016111f090615e1c565b60405180910390fd5b806bffffffffffffffffffffffff16915050919050565b61123c7f39b64296bdfd5e67e21a5f0fdf3fc23710df3f41ba3115aeac140a8f6079950f60001b611e10565b6112687ff00766958ee9a6f9d4da43e5e931f4df37a07fac8ba07800236951bb3bfcc99760001b611e10565b6112947f8386e2e0ed84d47d5bfdabc5fe64d24c0edeb7eb0b22884aac70d54719afebfc60001b611e10565b61129e3382613512565b50565b6000806002600084815260200190815260200160002060000160009054906101000a900473ffffffffffffffffffffffffffffffffffffffff169050600073ffffffffffffffffffffffffffffffffffffffff168173ffffffffffffffffffffffffffffffffffffffff16141561134d576040517f08c379a000000000000000000000000000000000000000000000000000000000815260040161134490615e80565b60405180910390fd5b80915050919050565b60006113847fef147974d17dd34dd49d5a64d1152d061f5d2ae5b23423010cd73af6ba5b384c60001b611e10565b6113b07f7f6a5c3bc83fffb41ebcb3cc9a2c4999e94d5b63fb59a58221ae9fcbfae33c8060001b611e10565b6113dc7f0f648a2cb194554dccfb280351e919d0dfbb34977e7f45291fec9b1b301ec0c260001b611e10565b7f000000000000000000000000000000000000000000000000000000000000000073ffffffffffffffffffffffffffffffffffffffff163373ffffffffffffffffffffffffffffffffffffffff161461148d5761145b7f8fc7318c80ebf1b84e99421935ab7783d727d3c939710e73e44417f4dd5dfbdb60001b611e10565b6040517f9de9741800000000000000000000000000000000000000000000000000000000815260040160405180910390fd5b6114b97fdf3b205400d5f0a641fd79cc97ebb5bda23ab615837759cbc816276365cecb7f60001b611e10565b6114e57f9bf5fcd12c4d3b60eeac19dee46289ec377f43b342ae9a336c9585d9cdfff13f60001b611e10565b60006011600081546001019190508190559050611502838261379e565b80915050919050565b60008073ffffffffffffffffffffffffffffffffffffffff168273ffffffffffffffffffffffffffffffffffffffff16141561157c576040517f08c379a000000000000000000000000000000000000000000000000000000000815260040161157390615ee4565b60405180910390fd5b600360008373ffffffffffffffffffffffffffffffffffffffff1673ffffffffffffffffffffffffffffffffffffffff168152602001908152602001600020549050919050565b6115ef7f632106f6bd346f0dcae78fc2a89b45f5ad16031c5e7f4700b354d4106fed9dcc60001b61286a565b61161b7fb187107d06550fc166f0a399448d3721d14d9909ac10a91fd245b2f9c17a6bbb60001b61286a565b6116477f324438e96ca519098cca5f2f23428c91f83727123c3e49d29efe17c29f13143860001b61286a565b600073ffffffffffffffffffffffffffffffffffffffff168373ffffffffffffffffffffffffffffffffffffffff1614156116da576116a87f541afe405bb2713655ed5251ec1b504e4b4625912d1537cc2d89f3d4d65b3d6d60001b61286a565b6040517f1fac5b7400000000000000000000000000000000000000000000000000000000815260040160405180910390fd5b6117067fa329fce4e41c74c84cc84078bf7da7b25239bf129149085272e49d1eb504f7ef60001b61286a565b6117327f7dd014c86d9546338077cc48eeb85bce456664ef107af70f04cdd841fd4f17a360001b61286a565b61175e7f241e6a198c1d3e5142697e874f916c54140674e16a518ac82e8aa2cf46c51b2260001b61286a565b6000611769836112a1565b90506117977f14e7b54e4bfefdd1d592e1cf4a6ce45f52092dc2dab8d0b2f08ca9bf471b27af60001b61286a565b6118496118427f49ecf333e5b8c95c40fdafc95c1ad136e8914a8fb55e9dc8bb01eaa83a2df9ad8686600a60008773ffffffffffffffffffffffffffffffffffffffff1673ffffffffffffffffffffffffffffffffffffffff1681526020019081526020016000206000815480929190600101919050558760600135604051602001611827959493929190615f48565b604051602081830303815290604052805190602001206139b4565b8284613afb565b6118757f98ad8a9b6043385eb415e9b66e79c886185640b48e618d7fa8d81ad6869580fa60001b61286a565b6118a17f21f2b1dc39a865ce7c68fc8a4487eaa05cbfb8f711a3e7a47059fb69187c541d60001b61286a565b6118ab8484612cf9565b50505050565b6118dd7ff91d9c296456cdaeb83d1e17509ef0a7b3f1067ff9814b42a87b43d058d4b05060001b61286a565b6119097fef681b18372c2180d1d12d4db13c6ed445b102c0788ebc7d576b3711dcd7d3fe60001b61286a565b6119357f13425a2317a404020d782da2ac995329602e69f4e1ee51b9e25fb3edf6d82ae160001b61286a565b600073ffffffffffffffffffffffffffffffffffffffff168373ffffffffffffffffffffffffffffffffffffffff1614156119c8576119967f40283bb36c06759b2556a1b97ba8b7aed732ca776e7efd3250540f891ac9f72b60001b61286a565b6040517f1fac5b7400000000000000000000000000000000000000000000000000000000815260040160405180910390fd5b6119f47f0816936b820f6da98f9a6242a25507969e91b4064426cb59d161fc94d5f5432060001b61286a565b611a207fc17495168561a8b3d5f09aa0780bbfa618cd0674804048a9d98c43ee3a0a8e2560001b61286a565b611ad4611acd7f47ab88482c90e4bb94b82a947ae78fa91fb25de1469ab491f4c15b9a0a2677ee868686600a60008b73ffffffffffffffffffffffffffffffffffffffff1673ffffffffffffffffffffffffffffffffffffffff1681526020019081526020016000206000815480929190600101919050558760600135604051602001611ab296959493929190615f7d565b604051602081830303815290604052805190602001206139b4565b8583613afb565b611b007fe1809dda1980d1132c0ed0651ea80080884028f8e62fe6c860cffbf5bf06e50260001b61286a565b611b2c7fd871baad26c4abf901e175600966e4ed3a63b79d1433f2b535b272bb90df2f4d60001b61286a565b611b37848484613e5a565b50505050565b6000611b6b7fc1f837724df553a09acf1508cf6ad400fa69ef128775cf612fde3bc4aacbdba960001b611e10565b611b977f315dda764e4bf6733a44be4caf912292af498c402923bf57be6a459a028d69fc60001b611e10565b611bc37f45301edbd1236088585354d6710ba802b1d4ab4cf791801612eff7263061e99360001b611e10565b43821115611c2957611bf77f4e756bd11fd96e752b5fd1de822a3d17f3d53ffce69ca1c14429d7da4d82925260001b611e10565b6040517f2b23a7c000000000000000000000000000000000000000000000000000000000815260040160405180910390fd5b611c557fce297a1fac0bdec31c5041bf30bdd671bc1e5e2dccc5c98c5e3c74fa4b5d423f60001b611e10565b611c817f40e2b810411074d53f2495e3e932bd02f433344210309d687891a87580de06f360001b611e10565b611cad7f36ebac19967792d1d80b6c1d28586173345ccdfb15c2d7fd8f55186c422b91f360001b611e10565b6000600f549050611ce07f258ee0e9f1a548a2e9ea6ab51f892847cf79b522bd5596888a6a65e371ef878b60001b611e10565b611d0c7fc80b90364f28aed888a8325c0f052a28d161600c313221d6182b2eaaf9832ae160001b611e10565b6000811415611d7757611d417f68f34869c7f289bbbc6ce8db7f4fc9a8b1265523ffc8a95c30898e3da777516060001b611e10565b611d6d7f099869cf25b2256e508a97634af2ce147c87725e2ba0d21c26d6f0497de581b660001b611e10565b6000915050611e0b565b611da37fc71bbb85b91fcf77704fb1181e91ad1bb7b9ad5fe5efde8b52c9c2b349f3fd5260001b611e10565b611dcf7f9582f2b9ca2806c2b4dd182cdd90bea0f65eda228cbea8164b7f72fa959af5a760001b611e10565b611dfb7fe3b9b64dc175d35c04e5c174b8febcf50916f6a91a47c36bf0e697314a89ff1560001b611e10565b611e07600e84836130ef565b9150505b919050565b50565b6060611e417fb1177380ef38f050e99149c5c9bcaa325c30edc76a44ae120fe3685a6391e77e60001b611e10565b611e6d7faffc35e69a6c5bd0dcaa9a635098fcdab02495646e1cc4ecce90b98a459a066760001b611e10565b611e997f55bf45e9cf61002e7812a4cfd5185a0c0a423079927a4df110dcf1695b9cea8f60001b611e10565b60007f000000000000000000000000000000000000000000000000000000000000000073ffffffffffffffffffffffffffffffffffffffff1663ec81d1946010546040518263ffffffff1660e01b8152600401611ef6919061572e565b600060405180830381865afa158015611f13573d6000803e3d6000fd5b505050506040513d6000823e3d601f19601f82011682018060405250810190611f3c9190615af7565b9050611f6a7f8f1fe925231237d301ef5dc1d4322784dcbcac661ed4952c2792ad431b3124d860001b611e10565b611f967f9a1c1ebaa999e459e3b05d846e3fa4f928eb9fd28076455af0cc0069a24e59d160001b611e10565b600081611fa290615fbf565b9050611fd07fbb904f3282263a064b494e8f3b314270683d5f63202952b0c11b578bd0b0405d60001b611e10565b611ffc7fe1ad41340ba80a211f41cdfbb56a6a2095f207bcffe8f307b9eb2720c12cf41160001b611e10565b806040518060400160405280600381526020017f2d466c0000000000000000000000000000000000000000000000000000000000815250604051602001612044929190615ff6565b6040516020818303038152906040529250505090565b612062612cf1565b73ffffffffffffffffffffffffffffffffffffffff168273ffffffffffffffffffffffffffffffffffffffff1614156120d0576040517f08c379a00000000000000000000000000000000000000000000000000000000081526004016120c790616027565b60405180910390fd5b6120e26120db612cf1565b8383613e5a565b5050565b7f000000000000000000000000000000000000000000000000000000000000000081565b61211b612115612cf1565b83612db2565b61215a576040517f08c379a000000000000000000000000000000000000000000000000000000000815260040161215190615cda565b60405180910390fd5b61216684848484613f58565b50505050565b6121746155a6565b61217d82612c82565b6121bc576040517f08c379a00000000000000000000000000000000000000000000000000000000081526004016121b390616065565b60405180910390fd5b600260008381526020019081526020016000206040518060400160405290816000820160009054906101000a900473ffffffffffffffffffffffffffffffffffffffff1673ffffffffffffffffffffffffffffffffffffffff1673ffffffffffffffffffffffffffffffffffffffff1681526020016000820160149054906101000a90046bffffffffffffffffffffffff166bffffffffffffffffffffffff166bffffffffffffffffffffffff16815250509050919050565b60606122a37f3efa4a5b24e87cdbb2cba960541bf3c71af40aef938e3ca2b5c92825e171b9f460001b611e10565b6122cf7f54d981e0647dca711655d224dfb9febb70bab0e1fa6c90240c1a97a23ac746fb60001b611e10565b6122fb7f348bf8229d7ba842837778724fc56d8c158b68bb48ee81caf9e0b8c1d804cd5f60001b611e10565b61230482612c82565b612366576123347f1d5b2b5be6b330282d37e51f2d5ee4431c80bda922f0f8a82a8d951971d34d3560001b611e10565b6040517fceea21b600000000000000000000000000000000000000000000000000000000815260040160405180910390fd5b6123927f0e6f596e8eea2925455f400fce48a96e6e5fc13f488d26309459ac774f729b3460001b611e10565b6123be7f15a7f1ac4e6c9c19017b73ff7b37e1f8f07053355cb1dc8e8bf29baf3205b84b60001b611e10565b6123ea7fa2341d43c2b330bf5017e01287b4ea9b354275336861fac7fa5b6bad179c0f3160001b611e10565b7f000000000000000000000000000000000000000000000000000000000000000073ffffffffffffffffffffffffffffffffffffffff1663374c94736010546040518263ffffffff1660e01b8152600401612445919061572e565b600060405180830381865afa158015612462573d6000803e3d6000fd5b505050506040513d6000823e3d601f19601f8201168201806040525081019061248b9190615af7565b9050919050565b6124be7fa52223f83782fafaa3dfd442cf854026aaa7c5d4c568369a80bbf8d49b4474ed60001b61286a565b6124ea7f7b78d8c297bfa0ad51cc2266e7e3585c54bdcdab7e467f27234013fe585b8c1560001b61286a565b6125167f2ab1d7704d4266f2d8bcb1d8234f61fc335f5ed52a97414dd8c34f6b8bb4fbdc60001b61286a565b6000612521836112a1565b905061254f7f608bca24267773e18becdb3b48bf8a00a3a9e2f605c006d3e50e1d80989ab6a560001b61286a565b6125ff6125f87f108ccda6d7331b00561a3eea66a2ae331622356585681c62731e4a01aae2261a85600a60008673ffffffffffffffffffffffffffffffffffffffff1673ffffffffffffffffffffffffffffffffffffffff16815260200190815260200160002060008154809291906001019190505586606001356040516020016125dd94939291906160c9565b604051602081830303815290604052805190602001206139b4565b8284613afb565b61262b7f578e04a864e27e7ca2ab3b9eefbe6dff5df8e593432c8f871ddb50c445bb055860001b61286a565b6126577f257c96be6a897b65909d17df5083c3713e0e709328f5392a90239d0f7d83e39f60001b61286a565b612660836133db565b505050565b6126917f07636b62124ac64fe86ff0cadcf05cf5313113d99bafa8f366e3c7b328b7cb7a60001b611e10565b6126bd7fc72c624b4da8db995ad03095befe6548f4a00e935a208f2d3502fcb0f13ebee260001b611e10565b61276f6127687fb8f190a57772800093f4e2b186099eb4f1df0ed7f5e2791e89a4a07678e0aeff8585600a60008973ffffffffffffffffffffffffffffffffffffffff1673ffffffffffffffffffffffffffffffffffffffff168152602001908152602001600020600081548092919060010191905055866060013560405160200161274d9594939291906160ef565b604051602081830303815290604052805190602001206139b4565b8483613afb565b61279b7f60e29a258eb7c02362911a8981c1a07e0d2e6fd5bf8b158c6fcc83982119380660001b611e10565b6127c77fd9bfc662295944c618e0c3a32e1b1dae9423b161eefdfcfe8d4c41cf58165f7360001b611e10565b6127d18383613512565b505050565b6000600560008473ffffffffffffffffffffffffffffffffffffffff1673ffffffffffffffffffffffffffffffffffffffff16815260200190815260200160002060008373ffffffffffffffffffffffffffffffffffffffff1673ffffffffffffffffffffffffffffffffffffffff16815260200190815260200160002060009054906101000a900460ff16905092915050565b50565b600061289b7f2c9acd25c9540de399328a2375ce3d6c48afefb9cc6b1b151939157c8f88dee360001b61286a565b6128c77f0bfc0a393ce86133ea2330095f6425e51796d27a4d89f3b340171197263ce39a60001b61286a565b6128f37f1ba8bf142f1c509bd10ab6716346d2a55d0c8d7b6ddcc0822f6d5e7bdf4966b260001b61286a565b6128fb613fb4565b905090565b600a6020528060005260406000206000915090505481565b6129447f485dc9c7bc5e14365b57276a6dbf3037149deb147efd6751e9e463fbdd22b5d760001b611e10565b6129707fa304f2a1e225ca3713d34e5ad090297afbcfa7c2cb3abe933fc08d0a650d710160001b611e10565b61299c7fe651fd21686a7b3e05d754f7007aff5c1ebb081771acbfedb897eaaf172f566460001b611e10565b601260009054906101000a900460ff1615612a0f576129dd7fc7433a2704f6ab549f0a0aacc54b031c7a51fc834c16b716863ee1f4f661700260001b611e10565b6040517f5daa87a000000000000000000000000000000000000000000000000000000000815260040160405180910390fd5b612a3b7fb12d5d96259bdaa2c32c0a4fb3127d0804485440f8a6381bd81f810e96b7898f60001b611e10565b612a677f64df72a9527599fc40f9e09e353d65b4c95664c34d17b8a6feee42781453e7ad60001b611e10565b612a937f35a52db7ec2f4dc06a6eafbae67f07abd01b3760bedde07ed346c8030d0d732e60001b611e10565b6001601260006101000a81548160ff021916908315150217905550612ada7ff64f92aa3e118f482e893ea0c680b3af8154b55ce06a237f10e8fcfe31d4491460001b611e10565b612b067fa6ce3e79c9c590bd03a327d0bf075fddcfa4e9eb6ac0e5b9112919c232a0fedb60001b611e10565b80601081905550612b397fa240186637003837c47a1903e889c24af6354cc6c45a1e0ba8ce79aade44417460001b611e10565b612b657f63acc84c8ca38c881fdaa535deab888ca67ecad17f19a044c6bb07013528de1660001b611e10565b807faec15127df11a6b562c87d31bcb8f4cd2f0cf57fb9b663d6334abf41fea94d9542604051612b95919061572e565b60405180910390a250565b60007f80ac58cd000000000000000000000000000000000000000000000000000000007bffffffffffffffffffffffffffffffffffffffffffffffffffffffff1916827bffffffffffffffffffffffffffffffffffffffffffffffffffffffff19161480612c6b57507f5b5e139f000000000000000000000000000000000000000000000000000000007bffffffffffffffffffffffffffffffffffffffffffffffffffffffff1916827bffffffffffffffffffffffffffffffffffffffffffffffffffffffff1916145b80612c7b5750612c7a826140bc565b5b9050919050565b60008073ffffffffffffffffffffffffffffffffffffffff166002600084815260200190815260200160002060000160009054906101000a900473ffffffffffffffffffffffffffffffffffffffff1673ffffffffffffffffffffffffffffffffffffffff1614159050919050565b600033905090565b816004600083815260200190815260200160002060006101000a81548173ffffffffffffffffffffffffffffffffffffffff021916908373ffffffffffffffffffffffffffffffffffffffff160217905550808273ffffffffffffffffffffffffffffffffffffffff16612d6c836112a1565b73ffffffffffffffffffffffffffffffffffffffff167f8c5be1e5ebec7d5bd14f71427d1e84f3dd0314c0f7b2291e5b200ac8c7c3b92560405160405180910390a45050565b6000612dbd82612c82565b612dfc576040517f08c379a0000000000000000000000000000000000000000000000000000000008152600401612df390616128565b60405180910390fd5b6000612e07836112a1565b90508073ffffffffffffffffffffffffffffffffffffffff168473ffffffffffffffffffffffffffffffffffffffff161480612e7657508373ffffffffffffffffffffffffffffffffffffffff16612e5e84610953565b73ffffffffffffffffffffffffffffffffffffffff16145b80612e875750612e8681856127d6565b5b91505092915050565b8273ffffffffffffffffffffffffffffffffffffffff16612eb0826112a1565b73ffffffffffffffffffffffffffffffffffffffff1614612f06576040517f08c379a0000000000000000000000000000000000000000000000000000000008152600401612efd9061618c565b60405180910390fd5b600073ffffffffffffffffffffffffffffffffffffffff168273ffffffffffffffffffffffffffffffffffffffff161415612f76576040517f08c379a0000000000000000000000000000000000000000000000000000000008152600401612f6d906161f0565b60405180910390fd5b612f81838383614126565b612f8c600082612cf9565b6001600360008573ffffffffffffffffffffffffffffffffffffffff1673ffffffffffffffffffffffffffffffffffffffff1681526020019081526020016000206000828254612fdc919061626a565b925050819055506001600360008473ffffffffffffffffffffffffffffffffffffffff1673ffffffffffffffffffffffffffffffffffffffff16815260200190815260200160002060008282546130339190616288565b92505081905550816002600083815260200190815260200160002060000160006101000a81548173ffffffffffffffffffffffffffffffffffffffff021916908373ffffffffffffffffffffffffffffffffffffffff160217905550808273ffffffffffffffffffffffffffffffffffffffff168473ffffffffffffffffffffffffffffffffffffffff167fddf252ad1be2c89b69c2b068fc378daa952ba7f163c4a11628f55a4df523b3ef60405160405180910390a4505050565b600061311d7f9dc812ece907134247d358494ab6efd9eaf83ca82a1bae1467e4cbd1493c7a3660001b611e10565b6131497fa9b808bdba496324ff72e6d6187b793e863c296a5a93bed2d2a282de9de8e75d60001b611e10565b6000806001840390508486600083815260200190815260200160002060000160009054906101000a90046fffffffffffffffffffffffffffffffff166fffffffffffffffffffffffffffffffff16116131e95785600082815260200190815260200160002060000160109054906101000a90046fffffffffffffffffffffffffffffffff166fffffffffffffffffffffffffffffffff16925050506133d4565b8486600084815260200190815260200160002060000160009054906101000a90046fffffffffffffffffffffffffffffffff166fffffffffffffffffffffffffffffffff16111561323f576000925050506133d4565b5b8181111561338b57600060028383038161325d5761325c6162a7565b5b048203905060008760008381526020019081526020016000206040518060400160405290816000820160009054906101000a90046fffffffffffffffffffffffffffffffff166fffffffffffffffffffffffffffffffff166fffffffffffffffffffffffffffffffff1681526020016000820160109054906101000a90046fffffffffffffffffffffffffffffffff166fffffffffffffffffffffffffffffffff166fffffffffffffffffffffffffffffffff168152505090508681600001516fffffffffffffffffffffffffffffffff1614156133575780602001516fffffffffffffffffffffffffffffffff169450505050506133d4565b8681600001516fffffffffffffffffffffffffffffffff16101561337d57819350613384565b6001820392505b5050613240565b85600083815260200190815260200160002060000160109054906101000a90046fffffffffffffffffffffffffffffffff166fffffffffffffffffffffffffffffffff16925050505b9392505050565b60006133e6826112a1565b90506133f481600084614126565b6133ff600083612cf9565b6001600360008373ffffffffffffffffffffffffffffffffffffffff1673ffffffffffffffffffffffffffffffffffffffff168152602001908152602001600020600082825461344f919061626a565b9250508190555060026000838152602001908152602001600020600080820160006101000a81549073ffffffffffffffffffffffffffffffffffffffff02191690556000820160146101000a8154906bffffffffffffffffffffffff0219169055505081600073ffffffffffffffffffffffffffffffffffffffff168273ffffffffffffffffffffffffffffffffffffffff167fddf252ad1be2c89b69c2b068fc378daa952ba7f163c4a11628f55a4df523b3ef60405160405180910390a45050565b61353e7f9ebc7bb32b8b34ce78875e70caa0fcc77abdd1b5c1ffa2d54e297ce9ce0cafe260001b611e10565b61356a7f66994ee443afa699bf460d138823e57dd9f1b1ed55a79996f64d4e5968a0a99f60001b611e10565b6135967fad13c0eecc2da6a9510ea0f372a25f5da3f4baf43dfc6be4f3f0e322664e4f3a60001b611e10565b60006135a18361150b565b90506135cf7fff14bcf9d9f3834a7dbf46d364455e6f0da3367a3a5ca844eda0e85eada8795f60001b611e10565b6135fb7fbf4a65030302d0cc08228d8657cf367f8690571893144c410990883a0e75720260001b611e10565b6000600c60008573ffffffffffffffffffffffffffffffffffffffff1673ffffffffffffffffffffffffffffffffffffffff16815260200190815260200160002060009054906101000a900473ffffffffffffffffffffffffffffffffffffffff16905061368b7f037f90b91b4570a91dd6b79438f9baeec92d90c5d204f25773d137e7eb98423c60001b611e10565b6136b77f37e1dda6669830ffc68ec959ec785f42a7ee43f3813ebc52a22b857c5ae0b6f860001b611e10565b82600c60008673ffffffffffffffffffffffffffffffffffffffff1673ffffffffffffffffffffffffffffffffffffffff16815260200190815260200160002060006101000a81548173ffffffffffffffffffffffffffffffffffffffff021916908373ffffffffffffffffffffffffffffffffffffffff1602179055506137617f1e5c9f036d8b152651f914916043c8bf57a04e9f83d5cdcc3789473cf88d3cec60001b611e10565b61378d7f3f70296bed837914e1d897e23b9a6d7bd1987bc6b91d47a4d3f1192bf355e48860001b611e10565b613798818484614731565b50505050565b600073ffffffffffffffffffffffffffffffffffffffff168273ffffffffffffffffffffffffffffffffffffffff16141561380e576040517f08c379a0000000000000000000000000000000000000000000000000000000008152600401613805906162bd565b60405180910390fd5b61381781612c82565b15613857576040517f08c379a000000000000000000000000000000000000000000000000000000000815260040161384e906162fa565b60405180910390fd5b61386360008383614126565b6001600360008473ffffffffffffffffffffffffffffffffffffffff1673ffffffffffffffffffffffffffffffffffffffff16815260200190815260200160002060008282546138b39190616288565b92505081905550816002600083815260200190815260200160002060000160006101000a81548173ffffffffffffffffffffffffffffffffffffffff021916908373ffffffffffffffffffffffffffffffffffffffff160217905550426002600083815260200190815260200160002060000160146101000a8154816bffffffffffffffffffffffff02191690836bffffffffffffffffffffffff160217905550808273ffffffffffffffffffffffffffffffffffffffff16600073ffffffffffffffffffffffffffffffffffffffff167fddf252ad1be2c89b69c2b068fc378daa952ba7f163c4a11628f55a4df523b3ef60405160405180910390a45050565b60006139e27fd89baf4740064c2ea281d128390a8e26b2bb8d9c1f7e5098f59e8c3a4b67141f60001b61286a565b613a0e7fd69731a1d1da4965af9d9c90aa9061df1077ee581b3c07ba1f5428cbf6b1767b60001b61286a565b613a3a7f766dec958317820722c21547e7581524be869e361a488a46d9c218a5684f531060001b61286a565b6000613a687f0becec9f241d9d8f525066871448e608b11861523cfd503678499c2a225c609c60001b61286a565b613a70613fb4565b83604051602001613a82929190616338565b604051602081830303815290604052805190602001209050613ac67f243480fa977ae50fdc4dd48978f3282c2ccfa3d0d894d5a741721bb6c3282ea960001b61286a565b613af27ffb392bb1bf46ce708778983447592b6f120afec52dbe13d5b3c3ce5f86f70fd160001b61286a565b80915050919050565b613b277f37fd276641baafc08e65809714161d731c6951eac760d8053aa40bfe4cdfde8560001b61286a565b613b537f98b35617702ea5c0ff1bc4207dd11c6250b65c76cbc2849af7b891bd1c6af6b560001b61286a565b613b7f7f48f26d1a0b4e6092ca616da92583cfca1e9e401780ea32254bbb8139d18d110760001b61286a565b4281606001351015613be957613bb77fafc82607c6cd75ea9c6739eab8d4a6dbbb0af4d4f1b80132a2a917ed29efe7be60001b61286a565b6040517f0819bdcd00000000000000000000000000000000000000000000000000000000815260040160405180910390fd5b613c157fde1f8ee4b6a0cafcac9d32d2b0fdf1c0782c5f5ffca7dd02442c3edba16a335260001b61286a565b613c417f37973822d20079658b4df14254ef25c7fe25afa01b22cf8979bbf28b5cd061c560001b61286a565b613c6d7f4bb4c6180b4f8e747fd2262ecfcb1583111d7365fc9e93c0e047f85e2c85cbad60001b61286a565b6000600184836000016020810190613c85919061635b565b8460200135856040013560405160008152602001604052604051613cac9493929190616388565b6020604051602081039080840390855afa158015613cce573d6000803e3d6000fd5b505050602060405103519050613d067fd09b70ba90ef890f32a078f145067ac8a4dbfc699f27f3c263c8f122e4123d7660001b61286a565b613d327f75351b233b3f07f28fbea901f1b8d48f697a9ff7a5db3009ce3e5955274754b560001b61286a565b600073ffffffffffffffffffffffffffffffffffffffff168173ffffffffffffffffffffffffffffffffffffffff161480613d9957508273ffffffffffffffffffffffffffffffffffffffff168173ffffffffffffffffffffffffffffffffffffffff1614155b15613e2857613dca7f26e86910d8e361c9815e05022935a3ded7d3d3f6c901448de70bedd0237431eb60001b61286a565b613df67f70181a645e7eb39e7d7cdba2b11414e40b00d29e2f94142ad9185f9fd4433bf360001b61286a565b6040517f37e8456b00000000000000000000000000000000000000000000000000000000815260040160405180910390fd5b613e547f5d285cbc8c9f4390c581e0c80f2d136d35e17b182f6534aa190b47221e8f9c0960001b61286a565b50505050565b80600560008573ffffffffffffffffffffffffffffffffffffffff1673ffffffffffffffffffffffffffffffffffffffff16815260200190815260200160002060008473ffffffffffffffffffffffffffffffffffffffff1673ffffffffffffffffffffffffffffffffffffffff16815260200190815260200160002060006101000a81548160ff0219169083151502179055508173ffffffffffffffffffffffffffffffffffffffff168373ffffffffffffffffffffffffffffffffffffffff167f17307eab39ab6107e8899845ad3d59bd9653f200f220920489ca2b5937696c3183604051613f4b9190615623565b60405180910390a3505050565b613f63848484612e90565b613f6f84848484614b63565b613fae576040517f08c379a0000000000000000000000000000000000000000000000000000000008152600401613fa5906163b1565b60405180910390fd5b50505050565b6000613fe27ffb0f2c7c13c379f02f395dadfb5442f3153bfc665ad4e693f366cce7b118065660001b61286a565b61400e7faae53ca1781639af042f67a60dbc15512a817c702ef820bcfc9bc29526d9b83760001b61286a565b61403a7fd38dee2c5fef587ce7ff6dfcd098f136da632ec3049dd628c2480bc5be25d54c60001b61286a565b7f8b73c3c69bb8fe3d512ecc4cf759cc79239f7b179b0ffacaa9a75d522b39400f614063610773565b805190602001207fc89efdaa54c0f20c7adf612882df0950f5a951637e0307cdcb4c672f298b8bc646306040516020016140a1959493929190616415565b60405160208183030381529060405280519060200120905090565b60007f01ffc9a7000000000000000000000000000000000000000000000000000000007bffffffffffffffffffffffffffffffffffffffffffffffffffffffff1916827bffffffffffffffffffffffffffffffffffffffffffffffffffffffff1916149050919050565b6141527f85b9539122a15958ee55fafe6841f37b8a8b46444a688ff7022de62e74335fcb60001b611e10565b61417e7f0efe470cae78be514098b4d66c8caf54f51cd4f85ddc957f237a20c5318df88260001b611e10565b6141aa7fc686e27148af60760a91777e84a2f279c8ea4c4c26146a92f17fe71f30f6d18360001b611e10565b6000600c60008573ffffffffffffffffffffffffffffffffffffffff1673ffffffffffffffffffffffffffffffffffffffff16815260200190815260200160002060009054906101000a900473ffffffffffffffffffffffffffffffffffffffff16905061423a7f7bb1c141dfb9b10598b4e6d558b2818a21a83cf5d4e0f95cfcc79d22308e5c0c60001b611e10565b6142667f4cde6566f7e84dc3f4e0abc974e61cd771da75383b6154159ecba9a00dab75fe60001b611e10565b6000600c60008573ffffffffffffffffffffffffffffffffffffffff1673ffffffffffffffffffffffffffffffffffffffff16815260200190815260200160002060009054906101000a900473ffffffffffffffffffffffffffffffffffffffff1690506142f67fcddb36b68d30aace3461ed8f4135b46f3063d2c135b5b823df482b92312d0a4e60001b611e10565b6143227fde2aae162f6a0d2818a73fb4e033cef96ea92d7b5fc58358c1039d5095efa67460001b611e10565b60007f000000000000000000000000000000000000000000000000000000000000000073ffffffffffffffffffffffffffffffffffffffff1663d923d20c6010546040518263ffffffff1660e01b815260040161437f919061572e565b602060405180830381865afa15801561439c573d6000803e3d6000fd5b505050506040513d601f19601f820116820180604052508101906143c0919061644a565b90506143ee7f0f7814628b6fd81c620ca11433d4a369bf1f543a4d75529b038960860915076c60001b611e10565b61441a7f5dc9bb6ed0d46bfd11ef13dbf75c2895ef374fbd27284616b0bfe92fe292a63b60001b611e10565b61442683836001614731565b6144527f250c6e023742b89eab46a8d6571e8f6fa0eab8e7b5f8324b4505c73b3f33430f60001b611e10565b61447e7fc34192e1573d0b2c52d5674863216f97a869d688c040e3eafaa579d9d546020060001b611e10565b614489868686614ceb565b6144b57f1869050930860d32a4dd8724a4860984e9db9d4207ea0c41f55307f6088f2d2a60001b611e10565b6144e17fe6cbc35989dc0de40e42af6c7fdc5ccd27d727a28f01a2e5988f178fc14fa71860001b611e10565b7f000000000000000000000000000000000000000000000000000000000000000073ffffffffffffffffffffffffffffffffffffffff1663bdfdd4bc6010548689896040518563ffffffff1660e01b81526004016145429493929190616471565b600060405180830381600087803b15801561455c57600080fd5b505af1158015614570573d6000803e3d6000fd5b505050506145a07fbb6e4527c4e14e02898e02fd5fd312158a1026157dea23271e48c597d914983360001b611e10565b6145cc7ff22b729397b4a9061c0f9efbcf95ae857321b9809ef6fc6f1a190c0a02e50c2860001b611e10565b600073ffffffffffffffffffffffffffffffffffffffff168173ffffffffffffffffffffffffffffffffffffffff16146146fc5761462c7f1e57939dade6a2863585b689229624fa7a0a22ce0423236844bcf6cf1e10d17860001b611e10565b6146587fded0ebde8f95f678cf7d2d8475f7fdc5e0af105f18901fdb025bd3be2e2c4ae760001b611e10565b6146847f625610649294e6925c15ecca7118d2eba8c3592d6bd74c516b9f5d1de59081e260001b611e10565b8073ffffffffffffffffffffffffffffffffffffffff16633cb22cc46010548888886040518563ffffffff1660e01b81526004016146c594939291906164a3565b600060405180830381600087803b1580156146df57600080fd5b505af11580156146f3573d6000803e3d6000fd5b50505050614729565b6147287f83fe9aeaa8b716975a4ad2174cec917cb3094db32a0e2a2a9020048f3d34090360001b611e10565b5b505050505050565b61475d7f6459891bfec51935b9af082334a83b394f157a504071acbcb77cdf15a4f3d86e60001b611e10565b6147897fe793da2b88be3245f9a99d87b78a93dcdd2b8db0a5393fb0c5c70e089143947360001b611e10565b60008073ffffffffffffffffffffffffffffffffffffffff168473ffffffffffffffffffffffffffffffffffffffff1614905080614905576000600d60008673ffffffffffffffffffffffffffffffffffffffff1673ffffffffffffffffffffffffffffffffffffffff1681526020019081526020016000205490506000600b60008773ffffffffffffffffffffffffffffffffffffffff1673ffffffffffffffffffffffffffffffffffffffff168152602001908152602001600020600060018403815260200190815260200160002060000160109054906101000a90046fffffffffffffffffffffffffffffffff166fffffffffffffffffffffffffffffffff169050600084820390506148a0878285614dff565b806fffffffffffffffffffffffffffffffff168773ffffffffffffffffffffffffffffffffffffffff167fd9a6070174f4ccca76ed4896432e9a090b16e07e8fe27f275f50b33500b98e52426040516148f9919061572e565b60405180910390a35050505b600073ffffffffffffffffffffffffffffffffffffffff168373ffffffffffffffffffffffffffffffffffffffff1614614aef5780156149a7576000600f5490506000600e600060018403815260200190815260200160002060000160109054906101000a90046fffffffffffffffffffffffffffffffff169050600084826fffffffffffffffffffffffffffffffff160190506149a3818461507b565b5050505b6000600d60008573ffffffffffffffffffffffffffffffffffffffff1673ffffffffffffffffffffffffffffffffffffffff1681526020019081526020016000205490506000600b60008673ffffffffffffffffffffffffffffffffffffffff1673ffffffffffffffffffffffffffffffffffffffff168152602001908152602001600020600060018403815260200190815260200160002060000160109054906101000a90046fffffffffffffffffffffffffffffffff169050600084826fffffffffffffffffffffffffffffffff16019050614a86868285614dff565b806fffffffffffffffffffffffffffffffff168673ffffffffffffffffffffffffffffffffffffffff167fd9a6070174f4ccca76ed4896432e9a090b16e07e8fe27f275f50b33500b98e5242604051614adf919061572e565b60405180910390a3505050614b5d565b80614b5c576000600f5490506000600e600060018403815260200190815260200160002060000160109054906101000a90046fffffffffffffffffffffffffffffffff169050600084826fffffffffffffffffffffffffffffffff16039050614b58818461507b565b5050505b5b50505050565b6000614b848473ffffffffffffffffffffffffffffffffffffffff16615278565b15614cde578373ffffffffffffffffffffffffffffffffffffffff1663150b7a02614bad612cf1565b8786866040518563ffffffff1660e01b8152600401614bcf94939291906164d5565b6020604051808303816000875af1925050508015614c0b57506040513d601f19601f82011682018060405250810190614c089190616511565b60015b614c8e573d8060008114614c3b576040519150601f19603f3d011682016040523d82523d6000602084013e614c40565b606091505b50600081511415614c86576040517f08c379a0000000000000000000000000000000000000000000000000000000008152600401614c7d906163b1565b60405180910390fd5b805181602001fd5b63150b7a0260e01b7bffffffffffffffffffffffffffffffffffffffffffffffffffffffff1916817bffffffffffffffffffffffffffffffffffffffffffffffffffffffff191614915050614ce3565b600190505b949350505050565b614cf683838361529b565b600073ffffffffffffffffffffffffffffffffffffffff168373ffffffffffffffffffffffffffffffffffffffff161415614d3957614d34816152a0565b614d78565b8173ffffffffffffffffffffffffffffffffffffffff168373ffffffffffffffffffffffffffffffffffffffff1614614d7757614d7683826152e9565b5b5b600073ffffffffffffffffffffffffffffffffffffffff168273ffffffffffffffffffffffffffffffffffffffff161415614dbb57614db681615456565b614dfa565b8273ffffffffffffffffffffffffffffffffffffffff168273ffffffffffffffffffffffffffffffffffffffff1614614df957614df88282615527565b5b5b505050565b614e2b7ff6243b47a65e4721e04aad83d1b51a07bdaf7e7c26a2e8f417e07e409720ce0960001b611e10565b614e577f2984b393e50f9213617435b173a95fc139c01049de7b99c133cf210c71abcad160001b611e10565b60004390506000600b60008673ffffffffffffffffffffffffffffffffffffffff1673ffffffffffffffffffffffffffffffffffffffff168152602001908152602001600020905060008314158015614f075750816fffffffffffffffffffffffffffffffff1681600060018603815260200190815260200160002060000160009054906101000a90046fffffffffffffffffffffffffffffffff166fffffffffffffffffffffffffffffffff16145b15614f60578381600060018603815260200190815260200160002060000160106101000a8154816fffffffffffffffffffffffffffffffff02191690836fffffffffffffffffffffffffffffffff160217905550615074565b6040518060400160405280836fffffffffffffffffffffffffffffffff168152602001856fffffffffffffffffffffffffffffffff1681525081600085815260200190815260200160002060008201518160000160006101000a8154816fffffffffffffffffffffffffffffffff02191690836fffffffffffffffffffffffffffffffff16021790555060208201518160000160106101000a8154816fffffffffffffffffffffffffffffffff02191690836fffffffffffffffffffffffffffffffff16021790555090505060018301600d60008773ffffffffffffffffffffffffffffffffffffffff1673ffffffffffffffffffffffffffffffffffffffff168152602001908152602001600020819055505b5050505050565b6150a77fff944504b85b2ddaf984a5d81636d646ace723d79ce5fdcee85e58f556ab001f60001b611e10565b6150d37f2eee2230c41a1f2b2244463072b89a631c966efe470e18c654e112e3fb968b0860001b611e10565b6000439050600082141580156151415750806fffffffffffffffffffffffffffffffff16600e600060018503815260200190815260200160002060000160009054906101000a90046fffffffffffffffffffffffffffffffff166fffffffffffffffffffffffffffffffff16145b1561519b5782600e600060018503815260200190815260200160002060000160106101000a8154816fffffffffffffffffffffffffffffffff02191690836fffffffffffffffffffffffffffffffff160217905550615273565b6040518060400160405280826fffffffffffffffffffffffffffffffff168152602001846fffffffffffffffffffffffffffffffff16815250600e600084815260200190815260200160002060008201518160000160006101000a8154816fffffffffffffffffffffffffffffffff02191690836fffffffffffffffffffffffffffffffff16021790555060208201518160000160106101000a8154816fffffffffffffffffffffffffffffffff02191690836fffffffffffffffffffffffffffffffff16021790555090505060018201600f819055505b505050565b6000808273ffffffffffffffffffffffffffffffffffffffff163b119050919050565b505050565b6008805490506009600083815260200190815260200160002081905550600881908060018154018082558091505060019003906000526020600020016000909190919091505550565b600060016152f68461150b565b615300919061626a565b90506000600760008481526020019081526020016000205490508181146153e5576000600660008673ffffffffffffffffffffffffffffffffffffffff1673ffffffffffffffffffffffffffffffffffffffff168152602001908152602001600020600084815260200190815260200160002054905080600660008773ffffffffffffffffffffffffffffffffffffffff1673ffffffffffffffffffffffffffffffffffffffff168152602001908152602001600020600084815260200190815260200160002081905550816007600083815260200190815260200160002081905550505b6007600084815260200190815260200160002060009055600660008573ffffffffffffffffffffffffffffffffffffffff1673ffffffffffffffffffffffffffffffffffffffff16815260200190815260200160002060008381526020019081526020016000206000905550505050565b6000600160088054905061546a919061626a565b905060006009600084815260200190815260200160002054905060006008838154811061549a57615499615e06565b5b9060005260206000200154905080600883815481106154bc576154bb615e06565b5b90600052602060002001819055508160096000838152602001908152602001600020819055506009600085815260200190815260200160002060009055600880548061550b5761550a616538565b5b6001900381819060005260206000200160009055905550505050565b60006155328361150b565b905081600660008573ffffffffffffffffffffffffffffffffffffffff1673ffffffffffffffffffffffffffffffffffffffff168152602001908152602001600020600083815260200190815260200160002081905550806007600084815260200190815260200160002081905550505050565b6040518060400160405280600073ffffffffffffffffffffffffffffffffffffffff16815260200160006bffffffffffffffffffffffff1681525090565b63ffffffff60e01b811681146155f957600080fd5b50565b60006020828403121561560e57600080fd5b8135615619816155e4565b8091505092915050565b6000602082019050821515825292915050565b60005b83811015615654578082015181840152602081019050615639565b83811115615663576000848401525b50505050565b60008151808452615681816020860160208601615636565b6020601f19601f83011685010191505092915050565b6020815260006156aa6020830184615669565b905092915050565b6000602082840312156156c457600080fd5b8135905092915050565b600060208201905060018060a01b038316825292915050565b60018060a01b03811681146156fb57600080fd5b50565b6000806040838503121561571157600080fd5b823561571c816156e7565b80925050602083013590509250929050565b600060208201905082825292915050565b60008060006060848603121561575457600080fd5b833561575f816156e7565b809350506020840135615771816156e7565b80925050604084013590509250925092565b60006020828403121561579557600080fd5b81356157a0816156e7565b8091505092915050565b6000608082840312156157bc57600080fd5b81905092915050565b600080600060c084860312156157da57600080fd5b83356157e5816156e7565b80935050602084013591506157fd85604086016157aa565b90509250925092565b600081359050801515811461581a57600080fd5b919050565b60008060008060e0858703121561583557600080fd5b8435615840816156e7565b809450506020850135615852816156e7565b8093505061586260408601615806565b915061587186606087016157aa565b905092959194509250565b60006020828403121561588e57600080fd5b8135905092915050565b600080604083850312156158ab57600080fd5b82356158b6816156e7565b809250506158c660208401615806565b90509250929050565b634e487b7160e01b600052604160045260246000fd5b60006040519050601f19601f830116810181811067ffffffffffffffff82111715615913576159126158cf565b5b8060405250919050565b600067ffffffffffffffff821115615938576159376158cf565b5b6020601f19601f840116019050919050565b6000806000806080858703121561596057600080fd5b843561596b816156e7565b80945050602085013561597d816156e7565b8093505060408501359150606085013567ffffffffffffffff8111156159a257600080fd5b808601905086601f8201126159b657600080fd5b80356159c96159c48261591d565b6158e5565b8181528860208385010111156159de57600080fd5b8160208401602083013760006020838301015280935050505092959194509250565b600060408201905060018060a01b0383511682526bffffffffffffffffffffffff602084015116602083015292915050565b60008060a08385031215615a4557600080fd5b82359150615a5684602085016157aa565b90509250929050565b600080600060c08486031215615a7457600080fd5b8335615a7f816156e7565b809350506020840135615a91816156e7565b80925050615aa285604086016157aa565b90509250925092565b60008060408385031215615abe57600080fd5b8235615ac9816156e7565b809250506020830135615adb816156e7565b809150509250929050565b600060208201905082825292915050565b600060208284031215615b0957600080fd5b815167ffffffffffffffff811115615b2057600080fd5b808301905083601f820112615b3457600080fd5b8051615b47615b428261591d565b6158e5565b818152856020838501011115615b5c57600080fd5b615b6d826020830160208601615636565b80935050505092915050565b60008351615b8b818460208801615636565b80830190508351615ba0818360208801615636565b808201925050509392505050565b60208152602c60208201527f4552433732313a20617070726f76656420717565727920666f72206e6f6e657860408201527f697374656e7420746f6b656e000000000000000000000000000000000000000060608201526000608082019050919050565b60208152602160208201527f4552433732313a20617070726f76616c20746f2063757272656e74206f776e6560408201527f720000000000000000000000000000000000000000000000000000000000000060608201526000608082019050919050565b60208152603860208201527f4552433732313a20617070726f76652063616c6c6572206973206e6f74206f7760408201527f6e6572206e6f7220617070726f76656420666f7220616c6c000000000000000060608201526000608082019050919050565b60208152603160208201527f4552433732313a207472616e736665722063616c6c6572206973206e6f74206f60408201527f776e6572206e6f7220617070726f76656400000000000000000000000000000060608201526000608082019050919050565b60208152602b60208201527f455243373231456e756d657261626c653a206f776e657220696e646578206f7560408201527f74206f6620626f756e647300000000000000000000000000000000000000000060608201526000608082019050919050565b60208152602c60208201527f455243373231456e756d657261626c653a20676c6f62616c20696e646578206f60408201527f7574206f6620626f756e6473000000000000000000000000000000000000000060608201526000608082019050919050565b634e487b7160e01b600052603260045260246000fd5b60208152603260208201527f4552433732313a206d696e742074696d657374616d7020717565727920666f7260408201527f206e6f6e6578697374656e7420746f6b656e000000000000000000000000000060608201526000608082019050919050565b60208152602960208201527f4552433732313a206f776e657220717565727920666f72206e6f6e657869737460408201527f656e7420746f6b656e000000000000000000000000000000000000000000000060608201526000608082019050919050565b60208152602a60208201527f4552433732313a2062616c616e636520717565727920666f7220746865207a6560408201527f726f20616464726573730000000000000000000000000000000000000000000060608201526000608082019050919050565b600060a08201905086825260018060a01b03861660208301528460408301528360608301528260808301529695505050505050565b600060c08201905087825260018060a01b03808816602084015280871660408401525084151560608301528360808301528260a0830152979650505050505050565b60008151602083015163ffffffff60e01b80821693506004831015615fee5780818460040360031b1b83161693505b505050919050565b63ffffffff60e01b8316815260008251616017816004850160208701615636565b6004818401019150509392505050565b60208152601960208201527f4552433732313a20617070726f766520746f2063616c6c65720000000000000060408201526000606082019050919050565b60208152602e60208201527f4552433732313a20746f6b656e206461746120717565727920666f72206e6f6e60408201527f6578697374656e7420746f6b656e00000000000000000000000000000000000060608201526000608082019050919050565b600060808201905085825284602083015283604083015282606083015295945050505050565b600060a08201905086825260018060a01b0380871660208401528086166040840152508360608301528260808301529695505050505050565b60208152602c60208201527f4552433732313a206f70657261746f7220717565727920666f72206e6f6e657860408201527f697374656e7420746f6b656e000000000000000000000000000000000000000060608201526000608082019050919050565b60208152602960208201527f4552433732313a207472616e73666572206f6620746f6b656e2074686174206960408201527f73206e6f74206f776e000000000000000000000000000000000000000000000060608201526000608082019050919050565b60208152602460208201527f4552433732313a207472616e7366657220746f20746865207a65726f2061646460408201527f726573730000000000000000000000000000000000000000000000000000000060608201526000608082019050919050565b634e487b7160e01b600052601160045260246000fd5b60008282101561627d5761627c616254565b5b828203905092915050565b6000821982111561629c5761629b616254565b5b828201905092915050565b634e487b7160e01b600052601260045260246000fd5b602081526020808201527f4552433732313a206d696e7420746f20746865207a65726f206164647265737360408201526000606082019050919050565b60208152601c60208201527f4552433732313a20746f6b656e20616c7265616479206d696e7465640000000060408201526000606082019050919050565b61190160f01b815282600282015281602282015260006042820190509392505050565b60006020828403121561636d57600080fd5b813560ff8116811461637e57600080fd5b8091505092915050565b600060808201905085825260ff8516602083015283604083015282606083015295945050505050565b60208152603260208201527f4552433732313a207472616e7366657220746f206e6f6e20455243373231526560408201527f63656976657220696d706c656d656e746572000000000000000000000000000060608201526000608082019050919050565b600060a08201905086825285602083015284604083015283606083015260018060a01b03831660808301529695505050505050565b60006020828403121561645c57600080fd5b8151616467816156e7565b8091505092915050565b600060808201905085825284602083015260018060a01b03808516604084015280841660608401525095945050505050565b600060808201905085825260018060a01b03808616602084015280851660408401525082606083015295945050505050565b600060018060a01b038087168352808616602084015250836040830152608060608301526165066080830184615669565b905095945050505050565b60006020828403121561652357600080fd5b815161652e816155e4565b8091505092915050565b634e487b7160e01b600052603160045260246000fdfea26469706673582212203dc8a33c7ba59edd964693ecaf34c877d09e566921f1a75c9f5302b255e48c4164736f6c634300080a0033",
  "linkReferences": {},
  "deployedLinkReferences": {}
}