{
  "_format": "hh-sol-artifact-1",
  "contractName": "LensHub",
  "sourceName": "contracts/core/LensHub.sol",
  "abi": [
    {
      "inputs": [
        {
          "internalType": "address",
          "name": "followNFTImpl",
          "type": "address"
        },
        {
          "internalType": "address",
          "name": "collectNFTImpl",
          "type": "address"
        }
      ],
      "stateMutability": "nonpayable",
      "type": "constructor"
    },
    {
      "inputs": [],
      "name": "CallerNotCollectNFT",
      "type": "error"
    },
    {
      "inputs": [],
      "name": "CallerNotFollowNFT",
      "type": "error"
    },
    {
      "inputs": [],
      "name": "CannotInitImplementation",
      "type": "error"
    },
    {
      "inputs": [],
      "name": "EmergencyAdminCannotUnpause",
      "type": "error"
    },
    {
      "inputs": [],
      "name": "InitParamsInvalid",
      "type": "error"
    },
    {
      "inputs": [],
      "name": "Initialized",
      "type": "error"
    },
    {
      "inputs": [],
      "name": "NotGovernance",
      "type": "error"
    },
    {
      "inputs": [],
      "name": "NotGovernanceOrEmergencyAdmin",
      "type": "error"
    },
    {
      "inputs": [],
      "name": "NotOwnerOrApproved",
      "type": "error"
    },
    {
      "inputs": [],
      "name": "NotProfileOwner",
      "type": "error"
    },
    {
      "inputs": [],
      "name": "NotProfileOwnerOrDispatcher",
      "type": "error"
    },
    {
      "inputs": [],
      "name": "Paused",
      "type": "error"
    },
    {
      "inputs": [],
      "name": "ProfileCreatorNotWhitelisted",
      "type": "error"
    },
    {
      "inputs": [],
      "name": "ProfileImageURILengthInvalid",
      "type": "error"
    },
    {
      "inputs": [],
      "name": "PublicationDoesNotExist",
      "type": "error"
    },
    {
      "inputs": [],
      "name": "PublishingPaused",
      "type": "error"
    },
    {
      "inputs": [],
      "name": "SignatureExpired",
      "type": "error"
    },
    {
      "inputs": [],
      "name": "SignatureInvalid",
      "type": "error"
    },
    {
      "inputs": [],
      "name": "ZeroSpender",
      "type": "error"
    },
    {
      "anonymous": false,
      "inputs": [
        {
          "indexed": true,
          "internalType": "address",
          "name": "owner",
          "type": "address"
        },
        {
          "indexed": true,
          "internalType": "address",
          "name": "approved",
          "type": "address"
        },
        {
          "indexed": true,
          "internalType": "uint256",
          "name": "tokenId",
          "type": "uint256"
        }
      ],
      "name": "Approval",
      "type": "event"
    },
    {
      "anonymous": false,
      "inputs": [
        {
          "indexed": true,
          "internalType": "address",
          "name": "owner",
          "type": "address"
        },
        {
          "indexed": true,
          "internalType": "address",
          "name": "operator",
          "type": "address"
        },
        {
          "indexed": false,
          "internalType": "bool",
          "name": "approved",
          "type": "bool"
        }
      ],
      "name": "ApprovalForAll",
      "type": "event"
    },
    {
      "anonymous": false,
      "inputs": [
        {
          "indexed": true,
          "internalType": "address",
          "name": "from",
          "type": "address"
        },
        {
          "indexed": true,
          "internalType": "address",
          "name": "to",
          "type": "address"
        },
        {
          "indexed": true,
          "internalType": "uint256",
          "name": "tokenId",
          "type": "uint256"
        }
      ],
      "name": "Transfer",
      "type": "event"
    },
    {
      "inputs": [
        {
          "internalType": "address",
          "name": "to",
          "type": "address"
        },
        {
          "internalType": "uint256",
          "name": "tokenId",
          "type": "uint256"
        }
      ],
      "name": "approve",
      "outputs": [],
      "stateMutability": "nonpayable",
      "type": "function"
    },
    {
      "inputs": [
        {
          "internalType": "address",
          "name": "owner",
          "type": "address"
        }
      ],
      "name": "balanceOf",
      "outputs": [
        {
          "internalType": "uint256",
          "name": "",
          "type": "uint256"
        }
      ],
      "stateMutability": "view",
      "type": "function"
    },
    {
      "inputs": [
        {
          "internalType": "uint256",
          "name": "tokenId",
          "type": "uint256"
        }
      ],
      "name": "burn",
      "outputs": [],
      "stateMutability": "nonpayable",
      "type": "function"
    },
    {
      "inputs": [
        {
          "internalType": "uint256",
          "name": "tokenId",
          "type": "uint256"
        },
        {
          "components": [
            {
              "internalType": "uint8",
              "name": "v",
              "type": "uint8"
            },
            {
              "internalType": "bytes32",
              "name": "r",
              "type": "bytes32"
            },
            {
              "internalType": "bytes32",
              "name": "s",
              "type": "bytes32"
            },
            {
              "internalType": "uint256",
              "name": "deadline",
              "type": "uint256"
            }
          ],
          "internalType": "struct DataTypes.EIP712Signature",
          "name": "sig",
          "type": "tuple"
        }
      ],
      "name": "burnWithSig",
      "outputs": [],
      "stateMutability": "nonpayable",
      "type": "function"
    },
    {
      "inputs": [
        {
          "internalType": "bytes32",
          "name": "c__0x45658096",
          "type": "bytes32"
        }
      ],
      "name": "c_0x45658096",
      "outputs": [],
      "stateMutability": "pure",
      "type": "function"
    },
    {
      "inputs": [
        {
          "internalType": "bytes32",
          "name": "c__0x79cd8eb2",
          "type": "bytes32"
        }
      ],
      "name": "c_0x79cd8eb2",
      "outputs": [],
      "stateMutability": "pure",
      "type": "function"
    },
    {
      "inputs": [
        {
          "internalType": "bytes32",
          "name": "c__0x865113dc",
          "type": "bytes32"
        }
      ],
      "name": "c_0x865113dc",
      "outputs": [],
      "stateMutability": "pure",
      "type": "function"
    },
    {
      "inputs": [
        {
          "internalType": "bytes32",
          "name": "c__0xb5dcc8d5",
          "type": "bytes32"
        }
      ],
      "name": "c_0xb5dcc8d5",
      "outputs": [],
      "stateMutability": "pure",
      "type": "function"
    },
    {
      "inputs": [
        {
          "internalType": "uint256",
          "name": "profileId",
          "type": "uint256"
        },
        {
          "internalType": "uint256",
          "name": "pubId",
          "type": "uint256"
        },
        {
          "internalType": "bytes",
          "name": "data",
          "type": "bytes"
        }
      ],
      "name": "collect",
      "outputs": [
        {
          "internalType": "uint256",
          "name": "",
          "type": "uint256"
        }
      ],
      "stateMutability": "nonpayable",
      "type": "function"
    },
    {
      "inputs": [
        {
          "components": [
            {
              "internalType": "address",
              "name": "collector",
              "type": "address"
            },
            {
              "internalType": "uint256",
              "name": "profileId",
              "type": "uint256"
            },
            {
              "internalType": "uint256",
              "name": "pubId",
              "type": "uint256"
            },
            {
              "internalType": "bytes",
              "name": "data",
              "type": "bytes"
            },
            {
              "components": [
                {
                  "internalType": "uint8",
                  "name": "v",
                  "type": "uint8"
                },
                {
                  "internalType": "bytes32",
                  "name": "r",
                  "type": "bytes32"
                },
                {
                  "internalType": "bytes32",
                  "name": "s",
                  "type": "bytes32"
                },
                {
                  "internalType": "uint256",
                  "name": "deadline",
                  "type": "uint256"
                }
              ],
              "internalType": "struct DataTypes.EIP712Signature",
              "name": "sig",
              "type": "tuple"
            }
          ],
          "internalType": "struct DataTypes.CollectWithSigData",
          "name": "vars",
          "type": "tuple"
        }
      ],
      "name": "collectWithSig",
      "outputs": [
        {
          "internalType": "uint256",
          "name": "",
          "type": "uint256"
        }
      ],
      "stateMutability": "nonpayable",
      "type": "function"
    },
    {
      "inputs": [
        {
          "components": [
            {
              "internalType": "uint256",
              "name": "profileId",
              "type": "uint256"
            },
            {
              "internalType": "string",
              "name": "contentURI",
              "type": "string"
            },
            {
              "internalType": "uint256",
              "name": "profileIdPointed",
              "type": "uint256"
            },
            {
              "internalType": "uint256",
              "name": "pubIdPointed",
              "type": "uint256"
            },
            {
              "internalType": "bytes",
              "name": "referenceModuleData",
              "type": "bytes"
            },
            {
              "internalType": "address",
              "name": "collectModule",
              "type": "address"
            },
            {
              "internalType": "bytes",
              "name": "collectModuleInitData",
              "type": "bytes"
            },
            {
              "internalType": "address",
              "name": "referenceModule",
              "type": "address"
            },
            {
              "internalType": "bytes",
              "name": "referenceModuleInitData",
              "type": "bytes"
            }
          ],
          "internalType": "struct DataTypes.CommentData",
          "name": "vars",
          "type": "tuple"
        }
      ],
      "name": "comment",
      "outputs": [
        {
          "internalType": "uint256",
          "name": "",
          "type": "uint256"
        }
      ],
      "stateMutability": "nonpayable",
      "type": "function"
    },
    {
      "inputs": [
        {
          "components": [
            {
              "internalType": "uint256",
              "name": "profileId",
              "type": "uint256"
            },
            {
              "internalType": "string",
              "name": "contentURI",
              "type": "string"
            },
            {
              "internalType": "uint256",
              "name": "profileIdPointed",
              "type": "uint256"
            },
            {
              "internalType": "uint256",
              "name": "pubIdPointed",
              "type": "uint256"
            },
            {
              "internalType": "bytes",
              "name": "referenceModuleData",
              "type": "bytes"
            },
            {
              "internalType": "address",
              "name": "collectModule",
              "type": "address"
            },
            {
              "internalType": "bytes",
              "name": "collectModuleInitData",
              "type": "bytes"
            },
            {
              "internalType": "address",
              "name": "referenceModule",
              "type": "address"
            },
            {
              "internalType": "bytes",
              "name": "referenceModuleInitData",
              "type": "bytes"
            },
            {
              "components": [
                {
                  "internalType": "uint8",
                  "name": "v",
                  "type": "uint8"
                },
                {
                  "internalType": "bytes32",
                  "name": "r",
                  "type": "bytes32"
                },
                {
                  "internalType": "bytes32",
                  "name": "s",
                  "type": "bytes32"
                },
                {
                  "internalType": "uint256",
                  "name": "deadline",
                  "type": "uint256"
                }
              ],
              "internalType": "struct DataTypes.EIP712Signature",
              "name": "sig",
              "type": "tuple"
            }
          ],
          "internalType": "struct DataTypes.CommentWithSigData",
          "name": "vars",
          "type": "tuple"
        }
      ],
      "name": "commentWithSig",
      "outputs": [
        {
          "internalType": "uint256",
          "name": "",
          "type": "uint256"
        }
      ],
      "stateMutability": "nonpayable",
      "type": "function"
    },
    {
      "inputs": [
        {
          "components": [
            {
              "internalType": "address",
              "name": "to",
              "type": "address"
            },
            {
              "internalType": "string",
              "name": "handle",
              "type": "string"
            },
            {
              "internalType": "string",
              "name": "imageURI",
              "type": "string"
            },
            {
              "internalType": "address",
              "name": "followModule",
              "type": "address"
            },
            {
              "internalType": "bytes",
              "name": "followModuleInitData",
              "type": "bytes"
            },
            {
              "internalType": "string",
              "name": "followNFTURI",
              "type": "string"
            }
          ],
          "internalType": "struct DataTypes.CreateProfileData",
          "name": "vars",
          "type": "tuple"
        }
      ],
      "name": "createProfile",
      "outputs": [
        {
          "internalType": "uint256",
          "name": "",
          "type": "uint256"
        }
      ],
      "stateMutability": "nonpayable",
      "type": "function"
    },
    {
      "inputs": [
        {
          "internalType": "address",
          "name": "wallet",
          "type": "address"
        }
      ],
      "name": "defaultProfile",
      "outputs": [
        {
          "internalType": "uint256",
          "name": "",
          "type": "uint256"
        }
      ],
      "stateMutability": "view",
      "type": "function"
    },
    {
      "inputs": [
        {
          "internalType": "uint256",
          "name": "profileId",
          "type": "uint256"
        },
        {
          "internalType": "uint256",
          "name": "pubId",
          "type": "uint256"
        },
        {
          "internalType": "uint256",
          "name": "collectNFTId",
          "type": "uint256"
        },
        {
          "internalType": "address",
          "name": "from",
          "type": "address"
        },
        {
          "internalType": "address",
          "name": "to",
          "type": "address"
        }
      ],
      "name": "emitCollectNFTTransferEvent",
      "outputs": [],
      "stateMutability": "nonpayable",
      "type": "function"
    },
    {
      "inputs": [
        {
          "internalType": "uint256",
          "name": "profileId",
          "type": "uint256"
        },
        {
          "internalType": "uint256",
          "name": "followNFTId",
          "type": "uint256"
        },
        {
          "internalType": "address",
          "name": "from",
          "type": "address"
        },
        {
          "internalType": "address",
          "name": "to",
          "type": "address"
        }
      ],
      "name": "emitFollowNFTTransferEvent",
      "outputs": [],
      "stateMutability": "nonpayable",
      "type": "function"
    },
    {
      "inputs": [
        {
          "internalType": "uint256",
          "name": "tokenId",
          "type": "uint256"
        }
      ],
      "name": "exists",
      "outputs": [
        {
          "internalType": "bool",
          "name": "",
          "type": "bool"
        }
      ],
      "stateMutability": "view",
      "type": "function"
    },
    {
      "inputs": [
        {
          "internalType": "uint256[]",
          "name": "profileIds",
          "type": "uint256[]"
        },
        {
          "internalType": "bytes[]",
          "name": "datas",
          "type": "bytes[]"
        }
      ],
      "name": "follow",
      "outputs": [
        {
          "internalType": "uint256[]",
          "name": "",
          "type": "uint256[]"
        }
      ],
      "stateMutability": "nonpayable",
      "type": "function"
    },
    {
      "inputs": [
        {
          "components": [
            {
              "internalType": "address",
              "name": "follower",
              "type": "address"
            },
            {
              "internalType": "uint256[]",
              "name": "profileIds",
              "type": "uint256[]"
            },
            {
              "internalType": "bytes[]",
              "name": "datas",
              "type": "bytes[]"
            },
            {
              "components": [
                {
                  "internalType": "uint8",
                  "name": "v",
                  "type": "uint8"
                },
                {
                  "internalType": "bytes32",
                  "name": "r",
                  "type": "bytes32"
                },
                {
                  "internalType": "bytes32",
                  "name": "s",
                  "type": "bytes32"
                },
                {
                  "internalType": "uint256",
                  "name": "deadline",
                  "type": "uint256"
                }
              ],
              "internalType": "struct DataTypes.EIP712Signature",
              "name": "sig",
              "type": "tuple"
            }
          ],
          "internalType": "struct DataTypes.FollowWithSigData",
          "name": "vars",
          "type": "tuple"
        }
      ],
      "name": "followWithSig",
      "outputs": [
        {
          "internalType": "uint256[]",
          "name": "",
          "type": "uint256[]"
        }
      ],
      "stateMutability": "nonpayable",
      "type": "function"
    },
    {
      "inputs": [
        {
          "internalType": "uint256",
          "name": "tokenId",
          "type": "uint256"
        }
      ],
      "name": "getApproved",
      "outputs": [
        {
          "internalType": "address",
          "name": "",
          "type": "address"
        }
      ],
      "stateMutability": "view",
      "type": "function"
    },
    {
      "inputs": [
        {
          "internalType": "uint256",
          "name": "profileId",
          "type": "uint256"
        },
        {
          "internalType": "uint256",
          "name": "pubId",
          "type": "uint256"
        }
      ],
      "name": "getCollectModule",
      "outputs": [
        {
          "internalType": "address",
          "name": "",
          "type": "address"
        }
      ],
      "stateMutability": "view",
      "type": "function"
    },
    {
      "inputs": [
        {
          "internalType": "uint256",
          "name": "profileId",
          "type": "uint256"
        },
        {
          "internalType": "uint256",
          "name": "pubId",
          "type": "uint256"
        }
      ],
      "name": "getCollectNFT",
      "outputs": [
        {
          "internalType": "address",
          "name": "",
          "type": "address"
        }
      ],
      "stateMutability": "view",
      "type": "function"
    },
    {
      "inputs": [],
      "name": "getCollectNFTImpl",
      "outputs": [
        {
          "internalType": "address",
          "name": "",
          "type": "address"
        }
      ],
      "stateMutability": "view",
      "type": "function"
    },
    {
      "inputs": [
        {
          "internalType": "uint256",
          "name": "profileId",
          "type": "uint256"
        },
        {
          "internalType": "uint256",
          "name": "pubId",
          "type": "uint256"
        }
      ],
      "name": "getContentURI",
      "outputs": [
        {
          "internalType": "string",
          "name": "",
          "type": "string"
        }
      ],
      "stateMutability": "view",
      "type": "function"
    },
    {
      "inputs": [
        {
          "internalType": "uint256",
          "name": "profileId",
          "type": "uint256"
        }
      ],
      "name": "getDispatcher",
      "outputs": [
        {
          "internalType": "address",
          "name": "",
          "type": "address"
        }
      ],
      "stateMutability": "view",
      "type": "function"
    },
    {
      "inputs": [],
      "name": "getDomainSeparator",
      "outputs": [
        {
          "internalType": "bytes32",
          "name": "",
          "type": "bytes32"
        }
      ],
      "stateMutability": "view",
      "type": "function"
    },
    {
      "inputs": [
        {
          "internalType": "uint256",
          "name": "profileId",
          "type": "uint256"
        }
      ],
      "name": "getFollowModule",
      "outputs": [
        {
          "internalType": "address",
          "name": "",
          "type": "address"
        }
      ],
      "stateMutability": "view",
      "type": "function"
    },
    {
      "inputs": [
        {
          "internalType": "uint256",
          "name": "profileId",
          "type": "uint256"
        }
      ],
      "name": "getFollowNFT",
      "outputs": [
        {
          "internalType": "address",
          "name": "",
          "type": "address"
        }
      ],
      "stateMutability": "view",
      "type": "function"
    },
    {
      "inputs": [],
      "name": "getFollowNFTImpl",
      "outputs": [
        {
          "internalType": "address",
          "name": "",
          "type": "address"
        }
      ],
      "stateMutability": "view",
      "type": "function"
    },
    {
      "inputs": [
        {
          "internalType": "uint256",
          "name": "profileId",
          "type": "uint256"
        }
      ],
      "name": "getFollowNFTURI",
      "outputs": [
        {
          "internalType": "string",
          "name": "",
          "type": "string"
        }
      ],
      "stateMutability": "view",
      "type": "function"
    },
    {
      "inputs": [],
      "name": "getGovernance",
      "outputs": [
        {
          "internalType": "address",
          "name": "",
          "type": "address"
        }
      ],
      "stateMutability": "view",
      "type": "function"
    },
    {
      "inputs": [
        {
          "internalType": "uint256",
          "name": "profileId",
          "type": "uint256"
        }
      ],
      "name": "getHandle",
      "outputs": [
        {
          "internalType": "string",
          "name": "",
          "type": "string"
        }
      ],
      "stateMutability": "view",
      "type": "function"
    },
    {
      "inputs": [
        {
          "internalType": "uint256",
          "name": "profileId",
          "type": "uint256"
        }
      ],
      "name": "getProfile",
      "outputs": [
        {
          "components": [
            {
              "internalType": "uint256",
              "name": "pubCount",
              "type": "uint256"
            },
            {
              "internalType": "address",
              "name": "followModule",
              "type": "address"
            },
            {
              "internalType": "address",
              "name": "followNFT",
              "type": "address"
            },
            {
              "internalType": "string",
              "name": "handle",
              "type": "string"
            },
            {
              "internalType": "string",
              "name": "imageURI",
              "type": "string"
            },
            {
              "internalType": "string",
              "name": "followNFTURI",
              "type": "string"
            }
          ],
          "internalType": "struct DataTypes.ProfileStruct",
          "name": "",
          "type": "tuple"
        }
      ],
      "stateMutability": "view",
      "type": "function"
    },
    {
      "inputs": [
        {
          "internalType": "string",
          "name": "handle",
          "type": "string"
        }
      ],
      "name": "getProfileIdByHandle",
      "outputs": [
        {
          "internalType": "uint256",
          "name": "",
          "type": "uint256"
        }
      ],
      "stateMutability": "view",
      "type": "function"
    },
    {
      "inputs": [
        {
          "internalType": "uint256",
          "name": "profileId",
          "type": "uint256"
        },
        {
          "internalType": "uint256",
          "name": "pubId",
          "type": "uint256"
        }
      ],
      "name": "getPub",
      "outputs": [
        {
          "components": [
            {
              "internalType": "uint256",
              "name": "profileIdPointed",
              "type": "uint256"
            },
            {
              "internalType": "uint256",
              "name": "pubIdPointed",
              "type": "uint256"
            },
            {
              "internalType": "string",
              "name": "contentURI",
              "type": "string"
            },
            {
              "internalType": "address",
              "name": "referenceModule",
              "type": "address"
            },
            {
              "internalType": "address",
              "name": "collectModule",
              "type": "address"
            },
            {
              "internalType": "address",
              "name": "collectNFT",
              "type": "address"
            }
          ],
          "internalType": "struct DataTypes.PublicationStruct",
          "name": "",
          "type": "tuple"
        }
      ],
      "stateMutability": "view",
      "type": "function"
    },
    {
      "inputs": [
        {
          "internalType": "uint256",
          "name": "profileId",
          "type": "uint256"
        }
      ],
      "name": "getPubCount",
      "outputs": [
        {
          "internalType": "uint256",
          "name": "",
          "type": "uint256"
        }
      ],
      "stateMutability": "view",
      "type": "function"
    },
    {
      "inputs": [
        {
          "internalType": "uint256",
          "name": "profileId",
          "type": "uint256"
        },
        {
          "internalType": "uint256",
          "name": "pubId",
          "type": "uint256"
        }
      ],
      "name": "getPubPointer",
      "outputs": [
        {
          "internalType": "uint256",
          "name": "",
          "type": "uint256"
        },
        {
          "internalType": "uint256",
          "name": "",
          "type": "uint256"
        }
      ],
      "stateMutability": "view",
      "type": "function"
    },
    {
      "inputs": [
        {
          "internalType": "uint256",
          "name": "profileId",
          "type": "uint256"
        },
        {
          "internalType": "uint256",
          "name": "pubId",
          "type": "uint256"
        }
      ],
      "name": "getPubType",
      "outputs": [
        {
          "internalType": "enum DataTypes.PubType",
          "name": "",
          "type": "uint8"
        }
      ],
      "stateMutability": "view",
      "type": "function"
    },
    {
      "inputs": [
        {
          "internalType": "uint256",
          "name": "profileId",
          "type": "uint256"
        },
        {
          "internalType": "uint256",
          "name": "pubId",
          "type": "uint256"
        }
      ],
      "name": "getReferenceModule",
      "outputs": [
        {
          "internalType": "address",
          "name": "",
          "type": "address"
        }
      ],
      "stateMutability": "view",
      "type": "function"
    },
    {
      "inputs": [],
      "name": "getState",
      "outputs": [
        {
          "internalType": "enum DataTypes.ProtocolState",
          "name": "",
          "type": "uint8"
        }
      ],
      "stateMutability": "view",
      "type": "function"
    },
    {
      "inputs": [
        {
          "internalType": "string",
          "name": "name",
          "type": "string"
        },
        {
          "internalType": "string",
          "name": "symbol",
          "type": "string"
        },
        {
          "internalType": "address",
          "name": "newGovernance",
          "type": "address"
        }
      ],
      "name": "initialize",
      "outputs": [],
      "stateMutability": "nonpayable",
      "type": "function"
    },
    {
      "inputs": [
        {
          "internalType": "address",
          "name": "owner",
          "type": "address"
        },
        {
          "internalType": "address",
          "name": "operator",
          "type": "address"
        }
      ],
      "name": "isApprovedForAll",
      "outputs": [
        {
          "internalType": "bool",
          "name": "",
          "type": "bool"
        }
      ],
      "stateMutability": "view",
      "type": "function"
    },
    {
      "inputs": [
        {
          "internalType": "address",
          "name": "collectModule",
          "type": "address"
        }
      ],
      "name": "isCollectModuleWhitelisted",
      "outputs": [
        {
          "internalType": "bool",
          "name": "",
          "type": "bool"
        }
      ],
      "stateMutability": "view",
      "type": "function"
    },
    {
      "inputs": [
        {
          "internalType": "address",
          "name": "followModule",
          "type": "address"
        }
      ],
      "name": "isFollowModuleWhitelisted",
      "outputs": [
        {
          "internalType": "bool",
          "name": "",
          "type": "bool"
        }
      ],
      "stateMutability": "view",
      "type": "function"
    },
    {
      "inputs": [
        {
          "internalType": "address",
          "name": "profileCreator",
          "type": "address"
        }
      ],
      "name": "isProfileCreatorWhitelisted",
      "outputs": [
        {
          "internalType": "bool",
          "name": "",
          "type": "bool"
        }
      ],
      "stateMutability": "view",
      "type": "function"
    },
    {
      "inputs": [
        {
          "internalType": "address",
          "name": "referenceModule",
          "type": "address"
        }
      ],
      "name": "isReferenceModuleWhitelisted",
      "outputs": [
        {
          "internalType": "bool",
          "name": "",
          "type": "bool"
        }
      ],
      "stateMutability": "view",
      "type": "function"
    },
    {
      "inputs": [
        {
          "internalType": "uint256",
          "name": "tokenId",
          "type": "uint256"
        }
      ],
      "name": "mintTimestampOf",
      "outputs": [
        {
          "internalType": "uint256",
          "name": "",
          "type": "uint256"
        }
      ],
      "stateMutability": "view",
      "type": "function"
    },
    {
      "inputs": [
        {
          "components": [
            {
              "internalType": "uint256",
              "name": "profileId",
              "type": "uint256"
            },
            {
              "internalType": "uint256",
              "name": "profileIdPointed",
              "type": "uint256"
            },
            {
              "internalType": "uint256",
              "name": "pubIdPointed",
              "type": "uint256"
            },
            {
              "internalType": "bytes",
              "name": "referenceModuleData",
              "type": "bytes"
            },
            {
              "internalType": "address",
              "name": "referenceModule",
              "type": "address"
            },
            {
              "internalType": "bytes",
              "name": "referenceModuleInitData",
              "type": "bytes"
            }
          ],
          "internalType": "struct DataTypes.MirrorData",
          "name": "vars",
          "type": "tuple"
        }
      ],
      "name": "mirror",
      "outputs": [
        {
          "internalType": "uint256",
          "name": "",
          "type": "uint256"
        }
      ],
      "stateMutability": "nonpayable",
      "type": "function"
    },
    {
      "inputs": [
        {
          "components": [
            {
              "internalType": "uint256",
              "name": "profileId",
              "type": "uint256"
            },
            {
              "internalType": "uint256",
              "name": "profileIdPointed",
              "type": "uint256"
            },
            {
              "internalType": "uint256",
              "name": "pubIdPointed",
              "type": "uint256"
            },
            {
              "internalType": "bytes",
              "name": "referenceModuleData",
              "type": "bytes"
            },
            {
              "internalType": "address",
              "name": "referenceModule",
              "type": "address"
            },
            {
              "internalType": "bytes",
              "name": "referenceModuleInitData",
              "type": "bytes"
            },
            {
              "components": [
                {
                  "internalType": "uint8",
                  "name": "v",
                  "type": "uint8"
                },
                {
                  "internalType": "bytes32",
                  "name": "r",
                  "type": "bytes32"
                },
                {
                  "internalType": "bytes32",
                  "name": "s",
                  "type": "bytes32"
                },
                {
                  "internalType": "uint256",
                  "name": "deadline",
                  "type": "uint256"
                }
              ],
              "internalType": "struct DataTypes.EIP712Signature",
              "name": "sig",
              "type": "tuple"
            }
          ],
          "internalType": "struct DataTypes.MirrorWithSigData",
          "name": "vars",
          "type": "tuple"
        }
      ],
      "name": "mirrorWithSig",
      "outputs": [
        {
          "internalType": "uint256",
          "name": "",
          "type": "uint256"
        }
      ],
      "stateMutability": "nonpayable",
      "type": "function"
    },
    {
      "inputs": [],
      "name": "name",
      "outputs": [
        {
          "internalType": "string",
          "name": "",
          "type": "string"
        }
      ],
      "stateMutability": "view",
      "type": "function"
    },
    {
      "inputs": [
        {
          "internalType": "uint256",
          "name": "tokenId",
          "type": "uint256"
        }
      ],
      "name": "ownerOf",
      "outputs": [
        {
          "internalType": "address",
          "name": "",
          "type": "address"
        }
      ],
      "stateMutability": "view",
      "type": "function"
    },
    {
      "inputs": [
        {
          "internalType": "address",
          "name": "spender",
          "type": "address"
        },
        {
          "internalType": "uint256",
          "name": "tokenId",
          "type": "uint256"
        },
        {
          "components": [
            {
              "internalType": "uint8",
              "name": "v",
              "type": "uint8"
            },
            {
              "internalType": "bytes32",
              "name": "r",
              "type": "bytes32"
            },
            {
              "internalType": "bytes32",
              "name": "s",
              "type": "bytes32"
            },
            {
              "internalType": "uint256",
              "name": "deadline",
              "type": "uint256"
            }
          ],
          "internalType": "struct DataTypes.EIP712Signature",
          "name": "sig",
          "type": "tuple"
        }
      ],
      "name": "permit",
      "outputs": [],
      "stateMutability": "nonpayable",
      "type": "function"
    },
    {
      "inputs": [
        {
          "internalType": "address",
          "name": "owner",
          "type": "address"
        },
        {
          "internalType": "address",
          "name": "operator",
          "type": "address"
        },
        {
          "internalType": "bool",
          "name": "approved",
          "type": "bool"
        },
        {
          "components": [
            {
              "internalType": "uint8",
              "name": "v",
              "type": "uint8"
            },
            {
              "internalType": "bytes32",
              "name": "r",
              "type": "bytes32"
            },
            {
              "internalType": "bytes32",
              "name": "s",
              "type": "bytes32"
            },
            {
              "internalType": "uint256",
              "name": "deadline",
              "type": "uint256"
            }
          ],
          "internalType": "struct DataTypes.EIP712Signature",
          "name": "sig",
          "type": "tuple"
        }
      ],
      "name": "permitForAll",
      "outputs": [],
      "stateMutability": "nonpayable",
      "type": "function"
    },
    {
      "inputs": [
        {
          "components": [
            {
              "internalType": "uint256",
              "name": "profileId",
              "type": "uint256"
            },
            {
              "internalType": "string",
              "name": "contentURI",
              "type": "string"
            },
            {
              "internalType": "address",
              "name": "collectModule",
              "type": "address"
            },
            {
              "internalType": "bytes",
              "name": "collectModuleInitData",
              "type": "bytes"
            },
            {
              "internalType": "address",
              "name": "referenceModule",
              "type": "address"
            },
            {
              "internalType": "bytes",
              "name": "referenceModuleInitData",
              "type": "bytes"
            }
          ],
          "internalType": "struct DataTypes.PostData",
          "name": "vars",
          "type": "tuple"
        }
      ],
      "name": "post",
      "outputs": [
        {
          "internalType": "uint256",
          "name": "",
          "type": "uint256"
        }
      ],
      "stateMutability": "nonpayable",
      "type": "function"
    },
    {
      "inputs": [
        {
          "components": [
            {
              "internalType": "uint256",
              "name": "profileId",
              "type": "uint256"
            },
            {
              "internalType": "string",
              "name": "contentURI",
              "type": "string"
            },
            {
              "internalType": "address",
              "name": "collectModule",
              "type": "address"
            },
            {
              "internalType": "bytes",
              "name": "collectModuleInitData",
              "type": "bytes"
            },
            {
              "internalType": "address",
              "name": "referenceModule",
              "type": "address"
            },
            {
              "internalType": "bytes",
              "name": "referenceModuleInitData",
              "type": "bytes"
            },
            {
              "components": [
                {
                  "internalType": "uint8",
                  "name": "v",
                  "type": "uint8"
                },
                {
                  "internalType": "bytes32",
                  "name": "r",
                  "type": "bytes32"
                },
                {
                  "internalType": "bytes32",
                  "name": "s",
                  "type": "bytes32"
                },
                {
                  "internalType": "uint256",
                  "name": "deadline",
                  "type": "uint256"
                }
              ],
              "internalType": "struct DataTypes.EIP712Signature",
              "name": "sig",
              "type": "tuple"
            }
          ],
          "internalType": "struct DataTypes.PostWithSigData",
          "name": "vars",
          "type": "tuple"
        }
      ],
      "name": "postWithSig",
      "outputs": [
        {
          "internalType": "uint256",
          "name": "",
          "type": "uint256"
        }
      ],
      "stateMutability": "nonpayable",
      "type": "function"
    },
    {
      "inputs": [
        {
          "internalType": "address",
          "name": "from",
          "type": "address"
        },
        {
          "internalType": "address",
          "name": "to",
          "type": "address"
        },
        {
          "internalType": "uint256",
          "name": "tokenId",
          "type": "uint256"
        }
      ],
      "name": "safeTransferFrom",
      "outputs": [],
      "stateMutability": "nonpayable",
      "type": "function"
    },
    {
      "inputs": [
        {
          "internalType": "address",
          "name": "from",
          "type": "address"
        },
        {
          "internalType": "address",
          "name": "to",
          "type": "address"
        },
        {
          "internalType": "uint256",
          "name": "tokenId",
          "type": "uint256"
        },
        {
          "internalType": "bytes",
          "name": "_data",
          "type": "bytes"
        }
      ],
      "name": "safeTransferFrom",
      "outputs": [],
      "stateMutability": "nonpayable",
      "type": "function"
    },
    {
      "inputs": [
        {
          "internalType": "address",
          "name": "operator",
          "type": "address"
        },
        {
          "internalType": "bool",
          "name": "approved",
          "type": "bool"
        }
      ],
      "name": "setApprovalForAll",
      "outputs": [],
      "stateMutability": "nonpayable",
      "type": "function"
    },
    {
      "inputs": [
        {
          "internalType": "uint256",
          "name": "profileId",
          "type": "uint256"
        }
      ],
      "name": "setDefaultProfile",
      "outputs": [],
      "stateMutability": "nonpayable",
      "type": "function"
    },
    {
      "inputs": [
        {
          "components": [
            {
              "internalType": "address",
              "name": "wallet",
              "type": "address"
            },
            {
              "internalType": "uint256",
              "name": "profileId",
              "type": "uint256"
            },
            {
              "components": [
                {
                  "internalType": "uint8",
                  "name": "v",
                  "type": "uint8"
                },
                {
                  "internalType": "bytes32",
                  "name": "r",
                  "type": "bytes32"
                },
                {
                  "internalType": "bytes32",
                  "name": "s",
                  "type": "bytes32"
                },
                {
                  "internalType": "uint256",
                  "name": "deadline",
                  "type": "uint256"
                }
              ],
              "internalType": "struct DataTypes.EIP712Signature",
              "name": "sig",
              "type": "tuple"
            }
          ],
          "internalType": "struct DataTypes.SetDefaultProfileWithSigData",
          "name": "vars",
          "type": "tuple"
        }
      ],
      "name": "setDefaultProfileWithSig",
      "outputs": [],
      "stateMutability": "nonpayable",
      "type": "function"
    },
    {
      "inputs": [
        {
          "internalType": "uint256",
          "name": "profileId",
          "type": "uint256"
        },
        {
          "internalType": "address",
          "name": "dispatcher",
          "type": "address"
        }
      ],
      "name": "setDispatcher",
      "outputs": [],
      "stateMutability": "nonpayable",
      "type": "function"
    },
    {
      "inputs": [
        {
          "components": [
            {
              "internalType": "uint256",
              "name": "profileId",
              "type": "uint256"
            },
            {
              "internalType": "address",
              "name": "dispatcher",
              "type": "address"
            },
            {
              "components": [
                {
                  "internalType": "uint8",
                  "name": "v",
                  "type": "uint8"
                },
                {
                  "internalType": "bytes32",
                  "name": "r",
                  "type": "bytes32"
                },
                {
                  "internalType": "bytes32",
                  "name": "s",
                  "type": "bytes32"
                },
                {
                  "internalType": "uint256",
                  "name": "deadline",
                  "type": "uint256"
                }
              ],
              "internalType": "struct DataTypes.EIP712Signature",
              "name": "sig",
              "type": "tuple"
            }
          ],
          "internalType": "struct DataTypes.SetDispatcherWithSigData",
          "name": "vars",
          "type": "tuple"
        }
      ],
      "name": "setDispatcherWithSig",
      "outputs": [],
      "stateMutability": "nonpayable",
      "type": "function"
    },
    {
      "inputs": [
        {
          "internalType": "address",
          "name": "newEmergencyAdmin",
          "type": "address"
        }
      ],
      "name": "setEmergencyAdmin",
      "outputs": [],
      "stateMutability": "nonpayable",
      "type": "function"
    },
    {
      "inputs": [
        {
          "internalType": "uint256",
          "name": "profileId",
          "type": "uint256"
        },
        {
          "internalType": "address",
          "name": "followModule",
          "type": "address"
        },
        {
          "internalType": "bytes",
          "name": "followModuleInitData",
          "type": "bytes"
        }
      ],
      "name": "setFollowModule",
      "outputs": [],
      "stateMutability": "nonpayable",
      "type": "function"
    },
    {
      "inputs": [
        {
          "components": [
            {
              "internalType": "uint256",
              "name": "profileId",
              "type": "uint256"
            },
            {
              "internalType": "address",
              "name": "followModule",
              "type": "address"
            },
            {
              "internalType": "bytes",
              "name": "followModuleInitData",
              "type": "bytes"
            },
            {
              "components": [
                {
                  "internalType": "uint8",
                  "name": "v",
                  "type": "uint8"
                },
                {
                  "internalType": "bytes32",
                  "name": "r",
                  "type": "bytes32"
                },
                {
                  "internalType": "bytes32",
                  "name": "s",
                  "type": "bytes32"
                },
                {
                  "internalType": "uint256",
                  "name": "deadline",
                  "type": "uint256"
                }
              ],
              "internalType": "struct DataTypes.EIP712Signature",
              "name": "sig",
              "type": "tuple"
            }
          ],
          "internalType": "struct DataTypes.SetFollowModuleWithSigData",
          "name": "vars",
          "type": "tuple"
        }
      ],
      "name": "setFollowModuleWithSig",
      "outputs": [],
      "stateMutability": "nonpayable",
      "type": "function"
    },
    {
      "inputs": [
        {
          "internalType": "uint256",
          "name": "profileId",
          "type": "uint256"
        },
        {
          "internalType": "string",
          "name": "followNFTURI",
          "type": "string"
        }
      ],
      "name": "setFollowNFTURI",
      "outputs": [],
      "stateMutability": "nonpayable",
      "type": "function"
    },
    {
      "inputs": [
        {
          "components": [
            {
              "internalType": "uint256",
              "name": "profileId",
              "type": "uint256"
            },
            {
              "internalType": "string",
              "name": "followNFTURI",
              "type": "string"
            },
            {
              "components": [
                {
                  "internalType": "uint8",
                  "name": "v",
                  "type": "uint8"
                },
                {
                  "internalType": "bytes32",
                  "name": "r",
                  "type": "bytes32"
                },
                {
                  "internalType": "bytes32",
                  "name": "s",
                  "type": "bytes32"
                },
                {
                  "internalType": "uint256",
                  "name": "deadline",
                  "type": "uint256"
                }
              ],
              "internalType": "struct DataTypes.EIP712Signature",
              "name": "sig",
              "type": "tuple"
            }
          ],
          "internalType": "struct DataTypes.SetFollowNFTURIWithSigData",
          "name": "vars",
          "type": "tuple"
        }
      ],
      "name": "setFollowNFTURIWithSig",
      "outputs": [],
      "stateMutability": "nonpayable",
      "type": "function"
    },
    {
      "inputs": [
        {
          "internalType": "address",
          "name": "newGovernance",
          "type": "address"
        }
      ],
      "name": "setGovernance",
      "outputs": [],
      "stateMutability": "nonpayable",
      "type": "function"
    },
    {
      "inputs": [
        {
          "internalType": "uint256",
          "name": "profileId",
          "type": "uint256"
        },
        {
          "internalType": "string",
          "name": "imageURI",
          "type": "string"
        }
      ],
      "name": "setProfileImageURI",
      "outputs": [],
      "stateMutability": "nonpayable",
      "type": "function"
    },
    {
      "inputs": [
        {
          "components": [
            {
              "internalType": "uint256",
              "name": "profileId",
              "type": "uint256"
            },
            {
              "internalType": "string",
              "name": "imageURI",
              "type": "string"
            },
            {
              "components": [
                {
                  "internalType": "uint8",
                  "name": "v",
                  "type": "uint8"
                },
                {
                  "internalType": "bytes32",
                  "name": "r",
                  "type": "bytes32"
                },
                {
                  "internalType": "bytes32",
                  "name": "s",
                  "type": "bytes32"
                },
                {
                  "internalType": "uint256",
                  "name": "deadline",
                  "type": "uint256"
                }
              ],
              "internalType": "struct DataTypes.EIP712Signature",
              "name": "sig",
              "type": "tuple"
            }
          ],
          "internalType": "struct DataTypes.SetProfileImageURIWithSigData",
          "name": "vars",
          "type": "tuple"
        }
      ],
      "name": "setProfileImageURIWithSig",
      "outputs": [],
      "stateMutability": "nonpayable",
      "type": "function"
    },
    {
      "inputs": [
        {
          "internalType": "enum DataTypes.ProtocolState",
          "name": "newState",
          "type": "uint8"
        }
      ],
      "name": "setState",
      "outputs": [],
      "stateMutability": "nonpayable",
      "type": "function"
    },
    {
      "inputs": [
        {
          "internalType": "address",
          "name": "",
          "type": "address"
        }
      ],
      "name": "sigNonces",
      "outputs": [
        {
          "internalType": "uint256",
          "name": "",
          "type": "uint256"
        }
      ],
      "stateMutability": "view",
      "type": "function"
    },
    {
      "inputs": [
        {
          "internalType": "bytes4",
          "name": "interfaceId",
          "type": "bytes4"
        }
      ],
      "name": "supportsInterface",
      "outputs": [
        {
          "internalType": "bool",
          "name": "",
          "type": "bool"
        }
      ],
      "stateMutability": "view",
      "type": "function"
    },
    {
      "inputs": [],
      "name": "symbol",
      "outputs": [
        {
          "internalType": "string",
          "name": "",
          "type": "string"
        }
      ],
      "stateMutability": "view",
      "type": "function"
    },
    {
      "inputs": [
        {
          "internalType": "uint256",
          "name": "index",
          "type": "uint256"
        }
      ],
      "name": "tokenByIndex",
      "outputs": [
        {
          "internalType": "uint256",
          "name": "",
          "type": "uint256"
        }
      ],
      "stateMutability": "view",
      "type": "function"
    },
    {
      "inputs": [
        {
          "internalType": "uint256",
          "name": "tokenId",
          "type": "uint256"
        }
      ],
      "name": "tokenDataOf",
      "outputs": [
        {
          "components": [
            {
              "internalType": "address",
              "name": "owner",
              "type": "address"
            },
            {
              "internalType": "uint96",
              "name": "mintTimestamp",
              "type": "uint96"
            }
          ],
          "internalType": "struct IERC721Time.TokenData",
          "name": "",
          "type": "tuple"
        }
      ],
      "stateMutability": "view",
      "type": "function"
    },
    {
      "inputs": [
        {
          "internalType": "address",
          "name": "owner",
          "type": "address"
        },
        {
          "internalType": "uint256",
          "name": "index",
          "type": "uint256"
        }
      ],
      "name": "tokenOfOwnerByIndex",
      "outputs": [
        {
          "internalType": "uint256",
          "name": "",
          "type": "uint256"
        }
      ],
      "stateMutability": "view",
      "type": "function"
    },
    {
      "inputs": [
        {
          "internalType": "uint256",
          "name": "tokenId",
          "type": "uint256"
        }
      ],
      "name": "tokenURI",
      "outputs": [
        {
          "internalType": "string",
          "name": "",
          "type": "string"
        }
      ],
      "stateMutability": "view",
      "type": "function"
    },
    {
      "inputs": [],
      "name": "totalSupply",
      "outputs": [
        {
          "internalType": "uint256",
          "name": "",
          "type": "uint256"
        }
      ],
      "stateMutability": "view",
      "type": "function"
    },
    {
      "inputs": [
        {
          "internalType": "address",
          "name": "from",
          "type": "address"
        },
        {
          "internalType": "address",
          "name": "to",
          "type": "address"
        },
        {
          "internalType": "uint256",
          "name": "tokenId",
          "type": "uint256"
        }
      ],
      "name": "transferFrom",
      "outputs": [],
      "stateMutability": "nonpayable",
      "type": "function"
    },
    {
      "inputs": [
        {
          "internalType": "address",
          "name": "collectModule",
          "type": "address"
        },
        {
          "internalType": "bool",
          "name": "whitelist",
          "type": "bool"
        }
      ],
      "name": "whitelistCollectModule",
      "outputs": [],
      "stateMutability": "nonpayable",
      "type": "function"
    },
    {
      "inputs": [
        {
          "internalType": "address",
          "name": "followModule",
          "type": "address"
        },
        {
          "internalType": "bool",
          "name": "whitelist",
          "type": "bool"
        }
      ],
      "name": "whitelistFollowModule",
      "outputs": [],
      "stateMutability": "nonpayable",
      "type": "function"
    },
    {
      "inputs": [
        {
          "internalType": "address",
          "name": "profileCreator",
          "type": "address"
        },
        {
          "internalType": "bool",
          "name": "whitelist",
          "type": "bool"
        }
      ],
      "name": "whitelistProfileCreator",
      "outputs": [],
      "stateMutability": "nonpayable",
      "type": "function"
    },
    {
      "inputs": [
        {
          "internalType": "address",
          "name": "referenceModule",
          "type": "address"
        },
        {
          "internalType": "bool",
          "name": "whitelist",
          "type": "bool"
        }
      ],
      "name": "whitelistReferenceModule",
      "outputs": [],
      "stateMutability": "nonpayable",
      "type": "function"
    }
  ],
  "bytecode": "0x60e06040526000600b553480156200001657600080fd5b506040516200fe5b3803806200fe5b83398181016040528101906200003c919062000477565b3073ffffffffffffffffffffffffffffffffffffffff1660808173ffffffffffffffffffffffffffffffffffffffff1681525050620000a47fc61029728a7dc0e5b4ad1c7742de7d656923c442290c24ba7a7a466ab291c09660001b6200045460201b60201c565b620000d87ffe5501b6b611ce22ac2c06f45aa8d02d4ebdcce71950f536dc07785fefc0a12f60001b6200045460201b60201c565b6200010c7fb3d68f97c10611ed5c7f6457220357e5df864c7190d3c05034f103f0d98a538960001b6200045460201b60201c565b600073ffffffffffffffffffffffffffffffffffffffff168273ffffffffffffffffffffffffffffffffffffffff161415620001a857620001767fe1f6056d4cdae71de979d69544fe34a1e7bcafb2b60b8fa6eb8a8232ef2d7c7c60001b6200045460201b60201c565b6040517f48be0eb300000000000000000000000000000000000000000000000000000000815260040160405180910390fd5b620001dc7f8df0cf9581bf509185fe81a713fe64cb5cf9cdc965c0661947fd82718e3941d660001b6200045460201b60201c565b620002107f640345768a8ce2eb33f27934f4fb676e5cbdad670604da0f0af37bc7989e8a7960001b6200045460201b60201c565b620002447fa2c55e9aa728a9583c533898e1675a7e8f3f3e39ae5d8cee56380e6d596ca0d860001b6200045460201b60201c565b600073ffffffffffffffffffffffffffffffffffffffff168173ffffffffffffffffffffffffffffffffffffffff161415620002e057620002ae7f432627aca7323bf6a9dd6b834dd75a9dc1ae2c66e5f1d52fee20580cadee9ccc60001b6200045460201b60201c565b6040517f48be0eb300000000000000000000000000000000000000000000000000000000815260040160405180910390fd5b620003147f7d53fffa944e2e1af2547c38c6d28873d7b7a69bb4a9885e87a8ffce57c9785060001b6200045460201b60201c565b620003487f1ba7aef1d475507771cf717de3720f4cd4bb8919350eba12771cdc05f07d2c4560001b6200045460201b60201c565b6200037c7f8054254b6698b8dd683424cf8d817f5cd6e4a3522acb292378659e4362ebeaa860001b6200045460201b60201c565b8173ffffffffffffffffffffffffffffffffffffffff1660a08173ffffffffffffffffffffffffffffffffffffffff1681525050620003e47fc802fe3403495da3a9a6cfcb849a529b1d6b37bf4f06ad66cdea2756256cc3cf60001b6200045460201b60201c565b620004187f537a0a3fd30c2341c883a9495c23aa0cae8ea071f50f82547fb32dba49c8e7a560001b6200045460201b60201c565b8073ffffffffffffffffffffffffffffffffffffffff1660c08173ffffffffffffffffffffffffffffffffffffffff16815250505050620004af565b50565b60008151905060018060a01b03811681146200047257600080fd5b919050565b600080604083850312156200048b57600080fd5b620004968362000457565b9150620004a66020840162000457565b90509250929050565b60805160a05160c05161f96e620004ed6000396000818161458401528181614f4a0152616beb0152600061272701526000611415015261f96e6000f3fe608060405234801561001057600080fd5b50600436106104ac5760003560e01c806384114ad41161026d578063bd12d3f011610151578063dd69cdb1116100ce578063ed24911d11610092578063ed24911d14611054578063f08f4f6414611072578063f1b2f8bc146110a2578063f990ccd7146110be578063fb78ae6c146110ee578063ffea138e1461111e576104ac565b8063dd69cdb114610f8c578063df457c3414610fa8578063e985e9c514610fd8578063ec188be614611008578063ec81d19414611024576104ac565b8063c6b5d06c11610115578063c6b5d06c14610ec4578063c736c99014610ee0578063c87b56dd14610f10578063d923d20c14610f40578063dc21725314610f70576104ac565b8063bd12d3f014610e24578063bdfdd4bc14610e40578063bfbf0b4b14610e5c578063bfd24f4714610e78578063c0da9bcd14610e94576104ac565b8063a22cb465116101ea578063af05dd22116101ae578063af05dd2214610d18578063b48951e414610d48578063b5a3149614610d78578063b6f32d2b14610da8578063b7984c0514610dd8578063b88d4fde14610e08576104ac565b8063a22cb46514610c64578063a6d8e1e414610c80578063a9ec656314610c9c578063ab033ea914610ccc578063ad3e72bf14610ce8576104ac565b80638ef32235116102315780638ef3223514610bae57806392254a6214610bca57806395d89b4114610bfa578063963ff14114610c185780639b84a14c14610c48576104ac565b806384114ad414610ae657806386e2947b14610b1657806389028a1314610b325780638e204fb414610b4e5780638e4fd6a914610b7e576104ac565b80633a15ff071161039457806352aaef55116103115780636352211e116102d55780636352211e14610a005780636dea40b314610a3057806370a0823114610a4c57806377349a5f14610a7c5780637a37571614610a9a5780637ef67f9914610aca576104ac565b806352aaef5514610923578063540528b91461095357806356de96db1461098357806357ff49f61461099f5780635ca3eebf146109cf576104ac565b806342966c681161035857806342966c681461085b5780634a54abf9146108775780634f558e79146108935780634f6ccce7146108c357806350ddf35c146108f3576104ac565b80633a15ff07146107a75780633b28b89f146107d75780633b508132146107f35780634187e4c51461082357806342842e0e1461083f576104ac565b806320fa728a1161042d5780632faeed81116103f15780632faeed81146106c157806331dcebe3146106f157806331fff07c1461070d5780633502ac4b1461073d57806335da33941461075b578063374c947314610777576104ac565b806320fa728a1461060b57806323b872dd1461063b578063276ac34e14610657578063289b3c0d146106735780632f745c5914610691576104ac565b8063095ea7b311610474578063095ea7b31461056757806318160ddd146105835780631865c57d146105a15780631cbb2620146105bf57806320905506146105ef576104ac565b806301ffc9a7146104b1578063054871b8146104e157806306fdde03146104fd578063077f224a1461051b578063081812fc14610537575b600080fd5b6104cb60048036038101906104c6919061d4c1565b61114e565b6040516104d8919061d4e8565b60405180910390f35b6104fb60048036038101906104f6919061d545565b6111c8565b005b610505611375565b604051610512919061d5f6565b60405180910390f35b6105356004803603810190610530919061d630565b611407565b005b610551600480360381019061054c919061d6b8565b611636565b60405161055e919061d6e3565b60405180910390f35b610581600480360381019061057c919061d6fc565b6116bb565b005b61058b6117d3565b604051610598919061d728565b60405180910390f35b6105a96117e0565b6040516105b6919061d74f565b60405180910390f35b6105d960048036038101906105d4919061d771565b61187b565b6040516105e6919061d4e8565b60405180910390f35b6106096004803603810190610604919061d7ad565b611955565b005b6106256004803603810190610620919061d7e0565b611b95565b604051610632919061d728565b60405180910390f35b6106556004803603810190610650919061d827565b611cac565b005b610671600480360381019061066c919061d863565b611d0c565b005b61067b611d0f565b604051610688919061d6e3565b60405180910390f35b6106ab60048036038101906106a6919061d6fc565b611dbd565b6040516106b8919061d728565b60405180910390f35b6106db60048036038101906106d6919061d89a565b611e62565b6040516106e8919061d728565b60405180910390f35b61070b6004803603810190610706919061d7ad565b61201e565b005b6107276004803603810190610722919061d8d8565b61225e565b604051610734919061d8fd565b60405180910390f35b61074561269f565b604051610752919061d6e3565b60405180910390f35b6107756004803603810190610770919061d771565b61274b565b005b610791600480360381019061078c919061d6b8565b612a1f565b60405161079e919061d5f6565b60405180910390f35b6107c160048036038101906107bc919061d6b8565b612b4b565b6040516107ce919061d728565b60405180910390f35b6107f160048036038101906107ec919061d93a565b612bef565b005b61080d6004803603810190610808919061d994565b612f65565b60405161081a919061d728565b60405180910390f35b61083d6004803603810190610838919061d7ad565b6133c3565b005b6108596004803603810190610854919061d827565b613603565b005b6108756004803603810190610870919061d6b8565b613623565b005b610891600480360381019061088c919061d863565b6137cc565b005b6108ad60048036038101906108a8919061d6b8565b6137cf565b6040516108ba919061d4e8565b60405180910390f35b6108dd60048036038101906108d8919061d6b8565b6137e1565b6040516108ea919061d728565b60405180910390f35b61090d6004803603810190610908919061d6b8565b613852565b60405161091a919061d728565b60405180910390f35b61093d6004803603810190610938919061d8d8565b6138ef565b60405161094a919061d6e3565b60405180910390f35b61096d6004803603810190610968919061d6b8565b6139c5565b60405161097a919061d6e3565b60405180910390f35b61099d6004803603810190610998919061d9d2565b613a86565b005b6109b960048036038101906109b4919061d8d8565b613ef4565b6040516109c6919061d6e3565b60405180910390f35b6109e960048036038101906109e4919061d8d8565b613fca565b6040516109f792919061d9fd565b60405180910390f35b610a1a6004803603810190610a15919061d6b8565b614168565b604051610a27919061d6e3565b60405180910390f35b610a4a6004803603810190610a45919061da15565b61421d565b005b610a666004803603810190610a61919061d771565b614444565b604051610a73919061d728565b60405180910390f35b610a846144fc565b604051610a91919061d6e3565b60405180910390f35b610ab46004803603810190610aaf919061da76565b6145a8565b604051610ac1919061d728565b60405180910390f35b610ae46004803603810190610adf919061dada565b614afd565b005b610b006004803603810190610afb919061db17565b614deb565b604051610b0d919061d728565b60405180910390f35b610b306004803603810190610b2b919061db71565b614fdb565b005b610b4c6004803603810190610b47919061dbc1565b61525e565b005b610b686004803603810190610b63919061d771565b6154ea565b604051610b75919061d4e8565b60405180910390f35b610b986004803603810190610b93919061dc16565b6155c4565b604051610ba5919061dc54565b60405180910390f35b610bc86004803603810190610bc3919061d863565b615b96565b005b610be46004803603810190610bdf919061d771565b615b99565b604051610bf1919061d728565b60405180910390f35b610c02615c66565b604051610c0f919061d5f6565b60405180910390f35b610c326004803603810190610c2d919061dca1565b615cf8565b604051610c3f919061d728565b60405180910390f35b610c626004803603810190610c5d919061dcdf565b615fce565b005b610c7e6004803603810190610c79919061d7ad565b6162a1565b005b610c9a6004803603810190610c95919061d7ad565b61632d565b005b610cb66004803603810190610cb1919061d6b8565b61656d565b604051610cc3919061d6e3565b60405180910390f35b610ce66004803603810190610ce1919061d771565b616631565b005b610d026004803603810190610cfd919061d771565b616779565b604051610d0f919061d4e8565b60405180910390f35b610d326004803603810190610d2d919061d771565b616853565b604051610d3f919061d4e8565b60405180910390f35b610d626004803603810190610d5d919061dd1d565b61692d565b604051610d6f919061d728565b60405180910390f35b610d926004803603810190610d8d919061d8d8565b616c79565b604051610d9f919061d5f6565b60405180910390f35b610dc26004803603810190610dbd919061dd66565b616e25565b604051610dcf919061d728565b60405180910390f35b610df26004803603810190610ded919061d8d8565b616fe1565b604051610dff919061d6e3565b60405180910390f35b610e226004803603810190610e1d919061dee2565b6170b7565b005b610e3e6004803603810190610e39919061df4a565b617119565b005b610e5a6004803603810190610e55919061df88565b6173ec565b005b610e766004803603810190610e71919061dfce565b61765c565b005b610e926004803603810190610e8d919061dff2565b61791f565b005b610eae6004803603810190610ea9919061d6b8565b617aca565b604051610ebb919061e01e565b60405180910390f35b610ede6004803603810190610ed9919061d545565b617bd3565b005b610efa6004803603810190610ef5919061d8d8565b617d80565b604051610f07919061e050565b60405180910390f35b610f2a6004803603810190610f25919061d6b8565b617feb565b604051610f37919061d5f6565b60405180910390f35b610f5a6004803603810190610f55919061d6b8565b61826d565b604051610f67919061d6e3565b60405180910390f35b610f8a6004803603810190610f85919061e0ba565b618331565b005b610fa66004803603810190610fa1919061e0de565b618555565b005b610fc26004803603810190610fbd919061e10b565b618700565b604051610fcf919061d728565b60405180910390f35b610ff26004803603810190610fed919061e149565b618b10565b604051610fff919061d4e8565b60405180910390f35b611022600480360381019061101d919061d863565b618ba4565b005b61103e6004803603810190611039919061d6b8565b618ba7565b60405161104b919061d5f6565b60405180910390f35b61105c618cd3565b604051611069919061e17c565b60405180910390f35b61108c6004803603810190611087919061d6b8565b618d66565b604051611099919061e18d565b60405180910390f35b6110bc60048036038101906110b7919061d6b8565b619083565b005b6110d860048036038101906110d3919061d771565b6191cc565b6040516110e5919061d728565b60405180910390f35b6111086004803603810190611103919061e268565b6191e4565b604051611115919061dc54565b60405180910390f35b6111386004803603810190611133919061e2df565b6193b7565b604051611145919061d728565b60405180910390f35b60007f780e9d63000000000000000000000000000000000000000000000000000000007bffffffffffffffffffffffffffffffffffffffffffffffffffffffff1916827bffffffffffffffffffffffffffffffffffffffffffffffffffffffff191614806111c157506111c0826196a6565b5b9050919050565b6111f47fc52d58cb757220dbcfcfc56d66107252855c9680cefcca8d2440bfdefb49689060001b6137cc565b6112207f580c895ce1219a12509313e32e1bce598dbe3da9521941890936f4150d36e54560001b6137cc565b61124c7fb27d744ba4df9c4e3a6d4c93fc28e3ea81155b4c88c8cf11c411605d313e6e6660001b6137cc565b611254619788565b6112807fe689a5cd7aef4024ad321cfa06e7407d2c8c454cd0ef9bcef828c5cb35a3819c60001b6137cc565b6112ac7f9a0d0420f1c95f602f7ac77d31778f1128e8855bceda8408b11dcc990ffcb67460001b615b96565b6112d87fe316cc8e43d553860eda41812573a05c8d99d279526ccb3319ef2631d685a35a60001b615b96565b6113047f4d2b2991ee9994dabd08e331f1b59daf09c6fb09e3e92c9525348cce4e44b99e60001b615b96565b61130d836198d3565b6113397f96459701081833db52365a5841e1352a731f478573d1cac3aa4019bfa0fa990760001b615b96565b6113657f4ce2ed6ed66a8bfbd1bd54da4b098b087a6ce29ccd49e40e27348c99730b0b5c60001b615b96565b611370838383619b12565b505050565b6060600080546113849061e31d565b80601f01602080910402602001604051908101604052809291908181526020018280546113b09061e31d565b80156113fd5780601f106113d2576101008083540402835291602001916113fd565b820191906000526020600020905b8154815290600101906020018083116113e057829003601f168201915b5050505050905090565b6000611411619d74565b90507f000000000000000000000000000000000000000000000000000000000000000073ffffffffffffffffffffffffffffffffffffffff163073ffffffffffffffffffffffffffffffffffffffff161415611499576040517f971d041400000000000000000000000000000000000000000000000000000000815260040160405180910390fd5b600b5481116114d4576040517f5daa87a000000000000000000000000000000000000000000000000000000000815260040160405180910390fd5b80600b819055506115077f0c473f666f6993e79761ce6df959d244ce6794eef908a5f062cdd6b89decf46c60001b615b96565b6115337f77257453bfd7a28407b9bf4cffc3c1572b2897f43ff7ebec8e9e0bda466c14ed60001b615b96565b61155f7f866d1c6bc6626c549ea4ec17d127449d66686a68e091977d7a2c09a416bea25b60001b615b96565b61156b86868686619e01565b6115977f5c478613f6b8f4d00f567ca38c1126adb724d13790bcccb7fda53034a0bc6d9960001b615b96565b6115c37feb7158fa5e1f9a3d81bef71edcfb32c531276e5fe8b2c3fe68f06b7a6d7ec03b60001b615b96565b6115cd6002619f2d565b6115f97f6b8d74551df0d933d2c860cea4860fa9b1ce61d4876817f8fa97fd117e0a6db360001b615b96565b6116257f1bfcf00cbf7e85d7bb6cea1d819219bcfee215647ade777c29cc0a3c2f3a468860001b615b96565b61162e8261a117565b505050505050565b60006116418261a333565b611680576040517f08c379a00000000000000000000000000000000000000000000000000000000081526004016116779061e35c565b60405180910390fd5b6004600083815260200190815260200160002060009054906101000a900473ffffffffffffffffffffffffffffffffffffffff169050919050565b60006116c682614168565b90508073ffffffffffffffffffffffffffffffffffffffff168373ffffffffffffffffffffffffffffffffffffffff161415611737576040517f08c379a000000000000000000000000000000000000000000000000000000000815260040161172e9061e3c0565b60405180910390fd5b8073ffffffffffffffffffffffffffffffffffffffff1661175661a3a2565b73ffffffffffffffffffffffffffffffffffffffff16148061178557506117848161177f61a3a2565b618b10565b5b6117c4576040517f08c379a00000000000000000000000000000000000000000000000000000000081526004016117bb9061e424565b60405180910390fd5b6117ce838361a3aa565b505050565b6000600880549050905090565b600061180e7fb89a73d6c991699e2d02933878569ae440a1f7024f80804a363f2130f8929b2860001b6137cc565b61183a7fbdb7f7a121bff4657ae506a4c9a1556141a43d0e1411f7d8f919ad73b6ad2b8660001b6137cc565b6118667f925edcfc08ace3e7bcc331b76da39f72467247a35444288935b4790a5c7a359c60001b6137cc565b600c60009054906101000a900460ff16905090565b60006118a97f05abf08740550d6f93c83cb9d3c2b2e8918c882432464ae47f0fae6071ef5d5860001b615b96565b6118d57fff6421612a1bb6727f3ce9a1bd7e1aff781069d7a6db68914c3483482441374660001b615b96565b6119017fece3cf0c0c63cf5592cb286e5675cc4706b5a9bf4262073763569d89e27303bb60001b615b96565b600e60008373ffffffffffffffffffffffffffffffffffffffff1673ffffffffffffffffffffffffffffffffffffffff16815260200190815260200160002060009054906101000a900460ff169050919050565b6119817f379bf738b9f0906673b2d70daf57f2aa0fedfa4964123f28239c6ac35fd9064e60001b615b96565b6119ad7f13acc682c9f15163db0ac8b3f5506eec1ce7a4135c0bddad12ee34a231c6bdfd60001b615b96565b6119d97f5415b9f3a4d480e264cdd6d8fa5fc411db4a42e5f5da851e2b584dee5aa05f2560001b615b96565b6119e161a463565b611a0d7ff5aa753c82f795300000137543f9fae358caaf99b1c8ab2994d353e4bd5db1e660001b615b96565b611a397f1444adf443fd26129dfb32d4e88848c03f582dade1ce2c5152a4bc2257a14a2260001b615b96565b611a657fbdd569a06db0a06adae97a64c840f50cac7ab669862ae847d352b607ac4c006460001b615b96565b611a917f8d83a4026cabed7eb5ff96437990cd6e4fb76e0e919af4c4fe3aed0d39579e0660001b615b96565b80600d60008473ffffffffffffffffffffffffffffffffffffffff1673ffffffffffffffffffffffffffffffffffffffff16815260200190815260200160002060006101000a81548160ff021916908315150217905550611b147f5c4502c80d0b4e4e92903a2d195fe8202c8ac47d40a2a66c1c9e18180cedaf0960001b615b96565b611b407fbb0fc15ad91d5dad8278ca3763279d4e5042ae4d408350a741ac55d37356458e60001b615b96565b8015158273ffffffffffffffffffffffffffffffffffffffff167f8f617843889b94892bd44852d36ca6a7f49ecf4350a01e7b68e22d80f4ed95bc42604051611b89919061d728565b60405180910390a35050565b6000611bc37f523d37bde7f8d78fcf11617eaeecd68e6e352964cc1f40220be4e9a3de220f0b60001b615b96565b611bef7f7e7be125c4fdb48994478ac5830f91fe2e0da51c3dc18d5a9f2ac1e92e72260860001b615b96565b611c1b7f44e039b4e64b38c04f17dcbebcc870a79645046fdc950cc3dcc7d0fee0f667e160001b615b96565b60008383604051611c2d92919061e488565b60405180910390209050611c637fb1cabb5018ed798aa5694c3afb1c59a01075c6a13a417216330a261b16e9294560001b615b96565b611c8f7f7b83e87f8f0d56f2ed816ae1c1cea9b3ceeff996c2360edc1513415d60c7bb0060001b615b96565b601260008281526020019081526020016000205491505092915050565b611cbd611cb761a3a2565b8261a5c8565b611cfc576040517f08c379a0000000000000000000000000000000000000000000000000000000008152600401611cf39061e4a0565b60405180910390fd5b611d0783838361a6a6565b505050565b50565b6000611d3d7ffc594736f85fbd47ad4b4b7cfb5c938b76ce44147c137795e531a334d234c83260001b615b96565b611d697f5bbbb203e7c5b898bc18504ffa02fdacbb6a2559a6564c0952a94f8ade8e45a960001b615b96565b611d957f3f296348a23ea2041e3562aa5f6e8519f15679a9648d08d868347a47049721fa60001b615b96565b601760009054906101000a900473ffffffffffffffffffffffffffffffffffffffff16905090565b6000611dc883614444565b8210611e09576040517f08c379a0000000000000000000000000000000000000000000000000000000008152600401611e009061e504565b60405180910390fd5b600660008473ffffffffffffffffffffffffffffffffffffffff1673ffffffffffffffffffffffffffffffffffffffff168152602001908152602001600020600083815260200190815260200160002054905092915050565b6000611e907f5420af1361a86ebef69c564e763a3330dc8cb5bd39c43da7f7a79282f9d9cdc360001b6137cc565b611ebc7f7483b4d0a98904f16de2199f5564102e27bcce95b3fa835c95b95aa5c5dc5df860001b6137cc565b611ee87f876a2444ba1b6db7b79dd5813b8d7f25cafc6fb91c8251ff504c3afc3cda845260001b6137cc565b611ef061a905565b611f1c7f6584a36df80317cf23209f4a4906678ab7d65cee2e85ed5862a1afcf6bd8541060001b6137cc565b611f487fe164bc568d27339666f76cfe9bffe1c38a7a3774ab9776ab28885cd406b24b6060001b615b96565b611f747fbce2df0c7ca32ed436ed337213f713a2ee7464cb85b80c23e64ffb025b7f9bda60001b615b96565b611fa07f1b94c0ed2ecf5f82d658d3f8a14fc21462293924c688f65ecbdb4d2dec014cb060001b615b96565b611fad82600001356198d3565b611fd97fec32e51aecb1b9f0d9f1f8b44187f67e52e0666acba77d72bd59fc0e541dfbe260001b615b96565b6120057f694e3c2d53253101a8701feeadc421c81df16dacc9b2a4aaee56979e9d490bc360001b615b96565b612017826120129061e568565b61aa7c565b9050919050565b61204a7f379bf738b9f0906673b2d70daf57f2aa0fedfa4964123f28239c6ac35fd9064e60001b615b96565b6120767f13acc682c9f15163db0ac8b3f5506eec1ce7a4135c0bddad12ee34a231c6bdfd60001b615b96565b6120a27f5415b9f3a4d480e264cdd6d8fa5fc411db4a42e5f5da851e2b584dee5aa05f2560001b615b96565b6120aa61a463565b6120d67ff5aa753c82f795300000137543f9fae358caaf99b1c8ab2994d353e4bd5db1e660001b615b96565b6121027f0124dd5d3cff8f5ef42f1bb7a0ddde31c90bb3ff5815813d8060ede883b20b2160001b615b96565b61212e7fcec5532cce80c980d95756fac3d3486a60b7b2b24df0230887fde6c118d2df2d60001b615b96565b61215a7f7faa120a7d935c1aaab1c4ae1e3fa9dca300555cb62b069e1d0d0c43d414ba6760001b615b96565b80600f60008473ffffffffffffffffffffffffffffffffffffffff1673ffffffffffffffffffffffffffffffffffffffff16815260200190815260200160002060006101000a81548160ff0219169083151502179055506121dd7f383dad54c7824e2f7f83c7878bc2316d6d3311cda8af4c2e82effdd9d88dc19160001b615b96565b6122097f326d4cbe7c8cb3fe7995cbd01fab9d4b552b82641e992a44f6e74068d4e9962e60001b615b96565b8015158273ffffffffffffffffffffffffffffffffffffffff167f6cc19a794d6a439023150cd58748eed4353190c0bb060d2e6250e2df4a68b67342604051612252919061d728565b60405180910390a35050565b600061228c7fa6a828e2f7b11a27b246494451bd294dc0028cf26bcf7b3d44df97d5df5bc89060001b615b96565b6122b87f85b212d7a19adcbbb6aa82fab8e9fe53c8213ccab0f04036bdcecb47476bdb0160001b615b96565b6122e47f1170bc217a1e49be3aef43ebc644d1ae014b905a814eaabb7884213bca99561d60001b615b96565b60008214806123085750816013600085815260200190815260200160002060000154105b1561239a576123397f0e2913370a537bd0d81aa6d4ba07d15069ba360acadf53eb33ae4bd09829e3c660001b615b96565b6123657fe470d86179e8082d8bb291e2e0170c8ce3f7a0700699c575076ef5b057a44b1660001b615b96565b6123917f4802c092dd620a26ae8c8680dfad92e6e3e9eabda30eab32d4a77f396e62c56460001b615b96565b60039050612699565b6123c67fe88aa0123941a1f2ade593380780d19605c19865df2b829af7b911be6cee90ba60001b615b96565b6123f27ff6a86d24dadf1394a9f8a6e92d2de1544cf52f40dd599077b2a22e27b6633c0560001b615b96565b600073ffffffffffffffffffffffffffffffffffffffff1660146000858152602001908152602001600020600084815260200190815260200160002060040160009054906101000a900473ffffffffffffffffffffffffffffffffffffffff1673ffffffffffffffffffffffffffffffffffffffff1614156124fb5761249a7f3f568e96cf5b95f64b9a253e2474afc5134f66aee04b580784d75cbf503ddc5c60001b615b96565b6124c67fd24d8dc680bcae3b8fa454e401d4efa55192736f45f04038c8129d0db5b6c4df60001b615b96565b6124f27f37361b1556836187fe67fe820cac107b13c9bb75d21e0a660d3cac7a162c058d60001b615b96565b60029050612699565b6125277ff036315fb5f5c3b055bb3c290f72141b2b1bb69e185c61d05ade8506e15e25ac60001b615b96565b6125537f4aa0d45d8697b96a0de14b27cf5758657be2cf397c4cae80f3745810621c857160001b615b96565b6000601460008581526020019081526020016000206000848152602001908152602001600020600001541415612610576125af7f9b14caca86502433b06d652fb54814e3634cecc2687a7b5fa9c0d0be42ede06060001b615b96565b6125db7f06b0c5d7cabc22b96a5d3f6eb3ec87cd50e882640fb66274f0ff970fef5e2b8560001b615b96565b6126077ffe5fb3150cd0a742d45d79200c217682988fc91a849b1adffbead4029735d19360001b615b96565b60009050612699565b61263c7f19dc43164317f44b2953ae39b1476140028f4903e61797e34b3f0aea117ba54a60001b615b96565b6126687f7437f37909618291e5b657bf4a5e2ed1d544825ec1cd9905de6dff4606200e5560001b615b96565b6126947f843da09409ee92e31c057fe870ad3910e429a262009f3c3b6f8b65d391f5656c60001b615b96565b600190505b92915050565b60006126cd7f8cb50ba7b446ce1c1d9526a6d8d55a0daff6091a5344e134ba68ac75fee5bd8b60001b615b96565b6126f97ff80dcf5d48e822d36ac973ab13970e908f355de2c4497a8969e98f51157727a160001b615b96565b6127257fad2b71b64edf7eeb2200df637e6784b790f282c58acb4048ec07f7f5b7ffd6e860001b615b96565b7f0000000000000000000000000000000000000000000000000000000000000000905090565b6127777f379bf738b9f0906673b2d70daf57f2aa0fedfa4964123f28239c6ac35fd9064e60001b615b96565b6127a37f13acc682c9f15163db0ac8b3f5506eec1ce7a4135c0bddad12ee34a231c6bdfd60001b615b96565b6127cf7f5415b9f3a4d480e264cdd6d8fa5fc411db4a42e5f5da851e2b584dee5aa05f2560001b615b96565b6127d761a463565b6128037ff5aa753c82f795300000137543f9fae358caaf99b1c8ab2994d353e4bd5db1e660001b615b96565b61282f7f55e536ed9228a68acec42daa85e50b6c9060e7a7c035cfd18f3bd57e9331818a60001b615b96565b61285b7f22396e76e3e0c1f0cdac87cf32e0a3cb9985d4a79cd120fb1672571db095d56860001b615b96565b6128877fa3c1314c6afd84d6a447cb98ada3863c77941ae84121c771a5f653b516c93ab060001b615b96565b6000601860009054906101000a900473ffffffffffffffffffffffffffffffffffffffff1690506128da7fff35ec3040e7fee329b71d8c0c880791910f3188d1074329003b127cf70d4a9760001b615b96565b6129067f160c25b4f7d89734cf044c46ec1b48b3724d2e6928f1da43c9a87728454e8e8860001b615b96565b81601860006101000a81548173ffffffffffffffffffffffffffffffffffffffff021916908373ffffffffffffffffffffffffffffffffffffffff1602179055506129737fdd36152279fe4f42444a2e8748d45c2cea423df0512b7f769ea1e562dbf0b7ee60001b615b96565b61299f7f2eb469ca011461a65e166e96ac054e07c51287a1618b84c5db0ca48a56424bf460001b615b96565b8173ffffffffffffffffffffffffffffffffffffffff168173ffffffffffffffffffffffffffffffffffffffff163373ffffffffffffffffffffffffffffffffffffffff167f676c0801b0f400762e958ee31cfbb10870e70786f6761f57c8647e766b0db3d942604051612a13919061d728565b60405180910390a45050565b6060612a4d7fb99f740d4126e2080a0aee82b3eb6eed53b9f0355d4446dd46131a142fe49d7160001b615b96565b612a797fe5be69da7803f8006e45f3bc31734632e7492a022a35e313432a9e1c521557c660001b615b96565b612aa57f9f40376478f38f17db97f662f378a4bc3e8d61f1947889fb4f41717d6cbbb7e560001b615b96565b601360008381526020019081526020016000206005018054612ac69061e31d565b80601f0160208091040260200160405190810160405280929190818152602001828054612af29061e31d565b8015612b3f5780601f10612b1457610100808354040283529160200191612b3f565b820191906000526020600020905b815481529060010190602001808311612b2257829003601f168201915b50505050509050919050565b6000612b797f0de093e4ab28f7a242c3c62ada088d2f69f6285c7e02e4eb4d0a2725cfeecc6160001b615b96565b612ba57feb322efb8b1154322b7f1cec7f654003b0394efba3f6c73053ade410511d124e60001b615b96565b612bd17fdc4b40e25ddfd0d4350e8e176e33b91e7b2bb8b159bdf09d2f92791805e4009360001b615b96565b60136000838152602001908152602001600020600001549050919050565b612c1b7fc52d58cb757220dbcfcfc56d66107252855c9680cefcca8d2440bfdefb49689060001b6137cc565b612c477f580c895ce1219a12509313e32e1bce598dbe3da9521941890936f4150d36e54560001b6137cc565b612c737fb27d744ba4df9c4e3a6d4c93fc28e3ea81155b4c88c8cf11c411605d313e6e6660001b6137cc565b612c7b619788565b612ca77fe689a5cd7aef4024ad321cfa06e7407d2c8c454cd0ef9bcef828c5cb35a3819c60001b6137cc565b612cd37f4a1f37b369dd8941b4cf7ab2204c07b2aef973ecd870ec86436c914358ab535760001b615b96565b612cff7fc1037bd4eb4a45e569f46337257ae1ea545cd63496f88bf01c8e4656ef2b6bc560001b615b96565b612d2b7f9dfc89da21dbaef4538d067a1ff36e5dfa1edef62605f02f8304dc5464726ce060001b615b96565b6000612d3a8260000135614168565b9050612d687fe71078b4363bbfb6ba4df2397ea426d7cf21e4e9c6acefa1c05b9aa3dd1c60c560001b615b96565b612e5d612e537f61332f0343256b019dca2e0ffc75766fde55292d645df285bb1a3b74a493b5108460000135856020016020810190612da7919061d771565b868060400190612db7919061e607565b604051612dc592919061e488565b6040518091039020600a60008873ffffffffffffffffffffffffffffffffffffffff1673ffffffffffffffffffffffffffffffffffffffff1681526020019081526020016000206000815480929190600101919050558860600160600135604051602001612e389695949392919061e659565b6040516020818303038152906040528051906020012061ab79565b828460600161acc0565b612e897f4d7e39eedc9fe6629e2801b18916582e48e12f28e407ff39773435cbf2def84460001b615b96565b612eb57f0bfb0b1eaab09164312ee4171fa738252a20b7ceb0dc716d63d8ae475fa2126060001b615b96565b73__$1f7cbacb1f9f5d323b85b0487838426c8d$__636a7ecf138360000135846020016020810190612ee7919061d771565b858060400190612ef7919061e607565b6013600089600001358152602001908152602001600020600e6040518763ffffffff1660e01b8152600401612f319695949392919061e6c0565b60006040518083038186803b158015612f4957600080fd5b505af4158015612f5d573d6000803e3d6000fd5b505050505050565b6000612f937f5420af1361a86ebef69c564e763a3330dc8cb5bd39c43da7f7a79282f9d9cdc360001b6137cc565b612fbf7f7483b4d0a98904f16de2199f5564102e27bcce95b3fa835c95b95aa5c5dc5df860001b6137cc565b612feb7f876a2444ba1b6db7b79dd5813b8d7f25cafc6fb91c8251ff504c3afc3cda845260001b6137cc565b612ff361a905565b61301f7f6584a36df80317cf23209f4a4906678ab7d65cee2e85ed5862a1afcf6bd8541060001b6137cc565b61304b7f4d0d65575cb47dfcd7e19a47781e9a10d65f97ee3296cd4b45abf179d166e4e960001b615b96565b6130777f16860f3fdd6c09745634d166d9f46f27609ac63e94d7f513574f378fe1a5150b60001b615b96565b6130a37f5473ace42f30f3be7dbd4acd65f4985ad9a65cf839997308d9e5cf518a4fea5260001b615b96565b60006130b28360000135614168565b90506130e07f8fd55efaa1ca2cc61d03f0cd6cda66f3e82ceb3cb500782ef5afc4e09f8af51f60001b615b96565b61323761322d7ffb2be94758c5f2515e99eae2d54860ea468ce314ffb38e328c234793acbcccf4856000013586806020019061311c919061e701565b60405161312a92919061e488565b6040518091039020876040016020810190613145919061d771565b888060600190613155919061e607565b60405161316392919061e488565b604051809103902089608001602081019061317e919061d771565b8a8060a0019061318e919061e607565b60405161319c92919061e488565b6040518091039020600a60008b73ffffffffffffffffffffffffffffffffffffffff1673ffffffffffffffffffffffffffffffffffffffff1681526020019081526020016000206000815480929190600101919050558c60c001606001356040516020016132129998979695949392919061e753565b6040516020818303038152906040528051906020012061ab79565b828560c00161acc0565b6132637fed3e6a1d3dbe9ec4f41023a3445a71cad437f700059ec3d2b11dcc2256e9fd5360001b615b96565b61328f7f514248277a4b864750bf6688b98a622271c1cd50de5ea06109982d5b394fe2bc60001b615b96565b6133bb83600001358480602001906132a7919061e701565b8080601f016020809104026020016040519081016040528093929190818152602001838380828437600081840152601f19601f820116905080830192505050505050508560400160208101906132fd919061d771565b86806060019061330d919061e607565b8080601f016020809104026020016040519081016040528093929190818152602001838380828437600081840152601f19601f82011690508083019250505050505050876080016020810190613363919061d771565b888060a00190613373919061e607565b8080601f016020809104026020016040519081016040528093929190818152602001838380828437600081840152601f19601f8201169050808301925050505050505061b01f565b915050919050565b6133ef7f379bf738b9f0906673b2d70daf57f2aa0fedfa4964123f28239c6ac35fd9064e60001b615b96565b61341b7f13acc682c9f15163db0ac8b3f5506eec1ce7a4135c0bddad12ee34a231c6bdfd60001b615b96565b6134477f5415b9f3a4d480e264cdd6d8fa5fc411db4a42e5f5da851e2b584dee5aa05f2560001b615b96565b61344f61a463565b61347b7ff5aa753c82f795300000137543f9fae358caaf99b1c8ab2994d353e4bd5db1e660001b615b96565b6134a77f96e06893cb13799169ceddf9fd9d23b27be477d0b5a7ee49ca94fe5e441272f260001b615b96565b6134d37f52f40d6489be561f6fb4d96c7dc7703e3dfb1e13af3cee33cc3eceb52beff21960001b615b96565b6134ff7fd744daee0f483bca8977fdd1d1423914e0d2e194031b18ad4264d3067b321ef560001b615b96565b80601060008473ffffffffffffffffffffffffffffffffffffffff1673ffffffffffffffffffffffffffffffffffffffff16815260200190815260200160002060006101000a81548160ff0219169083151502179055506135827fb2a7e9ad9aefef245287699df9f64b4c293addc58cbf7f378655aa9d0e749e5f60001b615b96565b6135ae7f9e152b279e7c735e90f0c59f0e2003d993df323985d2d4b9f74c011e3b4bc41460001b615b96565b8015158273ffffffffffffffffffffffffffffffffffffffff167f37872a053ef20cb52defb7c9ec20e1a87cb8dd5098ac9e76a144be263dfef572426040516135f7919061d728565b60405180910390a35050565b61361e838383604051806020016040528060008152506170b7565b505050565b61364f7fc52d58cb757220dbcfcfc56d66107252855c9680cefcca8d2440bfdefb49689060001b6137cc565b61367b7f580c895ce1219a12509313e32e1bce598dbe3da9521941890936f4150d36e54560001b6137cc565b6136a77fb27d744ba4df9c4e3a6d4c93fc28e3ea81155b4c88c8cf11c411605d313e6e6660001b6137cc565b6136af619788565b6136db7fe689a5cd7aef4024ad321cfa06e7407d2c8c454cd0ef9bcef828c5cb35a3819c60001b6137cc565b6137077f0cd04d0726d505fa1d754675a8d8b89a9f0a289b24be7e1b90613990db96176b60001b615b96565b6137337f65eb278696fdadabb8b1e32d78f21fdaf20e7555b2a981a58ee34d6dbbca659d60001b615b96565b61375f7f9019f29c53f0e6814ac6bf981b55c836724c2b9358c295f40cca647101a74c0060001b615b96565b6137688161b12a565b6137947fa7f1202e6dc73d19d074440eb8cd97b0c47c0034a1eb10831b53ec1c663b77af60001b615b96565b6137c07fba79e7a693b66386537c983e7c15eb97ff33815e4cdfa49c065513bd46db94c060001b615b96565b6137c98161b2aa565b50565b50565b60006137da8261a333565b9050919050565b60006137eb6117d3565b821061382c576040517f08c379a00000000000000000000000000000000000000000000000000000000081526004016138239061e7aa565b60405180910390fd5b600882815481106138405761383f61e80e565b5b90600052602060002001549050919050565b6000806002600084815260200190815260200160002060000160149054906101000a90046bffffffffffffffffffffffff1690506000816bffffffffffffffffffffffff1614156138d8576040517f08c379a00000000000000000000000000000000000000000000000000000000081526004016138cf9061e824565b60405180910390fd5b806bffffffffffffffffffffffff16915050919050565b600061391d7fff71e522a28a27798e1dfb5cfba32ce13758c1d8479a48a29854446a58118f2860001b615b96565b6139497f83668d8bcd5d829f98b6802ec2425ebc38b89d7a0deb6e1d46d3eb38e78c6dc560001b615b96565b6139757f70e260fe976d330a57f3452a471bf9bed5f7f1db4205b8ecaa55d27b12adcee660001b615b96565b60146000848152602001908152602001600020600083815260200190815260200160002060050160009054906101000a900473ffffffffffffffffffffffffffffffffffffffff16905092915050565b60006139f37faa95674eb403753d7042df1db14803ef889c9d6fcc53270e2546a5483526d65260001b615b96565b613a1f7fb9a42d2460b1aa100781b3688e5328e9b6cd23c22ea8ae91fff747bc0b6e284c60001b615b96565b613a4b7fe8e60879fbd8342a47b14f4a7552533db92310acd3c1a88f86334c7946c127e660001b615b96565b6011600083815260200190815260200160002060009054906101000a900473ffffffffffffffffffffffffffffffffffffffff169050919050565b613ab27f9b5f013b03405a05ade3e0a152c004481cc0bd766943359cc4f2dff86f18af6b60001b615b96565b613ade7fa2fc90c50c852b43686602c5131677a8bca6b0ea0c1854b3d7fcb020e689188060001b615b96565b613b0a7f1fd7148f3a0197fae751bad6b1c698dfe09e1e77f36455e477255ba989beee0c60001b615b96565b601860009054906101000a900473ffffffffffffffffffffffffffffffffffffffff1673ffffffffffffffffffffffffffffffffffffffff163373ffffffffffffffffffffffffffffffffffffffff161415613d2c57613b8c7f94eda811c82f55d0ecbebd55ccefc8bede4d88b4269d04c515c3a417a967d29360001b615b96565b613bb87f113e5acaa3e6bc73b1eabe87675e9c084512a3866da33f013a54293c8427aff460001b615b96565b613be47f4363eca1ada0559efc05d5cece4415509dbdca4c849f01b687abc96dcb51288160001b615b96565b60006002811115613bf857613bf761d739565b5b816002811115613c0b57613c0a61d739565b5b1415613c9b57613c3d7fc2d6041a2a65e164f7368f8447974b581a2a92423fbcb9d1b473d5023b7c0b3b60001b615b96565b613c697fbbec5b2ee4fe741a4a3090c1e998582045916896afe6c28fe8f35f325ec18c7060001b615b96565b6040517f1abd0d5800000000000000000000000000000000000000000000000000000000815260040160405180910390fd5b613cc77f7c38cc0dc5320b8fd001cfc094358ca7bdfc2eeb7d114b0d4942741b0fad261660001b615b96565b613cf37f13ac8541bc487a674ab08a852a3e7782fbed39d24162e597a99a5dd79e12fc8560001b615b96565b613d1f7f22b2da12229f90ff19664469167c17d0319fec3af5459fb4e205bb5c579e8cc360001b615b96565b613d27619788565b613e90565b613d587fccc2a872429ce0af7c90c0aae8c3f35b9213dfcfd3e6d0c80fb8343edb7923f960001b615b96565b613d847fe2b86dc36b09086764bf1083b787c3a13ac9a3823d08244869007083d1257e7d60001b615b96565b601760009054906101000a900473ffffffffffffffffffffffffffffffffffffffff1673ffffffffffffffffffffffffffffffffffffffff163373ffffffffffffffffffffffffffffffffffffffff1614613e6357613e057fa377c62b67286f868f4c419c4b6c72d44ce4db4380ce39fe4561d6410939dbeb60001b615b96565b613e317f864f3507b164ecb3fa0c2f906f75b0c13d3eeee9f7e3fa4afe2c732c7d8dca9260001b615b96565b6040517fa020ab3200000000000000000000000000000000000000000000000000000000815260040160405180910390fd5b613e8f7f168d75f708271421dc9d6d42577ec39f5fa39fb25398a576b424ee6acfe6cfb960001b615b96565b5b613ebc7f23edd06268251265ac3804866673ad206774a384642c1038a8ce0df6ee464f7860001b615b96565b613ee87f22125cee5b0355216df166a92a465ab735a848c9abc3c7ccb64cdc2a1599481360001b615b96565b613ef181619f2d565b50565b6000613f227feb51c5c04fa47431bbe2dc441b620a4969e34edef7a98eac29eba302cd7aeade60001b615b96565b613f4e7f963688a6791f51865da2f0b623bde47dbc690893b5c6648dc2079ed1915dee5860001b615b96565b613f7a7fd1b9434763f04e719a7ac7306298605306d0a0516323e45b651bbc4e03f4ff2060001b615b96565b60146000848152602001908152602001600020600083815260200190815260200160002060040160009054906101000a900473ffffffffffffffffffffffffffffffffffffffff16905092915050565b600080613ff97fe26041fc65b75ca6f40afc569c043f8363b88a15faaa111007788c58f24636d460001b615b96565b6140257fca009dbd864b1dc76fb92aab83d3e24b1b896c1d6f1f1691d023b5b0fe3ca69260001b615b96565b6140517f86f7a6cb6c2b410e0bc53a9fb5eb3551f1dcbcc34afbc598067e565e8b2ddcac60001b615b96565b60006014600086815260200190815260200160002060008581526020019081526020016000206000015490506140a97f8424afd71d55b08fe2798c6402d32a28e6d23c747347776781cf6b484c2879e860001b615b96565b6140d57fe30cf9d19a1fcda8c1ece910ac9b04d1496ee67d122096a0abc20cd379e6dbdb60001b615b96565b600060146000878152602001908152602001600020600086815260200190815260200160002060010154905061412d7f84448165e61a1bf4f1d2e2348767d7ea67aa45d32b05f1a77b7516d9dd5bf52d60001b615b96565b6141597f8f98ff4fcf5e4ca0038bde3d865c906caf6d645a04aea4e8c536f0f03ef4a5ac60001b615b96565b81819350935050509250929050565b6000806002600084815260200190815260200160002060000160009054906101000a900473ffffffffffffffffffffffffffffffffffffffff169050600073ffffffffffffffffffffffffffffffffffffffff168173ffffffffffffffffffffffffffffffffffffffff161415614214576040517f08c379a000000000000000000000000000000000000000000000000000000000815260040161420b9061e888565b60405180910390fd5b80915050919050565b6142497fc52d58cb757220dbcfcfc56d66107252855c9680cefcca8d2440bfdefb49689060001b6137cc565b6142757f580c895ce1219a12509313e32e1bce598dbe3da9521941890936f4150d36e54560001b6137cc565b6142a17fb27d744ba4df9c4e3a6d4c93fc28e3ea81155b4c88c8cf11c411605d313e6e6660001b6137cc565b6142a9619788565b6142d57fe689a5cd7aef4024ad321cfa06e7407d2c8c454cd0ef9bcef828c5cb35a3819c60001b6137cc565b6143017f75a5dc397aa84326cb2532f7bac0ee723100eb99f8520770fc7baf9aecc3643d60001b615b96565b61432d7fea4d050ae529dff710ce293f75287b0c4d657036a14fefedd9b679800e7b1b0960001b615b96565b6143597f38478e1f0882cff54202c8d8a662a72a0c38867138a7db8aa54eafd3433eddc560001b615b96565b6143628461b3d2565b61438e7f3f76bfde329872b064d489761019ec2d3dffd1fe7130700040fbd5189c293e5c60001b615b96565b6143ba7fa7fedaaff35804c074afcc1592b72bff2611998f9a020a1c5b2786b418ebe0ba60001b615b96565b73__$1f7cbacb1f9f5d323b85b0487838426c8d$__636a7ecf1385858585601360008b8152602001908152602001600020600e6040518763ffffffff1660e01b815260040161440e9695949392919061e6c0565b60006040518083038186803b15801561442657600080fd5b505af415801561443a573d6000803e3d6000fd5b5050505050505050565b60008073ffffffffffffffffffffffffffffffffffffffff168273ffffffffffffffffffffffffffffffffffffffff1614156144b5576040517f08c379a00000000000000000000000000000000000000000000000000000000081526004016144ac9061e8ec565b60405180910390fd5b600360008373ffffffffffffffffffffffffffffffffffffffff1673ffffffffffffffffffffffffffffffffffffffff168152602001908152602001600020549050919050565b600061452a7f6d062623eda91bb4d7fc4f84f9258d5885b6c132857071282d62514596d2a53260001b615b96565b6145567fd59fca280b6f93d84add40798b0c85b43b17273d5e98094543898dcba959020960001b615b96565b6145827f169c2478d4ecbbe30742af42ada260a4ff37d8fe1e406d606e846dd84086eb2460001b615b96565b7f0000000000000000000000000000000000000000000000000000000000000000905090565b60006145d67f5420af1361a86ebef69c564e763a3330dc8cb5bd39c43da7f7a79282f9d9cdc360001b6137cc565b6146027f7483b4d0a98904f16de2199f5564102e27bcce95b3fa835c95b95aa5c5dc5df860001b6137cc565b61462e7f876a2444ba1b6db7b79dd5813b8d7f25cafc6fb91c8251ff504c3afc3cda845260001b6137cc565b61463661a905565b6146627f6584a36df80317cf23209f4a4906678ab7d65cee2e85ed5862a1afcf6bd8541060001b6137cc565b61468e7f6ad8daf50dab52adc36169d51e7c6fb96defb0e02b33579aa42529b341ef361e60001b615b96565b6146ba7f788846eff8329888a5cdf24c549bc4cfd2fed19f0564fea2351e3f9ce1ca9ff460001b615b96565b6146e67fc98dd9745009624537cd4c8b1cab8b3bc96de87c8d0a9ede17ec360df9ef39e660001b615b96565b60006146f58360000135614168565b90506147237faff3a5a387621e4f57b04f2a8dbe98fb7cd9bddc4fcb7dd1ffce33742562bc3060001b615b96565b6148b06148a57f35b861ea91c543d61c3f094b5effa29dfcd22a439290ae248fdccbc716201691856000013586806020019061475f919061e701565b60405161476d92919061e488565b60405180910390208760400135886060013589806080019061478f919061e607565b60405161479d92919061e488565b60405180910390208a60a00160208101906147b8919061d771565b8b8060c001906147c8919061e607565b6040516147d692919061e488565b60405180910390208c60e00160208101906147f1919061d771565b8d806101000190614802919061e607565b60405161481092919061e488565b6040518091039020600a60008e73ffffffffffffffffffffffffffffffffffffffff1673ffffffffffffffffffffffffffffffffffffffff1681526020019081526020016000206000815480929190600101919050558f610120016060013560405160200161488a9c9b9a9998979695949392919061e950565b6040516020818303038152906040528051906020012061ab79565b82856101200161acc0565b6148dc7fbd9e3f7fd098b3dc63952fc87148a5dd2470b87b2f3604e5c679299f956934c760001b615b96565b6149087f5e46b0772db7db5c9649fa748e621ab31c01f6e2cf415986a6383b22af0171f960001b615b96565b614af560405180610120016040528085600001358152602001858060200190614931919061e701565b8080601f016020809104026020016040519081016040528093929190818152602001838380828437600081840152601f19601f820116905080830192505050505050508152602001856040013581526020018560600135815260200185806080019061499d919061e607565b8080601f016020809104026020016040519081016040528093929190818152602001838380828437600081840152601f19601f8201169050808301925050505050505081526020018560a00160208101906149f8919061d771565b73ffffffffffffffffffffffffffffffffffffffff168152602001858060c00190614a23919061e607565b8080601f016020809104026020016040519081016040528093929190818152602001838380828437600081840152601f19601f8201169050808301925050505050505081526020018560e0016020810190614a7e919061d771565b73ffffffffffffffffffffffffffffffffffffffff16815260200185806101000190614aaa919061e607565b8080601f016020809104026020016040519081016040528093929190818152602001838380828437600081840152601f19601f8201169050808301925050505050505081525061b51e565b915050919050565b614b297f632106f6bd346f0dcae78fc2a89b45f5ad16031c5e7f4700b354d4106fed9dcc60001b618ba4565b614b557fb187107d06550fc166f0a399448d3721d14d9909ac10a91fd245b2f9c17a6bbb60001b618ba4565b614b817f324438e96ca519098cca5f2f23428c91f83727123c3e49d29efe17c29f13143860001b618ba4565b600073ffffffffffffffffffffffffffffffffffffffff168373ffffffffffffffffffffffffffffffffffffffff161415614c1457614be27f541afe405bb2713655ed5251ec1b504e4b4625912d1537cc2d89f3d4d65b3d6d60001b618ba4565b6040517f1fac5b7400000000000000000000000000000000000000000000000000000000815260040160405180910390fd5b614c407fa329fce4e41c74c84cc84078bf7da7b25239bf129149085272e49d1eb504f7ef60001b618ba4565b614c6c7f7dd014c86d9546338077cc48eeb85bce456664ef107af70f04cdd841fd4f17a360001b618ba4565b614c987f241e6a198c1d3e5142697e874f916c54140674e16a518ac82e8aa2cf46c51b2260001b618ba4565b6000614ca383614168565b9050614cd17f14e7b54e4bfefdd1d592e1cf4a6ce45f52092dc2dab8d0b2f08ca9bf471b27af60001b618ba4565b614d83614d7c7f49ecf333e5b8c95c40fdafc95c1ad136e8914a8fb55e9dc8bb01eaa83a2df9ad8686600a60008773ffffffffffffffffffffffffffffffffffffffff1673ffffffffffffffffffffffffffffffffffffffff1681526020019081526020016000206000815480929190600101919050558760600135604051602001614d6195949392919061e9bf565b6040516020818303038152906040528051906020012061ab79565b828461acc0565b614daf7f98ad8a9b6043385eb415e9b66e79c886185640b48e618d7fa8d81ad6869580fa60001b618ba4565b614ddb7f21f2b1dc39a865ce7c68fc8a4487eaa05cbfb8f711a3e7a47059fb69187c541d60001b618ba4565b614de5848461a3aa565b50505050565b6000614e197fc52d58cb757220dbcfcfc56d66107252855c9680cefcca8d2440bfdefb49689060001b6137cc565b614e457f580c895ce1219a12509313e32e1bce598dbe3da9521941890936f4150d36e54560001b6137cc565b614e717fb27d744ba4df9c4e3a6d4c93fc28e3ea81155b4c88c8cf11c411605d313e6e6660001b6137cc565b614e79619788565b614ea57fe689a5cd7aef4024ad321cfa06e7407d2c8c454cd0ef9bcef828c5cb35a3819c60001b6137cc565b614ed17f3f0a0694602cc93e948d17b77d30d2e68b3cbe46464a09a58e07051cbf647f5160001b615b96565b614efd7fc29b2598bfcd0c30c29fd00852b2bf7b9a3f7c026e9a311799dc1c24f0c0164460001b615b96565b614f297fd191b5830ef57df91a50c4c1d8d25a137e61dcfa8e156e074310940e95395a0060001b615b96565b73__$1e68a60ae0444699fe08192a29ecc09930$__63cd339bc433878787877f0000000000000000000000000000000000000000000000000000000000000000601460136040518963ffffffff1660e01b8152600401614f9098979695949392919061e9f4565b602060405180830381865af4158015614fad573d6000803e3d6000fd5b505050506040513d601f19601f82011682018060405250810190614fd1919061ea47565b9050949350505050565b6150077f4784affe11fcdb06713c234e544808f5a0bfb02518d11fbc98856ce82c2732b960001b615b96565b6150337f9a067b9e771e66c71c347a89f4d4db28da561adfa5640a6330f4f0762066edae60001b615b96565b61505f7f587b3b3f7c7db5594b31f6996b8a5ea021f134f5752d2f6dbddfb2ef0f828e8360001b615b96565b600060146000878152602001908152602001600020600086815260200190815260200160002060050160009054906101000a900473ffffffffffffffffffffffffffffffffffffffff1690506150d77fd4a0aa1f2142ae5261e1292d65c5f834637d7da4a532cfbb5ff355520263af2560001b615b96565b6151037f062cd2091deb2718ad517f6a78f63663a1817e305f335fa4d6328f71af62196b60001b615b96565b8073ffffffffffffffffffffffffffffffffffffffff163373ffffffffffffffffffffffffffffffffffffffff1614615194576151627fb150d9938f87d3ed53b2c82d752ac639b5a41d2dfa2cdd23942d2b449d42b42760001b615b96565b6040517fc6d1651b00000000000000000000000000000000000000000000000000000000815260040160405180910390fd5b6151c07f478853955882dc9c7dd4005b9883daf978fe68976d34c6b0c518e759103e250660001b615b96565b6151ec7f0f85640d7db59da9760afc8f9176b9285561cb3eb62872c998dcb7e491f21b9d60001b615b96565b6152187fbe68066fc0dfcc1e3128cf64e0e0d029aef26df52310851d1feed0b314cdaf2e60001b615b96565b8385877f68edb7ec2c37d21b3b72233960b487f2966f4ac82b7430d39f24d1f8d6f9910686864260405161524e9392919061ea63565b60405180910390a4505050505050565b61528a7ff91d9c296456cdaeb83d1e17509ef0a7b3f1067ff9814b42a87b43d058d4b05060001b618ba4565b6152b67fef681b18372c2180d1d12d4db13c6ed445b102c0788ebc7d576b3711dcd7d3fe60001b618ba4565b6152e27f13425a2317a404020d782da2ac995329602e69f4e1ee51b9e25fb3edf6d82ae160001b618ba4565b600073ffffffffffffffffffffffffffffffffffffffff168373ffffffffffffffffffffffffffffffffffffffff161415615375576153437f40283bb36c06759b2556a1b97ba8b7aed732ca776e7efd3250540f891ac9f72b60001b618ba4565b6040517f1fac5b7400000000000000000000000000000000000000000000000000000000815260040160405180910390fd5b6153a17f0816936b820f6da98f9a6242a25507969e91b4064426cb59d161fc94d5f5432060001b618ba4565b6153cd7fc17495168561a8b3d5f09aa0780bbfa618cd0674804048a9d98c43ee3a0a8e2560001b618ba4565b61548161547a7f47ab88482c90e4bb94b82a947ae78fa91fb25de1469ab491f4c15b9a0a2677ee868686600a60008b73ffffffffffffffffffffffffffffffffffffffff1673ffffffffffffffffffffffffffffffffffffffff168152602001908152602001600020600081548092919060010191905055876060013560405160200161545f9695949392919061ea8e565b6040516020818303038152906040528051906020012061ab79565b858361acc0565b6154ad7fe1809dda1980d1132c0ed0651ea80080884028f8e62fe6c860cffbf5bf06e50260001b618ba4565b6154d97fd871baad26c4abf901e175600966e4ed3a63b79d1433f2b535b272bb90df2f4d60001b618ba4565b6154e484848461b621565b50505050565b60006155187fe407d07106167ec9964fa0cd7924d13292998d48c90eade721c8858dd494791b60001b615b96565b6155447f5ad0f393734dc84f447b7aebd9b79198c6e357c20cbcfcc9e935c378cf43cafc60001b615b96565b6155707f2c9d0076ae8a20e282630ff8d87dcb4cd7ab2541d866164766c560422a7a516560001b615b96565b601060008373ffffffffffffffffffffffffffffffffffffffff1673ffffffffffffffffffffffffffffffffffffffff16815260200190815260200160002060009054906101000a900460ff169050919050565b60606155f27fc52d58cb757220dbcfcfc56d66107252855c9680cefcca8d2440bfdefb49689060001b6137cc565b61561e7f580c895ce1219a12509313e32e1bce598dbe3da9521941890936f4150d36e54560001b6137cc565b61564a7fb27d744ba4df9c4e3a6d4c93fc28e3ea81155b4c88c8cf11c411605d313e6e6660001b6137cc565b615652619788565b61567e7fe689a5cd7aef4024ad321cfa06e7407d2c8c454cd0ef9bcef828c5cb35a3819c60001b6137cc565b6156aa7f2e53c227fa8e843c8d1090a624199cf0fba96955da528a060f4223212f87d01860001b615b96565b6156d67f4e79eb26d6d58296c21eb532bf141838b26d714516c7ab904316dc99adbb547160001b615b96565b6157027fdb21f76bd4599f780e4807d4229913f3bdbcf438431033b5d4b9a3931c1d180660001b615b96565b6000828060400190615714919061ead0565b905090506157447fee5a5fe4111a675f218e3e30a1f0c39997b10ea1680b8b9b515e87194010ca9f60001b615b96565b6157707fb9cc860fc1121d33db49904348155a2c1e0032ed8bbd79babc223ae5857fc79e60001b615b96565b60008167ffffffffffffffff81111561578c5761578b61ddaf565b5b6040519080825280602002602001820160405280156157ba5781602001602082028036833780820191505090505b5090506157e97f3469ccf31bc6bf61276a6b88598e9d8447cf0a265bf2ff10b90e40c262a2b8ea60001b615b96565b6158157f356dbf719dc13e22be8a3cb2725598bb93d4997a48830e665437784632dd590360001b615b96565b60005b828110156159175761584c7f81d8f49b5ae3e7dab342c37c11f21097423978459c3de94696739f249b30f30660001b615b96565b6158787f6f73b48740699cc11792a7a7afc6fe2f5e0866c0b8fbe68c6f9420a6423c842260001b615b96565b848060400190615888919061ead0565b828181106158995761589861e80e565b5b90506020028101906158ab919061e607565b6040516158b992919061e488565b60405180910390208282815181106158d4576158d361e80e565b5b60200260200101818152505061590c7fa211ec5e9912d8bc5f3a1b7a17cd20755ebf0546b350fbc9141eabc1384d804260001b615b96565b806001019050615818565b506159447f91c4795ddb5a492204c4ff2e01343e50efae0d6f2b30edd1cc423e531b0b0ab360001b615b96565b615a7c615a607ffb6b7f1cd1b38daf3822aff0abbe78124db5d62a4748bcff007c15ccd6d30bc586806020019061597b919061eb25565b60405160200161598c92919061eb7a565b60405160208183030381529060405280519060200120846040516020016159b3919061ebab565b60405160208183030381529060405280519060200120600a60008a60000160208101906159e0919061d771565b73ffffffffffffffffffffffffffffffffffffffff1673ffffffffffffffffffffffffffffffffffffffff1681526020019081526020016000206000815480929190600101919050558960600160600135604051602001615a4595949392919061ebea565b6040516020818303038152906040528051906020012061ab79565b856000016020810190615a73919061d771565b8660600161acc0565b615aa87f93b455805b8c5f8e13f899a1f09ee3d423845155039c7b14e9887cb3840836ee60001b615b96565b615ad47ffe350559ee7bcaa834e6fa2b7e37a90bc8d025ac54c9d6748db4e1c33dbe081c60001b615b96565b73__$1e68a60ae0444699fe08192a29ecc09930$__636fb4b463856000016020810190615b01919061d771565b868060200190615b11919061eb25565b888060400190615b21919061ead0565b601360126040518863ffffffff1660e01b8152600401615b47979695949392919061ec69565b600060405180830381865af4158015615b64573d6000803e3d6000fd5b505050506040513d6000823e3d601f19601f82011682018060405250810190615b8d919061ed33565b92505050919050565b50565b6000615bc77faa8b1660f06e6d781cf70d96c5c05d9c81634dbef63dc5e09d21a2873d4d39cc60001b615b96565b615bf37fb976b483f7bb26af814050a45463edbe4693f1ca069da08ca959b3bf23bcfd7a60001b615b96565b615c1f7f165156634af7b40e4d2a05167d44041c8d6eb2e9e02aa76ca5c550c0a336921660001b615b96565b601560008373ffffffffffffffffffffffffffffffffffffffff1673ffffffffffffffffffffffffffffffffffffffff168152602001908152602001600020549050919050565b606060018054615c759061e31d565b80601f0160208091040260200160405190810160405280929190818152602001828054615ca19061e31d565b8015615cee5780601f10615cc357610100808354040283529160200191615cee565b820191906000526020600020905b815481529060010190602001808311615cd157829003601f168201915b5050505050905090565b6000615d267f5420af1361a86ebef69c564e763a3330dc8cb5bd39c43da7f7a79282f9d9cdc360001b6137cc565b615d527f7483b4d0a98904f16de2199f5564102e27bcce95b3fa835c95b95aa5c5dc5df860001b6137cc565b615d7e7f876a2444ba1b6db7b79dd5813b8d7f25cafc6fb91c8251ff504c3afc3cda845260001b6137cc565b615d8661a905565b615db27f6584a36df80317cf23209f4a4906678ab7d65cee2e85ed5862a1afcf6bd8541060001b6137cc565b615dde7ffef26ba2716df420d3360c2a49024bd41f9e471a45b4d0c1d70325ba9e1cfe8c60001b615b96565b615e0a7f37f1fc4e73f77c75355a9acc82aa5042fee23084b4d92b860f2d943085f5e44360001b615b96565b615e367fc3467f0d166cd897573b6f378709037e10d86b582ad2d3e45f58d5906fd8b06760001b615b96565b615e4382600001356198d3565b615e6f7fcca1389632631fddddf16c160d79ca58093189e4ea05cf212866865af32adf2260001b615b96565b615e9b7f2958f8d292106f4d24e99551ea05dcabee986058b81441380c23c21e1fa7779360001b615b96565b615fc78260000135838060200190615eb3919061e701565b8080601f016020809104026020016040519081016040528093929190818152602001838380828437600081840152601f19601f82011690508083019250505050505050846040016020810190615f09919061d771565b858060600190615f19919061e607565b8080601f016020809104026020016040519081016040528093929190818152602001838380828437600081840152601f19601f82011690508083019250505050505050866080016020810190615f6f919061d771565b878060a00190615f7f919061e607565b8080601f016020809104026020016040519081016040528093929190818152602001838380828437600081840152601f19601f8201169050808301925050505050505061b01f565b9050919050565b615ffa7fc52d58cb757220dbcfcfc56d66107252855c9680cefcca8d2440bfdefb49689060001b6137cc565b6160267f580c895ce1219a12509313e32e1bce598dbe3da9521941890936f4150d36e54560001b6137cc565b6160527fb27d744ba4df9c4e3a6d4c93fc28e3ea81155b4c88c8cf11c411605d313e6e6660001b6137cc565b61605a619788565b6160867fe689a5cd7aef4024ad321cfa06e7407d2c8c454cd0ef9bcef828c5cb35a3819c60001b6137cc565b6160b27f060c700e60dc7d9262da8ef974ea8ab8cecfe5e7994b193f11633c67eff3338a60001b615b96565b6160de7f5ea14d1e0bd71ef16a3bc4f28a592b6bc3ca9639300e2ffe07398ed1888bd6e060001b615b96565b61610a7fe911b1edde5ef9fd4debef620e84fd59e91f0780d32502fcc5d9e18d526cda6160001b615b96565b60006161198260000135614168565b90506161477f04a88284cfaa0dbc32afefc2cf6324b5db22a9978d65927388333d42f5c7e7ae60001b615b96565b61622861621e7f5b9860bd835e648945b22d053515bc1f53b7d9fab4b23b1b49db15722e945d148460000135858060200190616183919061e701565b60405161619192919061e488565b6040518091039020600a60008773ffffffffffffffffffffffffffffffffffffffff1673ffffffffffffffffffffffffffffffffffffffff168152602001908152602001600020600081548092919060010191905055876040016060013560405160200161620395949392919061ede3565b6040516020818303038152906040528051906020012061ab79565b828460400161acc0565b6162547f7425e8a773e24ede033146353f4c7ae45e14dc97055eae73927cb7a8c02e808760001b615b96565b6162807f3666462b60e59c84c09f7a3c86936bc3985a14b1fb28d7d243360074605dedfe60001b615b96565b61629d8260000135838060200190616298919061e701565b619b12565b5050565b6162a961a3a2565b73ffffffffffffffffffffffffffffffffffffffff168273ffffffffffffffffffffffffffffffffffffffff161415616317576040517f08c379a000000000000000000000000000000000000000000000000000000000815260040161630e9061ee10565b60405180910390fd5b61632961632261a3a2565b838361b621565b5050565b6163597f379bf738b9f0906673b2d70daf57f2aa0fedfa4964123f28239c6ac35fd9064e60001b615b96565b6163857f13acc682c9f15163db0ac8b3f5506eec1ce7a4135c0bddad12ee34a231c6bdfd60001b615b96565b6163b17f5415b9f3a4d480e264cdd6d8fa5fc411db4a42e5f5da851e2b584dee5aa05f2560001b615b96565b6163b961a463565b6163e57ff5aa753c82f795300000137543f9fae358caaf99b1c8ab2994d353e4bd5db1e660001b615b96565b6164117f61a16d083e8e5758038bd805a18ddda077030f88e3ddfd90faee6afef04f052760001b615b96565b61643d7f0740ecb5a4d84622980b520faf32934c161c11df837ea6ddd7f309a5a54f9fd860001b615b96565b6164697f3e82ee5492758bfd18b5587c523b00f9a9c038d8ba4eea030bf33e88c7f8eeae60001b615b96565b80600e60008473ffffffffffffffffffffffffffffffffffffffff1673ffffffffffffffffffffffffffffffffffffffff16815260200190815260200160002060006101000a81548160ff0219169083151502179055506164ec7f2b21574bca7f8614adc081edd4d85c1c461381ee72a33292d8c68079755cb4a560001b615b96565b6165187fd1a2fc3e36ce2ccd89cbd859999f772f702c414c86185aa3dba8468f75bbcff460001b615b96565b8015158273ffffffffffffffffffffffffffffffffffffffff167f52c5b7889df9f12f84ec3da051e854e5876678370d8357959c23ef59dd6486df42604051616561919061d728565b60405180910390a35050565b600061659b7f4d01433892c452230f83a5f50e963b3ff57461b1e123eecdbca0b01d89e4a1a260001b615b96565b6165c77fb6b595f99c9165ff0ba9644139ec5cf2db47ffe7ca93a8825746c0b2752807d460001b615b96565b6165f37ff7afbd33ae69c43350dd4768bd0723a0ac32f8984d4c3ca7ad851aafd5621d6160001b615b96565b6013600083815260200190815260200160002060020160009054906101000a900473ffffffffffffffffffffffffffffffffffffffff169050919050565b61665d7f379bf738b9f0906673b2d70daf57f2aa0fedfa4964123f28239c6ac35fd9064e60001b615b96565b6166897f13acc682c9f15163db0ac8b3f5506eec1ce7a4135c0bddad12ee34a231c6bdfd60001b615b96565b6166b57f5415b9f3a4d480e264cdd6d8fa5fc411db4a42e5f5da851e2b584dee5aa05f2560001b615b96565b6166bd61a463565b6166e97ff5aa753c82f795300000137543f9fae358caaf99b1c8ab2994d353e4bd5db1e660001b615b96565b6167157fb6cc7fa83964852991cd9c0c6e7edbf2e52de877ad7324f235ae85ff184b8f7060001b615b96565b6167417fc5625b950ce68c1e652f25f5b1ba09bc7bdaa60aedc977682c1ad4aa785f760460001b615b96565b61676d7f4043e71acab75f0cb61d345c894bb1fc72032305bb738d93552ba00468a9836960001b615b96565b6167768161a117565b50565b60006167a77fb06f5296d3f050216ec5086e2cf214264b43c77bfa64f6624c05edd90d015d4760001b615b96565b6167d37f9c10a68087ade3c9337c4f20918f85e28e4e9441498ff5257ab7aa78548b64a060001b615b96565b6167ff7f917578bad0a34119b89bd3c80aeaabb3fe12d2670822fe9bc345094ebd8ef5d860001b615b96565b600f60008373ffffffffffffffffffffffffffffffffffffffff1673ffffffffffffffffffffffffffffffffffffffff16815260200190815260200160002060009054906101000a900460ff169050919050565b60006168817f08eb13d8cfd39e2bbfad173ab2dc46557b21b325f2b14275316db7486ac51bf760001b615b96565b6168ad7f5e24ca5d1add683d746ea1371812c8bc3ce8d271c83958cb97d5838ce2ceea6060001b615b96565b6168d97f9220babe3c1aec41b38d80a01d6846170a05227a87ddce51b60c8f29da38850960001b615b96565b600d60008373ffffffffffffffffffffffffffffffffffffffff1673ffffffffffffffffffffffffffffffffffffffff16815260200190815260200160002060009054906101000a900460ff169050919050565b600061695b7fc52d58cb757220dbcfcfc56d66107252855c9680cefcca8d2440bfdefb49689060001b6137cc565b6169877f580c895ce1219a12509313e32e1bce598dbe3da9521941890936f4150d36e54560001b6137cc565b6169b37fb27d744ba4df9c4e3a6d4c93fc28e3ea81155b4c88c8cf11c411605d313e6e6660001b6137cc565b6169bb619788565b6169e77fe689a5cd7aef4024ad321cfa06e7407d2c8c454cd0ef9bcef828c5cb35a3819c60001b6137cc565b616a137f57f031b51138f74bdef2f87199d2f3a0a6c9772263f8bc5bf919634733243fed60001b615b96565b616a3f7fb3c6ecca2ec9c145231a16f6823e3d426815e0e3c5fde290c348ca84e6592ac660001b615b96565b616b4a616b2e7f7f9b4ea1fc678b4fda1611ac5cbd28f339e235d89b1540635e9b2e0223a3c10184602001358560400135868060600190616a80919061e607565b604051616a8e92919061e488565b6040518091039020600a6000896000016020810190616aad919061d771565b73ffffffffffffffffffffffffffffffffffffffff1673ffffffffffffffffffffffffffffffffffffffff1681526020019081526020016000206000815480929190600101919050558860800160600135604051602001616b139695949392919061ee4e565b6040516020818303038152906040528051906020012061ab79565b836000016020810190616b41919061d771565b8460800161acc0565b616b767f8ef2d65bebcf17b235c16cb4f65a4f49a624fb137088f786b58da91cb41afee360001b615b96565b616ba27ff0a479ea26a33f587a2e0a3467b4da72fd1a226b0e546bd56a16707c4eb12f6260001b615b96565b73__$1e68a60ae0444699fe08192a29ecc09930$__63cd339bc4836000016020810190616bcf919061d771565b84602001358560400135868060600190616be9919061e607565b7f0000000000000000000000000000000000000000000000000000000000000000601460136040518963ffffffff1660e01b8152600401616c3198979695949392919061e9f4565b602060405180830381865af4158015616c4e573d6000803e3d6000fd5b505050506040513d601f19601f82011682018060405250810190616c72919061ea47565b9050919050565b6060616ca77f504a36db56238fd81049d97ddf951c21c2af462088576f971550a5a2f078c3ee60001b615b96565b616cd37f3ca1046c641964923602b50c447f663d50938154f54638e48d61d574e24f942760001b615b96565b616cff7ff0efb04711791e82084bd2890ee61922f8df3bcbbe0561cfdcff208f7913815e60001b615b96565b600080616d0e8585601461b71f565b5091509150616d3f7fec4a0b809ffc4694e8415d0e52bdacaaf1ff73bae03c5b1355601aa9a8e45c8b60001b615b96565b616d6b7f3a4f07e28529e3929b55878ff52e21c95a9361f7cc17eaa278a88af23cb5f75560001b615b96565b6014600083815260200190815260200160002060008281526020019081526020016000206002018054616d9d9061e31d565b80601f0160208091040260200160405190810160405280929190818152602001828054616dc99061e31d565b8015616e165780601f10616deb57610100808354040283529160200191616e16565b820191906000526020600020905b815481529060010190602001808311616df957829003601f168201915b50505050509250505092915050565b6000616e537f5420af1361a86ebef69c564e763a3330dc8cb5bd39c43da7f7a79282f9d9cdc360001b6137cc565b616e7f7f7483b4d0a98904f16de2199f5564102e27bcce95b3fa835c95b95aa5c5dc5df860001b6137cc565b616eab7f876a2444ba1b6db7b79dd5813b8d7f25cafc6fb91c8251ff504c3afc3cda845260001b6137cc565b616eb361a905565b616edf7f6584a36df80317cf23209f4a4906678ab7d65cee2e85ed5862a1afcf6bd8541060001b6137cc565b616f0b7f830654b47ff2a7d83baf5ec614bfb277b036360661aa7f7caa26e54dd7d329f060001b615b96565b616f377f19a18d9657b8e6eb53f4f9fa545c9b0367e9f1d08bd3d449cbb45fc149a819ef60001b615b96565b616f637f93ec45d67e70b9ef8972ce482a5d079c8f1844ff39893bf06124bff4c1f95cfc60001b615b96565b616f7082600001356198d3565b616f9c7fe279cfcfde3708da5e191a96d608e11160ccab5d8b9575f342e867759a6ba70560001b615b96565b616fc87f45e81ae544f4146bd583efcced5ecfda2415ab0be29aabcb7fb0b131adb2178760001b615b96565b616fda82616fd59061ee82565b61b51e565b9050919050565b600061700f7f82dd194913f9e051bb50b870f14752bd5494432214c20c78fe7ec38a788f05de60001b615b96565b61703b7f7f9eb1584547ebf4d1f4f330f11f12bd7e86d492630b6fe1623f7b99ef51bdb960001b615b96565b6170677fe4bcc43916d26c9bcd200d624960e94ea3bebbdf2fe07d1a633420d611caefef60001b615b96565b60146000848152602001908152602001600020600083815260200190815260200160002060030160009054906101000a900473ffffffffffffffffffffffffffffffffffffffff16905092915050565b6170c86170c261a3a2565b8361a5c8565b617107576040517f08c379a00000000000000000000000000000000000000000000000000000000081526004016170fe9061e4a0565b60405180910390fd5b6171138484848461bc41565b50505050565b6171457fc52d58cb757220dbcfcfc56d66107252855c9680cefcca8d2440bfdefb49689060001b6137cc565b6171717f580c895ce1219a12509313e32e1bce598dbe3da9521941890936f4150d36e54560001b6137cc565b61719d7fb27d744ba4df9c4e3a6d4c93fc28e3ea81155b4c88c8cf11c411605d313e6e6660001b6137cc565b6171a5619788565b6171d17fe689a5cd7aef4024ad321cfa06e7407d2c8c454cd0ef9bcef828c5cb35a3819c60001b6137cc565b6171fd7fff74408effdcad28178688f18e44c6111e4555af23dcdbbd5d1a2074530df17260001b615b96565b6172297fba77de18d7784a689b83001521cc9f386142312e2342327a5bd065e40eb0a15360001b615b96565b6172557f7f1c6bb028be131a4056155121b8214383067653dd6602e693c01f826a196d4f60001b615b96565b60006172648260000135614168565b90506172927fa61a6fff3745c6cb0ccc06458fb372a648a763f6a7f2a6403bfbc92da1ced13560001b615b96565b6173736173697fd8d76e8b2b26e1ebe72def13fb559a68561ef064055b0de01f955bc26e25d42f84600001358580602001906172ce919061e701565b6040516172dc92919061e488565b6040518091039020600a60008773ffffffffffffffffffffffffffffffffffffffff1673ffffffffffffffffffffffffffffffffffffffff168152602001908152602001600020600081548092919060010191905055876040016060013560405160200161734e95949392919061ede3565b6040516020818303038152906040528051906020012061ab79565b828460400161acc0565b61739f7f32cdaaf8c0fbc318fde88fa9f7c796caa75143961db07a47b4d471755913d6b960001b615b96565b6173cb7f6cf923e447de658f834c811912c770dac54cb5e60f783c8c05a0414cb8aa3eaa60001b615b96565b6173e882600001358380602001906173e3919061e701565b61bc9d565b5050565b6174187f1fa77a32db31abc618b97cc09c21d284867af8a7c1db94854e68117583237e2c60001b615b96565b6174447ffade815338bce7b465f56509f1726f122380064cfe36ea506a5decdc767e473e60001b615b96565b6174707fed0e5b8a2ab45fdbb29ac302e9dffbaf25a785dbcf1a382c89cc8d84fcb264b260001b615b96565b60006013600086815260200190815260200160002060020160009054906101000a900473ffffffffffffffffffffffffffffffffffffffff1690506174d77f5c8d0d483b23b276798b42d5e504e07e92196951ea15b46694b8102f172330f060001b615b96565b6175037f71e77667aafa98e2849e058462d29ebf9637bcd62b0e93087938ad9ea15a263760001b615b96565b8073ffffffffffffffffffffffffffffffffffffffff163373ffffffffffffffffffffffffffffffffffffffff1614617594576175627fdc4ad6ab2ffda71863bf6f86baed0a3fc0cbccd3edf67c1938d6fb84dd55952a60001b615b96565b6040517fc8cf0baa00000000000000000000000000000000000000000000000000000000815260040160405180910390fd5b6175c07ffb03196e12e27b688199e86a80f7a30d742d0c4005d7158a7749633af0c4749160001b615b96565b6175ec7fe4ae1f892f8e157b413f4ef8531e787207a3efef9cd7b0cedfa1d3d639f41b5860001b615b96565b6176187fd6d9a51c3665d2250f5b13fabc2a577dd4dfc77b82a708a03e4f93191792f0bb60001b615b96565b83857f4996ad2257e7db44908136c43128cc10ca988096f67dc6bb0bcee11d151368fb85854260405161764d9392919061ea63565b60405180910390a35050505050565b6176887fc52d58cb757220dbcfcfc56d66107252855c9680cefcca8d2440bfdefb49689060001b6137cc565b6176b47f580c895ce1219a12509313e32e1bce598dbe3da9521941890936f4150d36e54560001b6137cc565b6176e07fb27d744ba4df9c4e3a6d4c93fc28e3ea81155b4c88c8cf11c411605d313e6e6660001b6137cc565b6176e8619788565b6177147fe689a5cd7aef4024ad321cfa06e7407d2c8c454cd0ef9bcef828c5cb35a3819c60001b6137cc565b6177407f6ce1439682bb6557abd7516fe42b9d06439122b6cf4142883999bbd4ad51480060001b615b96565b61776c7fd3b8938668406c4e7f56005c998809025db68ae650c374c6e84dcd7c35b49aac60001b615b96565b6177987f5f15c20d49c5b2111d71be17368c3be06d56e614f01248c56a9832a1fba3ecdd60001b615b96565b60006177a78260000135614168565b90506177d57f4c0002f6a5ee603e7ec825a254211397caa399f02ad81e34cf48c2caa2a6633560001b615b96565b6178a36178997f77ba3e9f5fa75343bbad1241fb539a0064de97694b47d463d1eb5c54aba11f0f8460000135856020016020810190617814919061d771565b600a60008773ffffffffffffffffffffffffffffffffffffffff1673ffffffffffffffffffffffffffffffffffffffff168152602001908152602001600020600081548092919060010191905055876040016060013560405160200161787e95949392919061ef7f565b6040516020818303038152906040528051906020012061ab79565b828460400161acc0565b6178cf7f70ad27d2de133458201163b2b947e79112e0ceba29f253841a21e088091e3ab160001b615b96565b6178fb7f43706e61430721be62da0332b219b45de219654c903ced2c1c0c9b4ee5152e5f60001b615b96565b61791b8260000135836020016020810190617916919061d771565b61bde0565b5050565b61794b7fc52d58cb757220dbcfcfc56d66107252855c9680cefcca8d2440bfdefb49689060001b6137cc565b6179777f580c895ce1219a12509313e32e1bce598dbe3da9521941890936f4150d36e54560001b6137cc565b6179a37fb27d744ba4df9c4e3a6d4c93fc28e3ea81155b4c88c8cf11c411605d313e6e6660001b6137cc565b6179ab619788565b6179d77fe689a5cd7aef4024ad321cfa06e7407d2c8c454cd0ef9bcef828c5cb35a3819c60001b6137cc565b617a037f563fb41313e0686605b6c7995ec0e1da54e0d0402e31b1ade799b6dd5f67274e60001b615b96565b617a2f7f92d3e2b62217891822ebc3bd9d2456806366e454063ed806617492a0c73533a260001b615b96565b617a5b7f066ec16865ba27c69e700685332d0848ab41c14af98e8b30493cf45fbd77ac2960001b615b96565b617a648261b3d2565b617a907fd5b49125f1991ddaa8b4c418279e1ab83176e85bb3ae6f8c5767ccd59385bd5160001b615b96565b617abc7f4d2fa9795987a4fb779002a5e075718b94364daa744598310246c36ca76aa33560001b615b96565b617ac6828261bde0565b5050565b617ad261d2ee565b617adb8261a333565b617b1a576040517f08c379a0000000000000000000000000000000000000000000000000000000008152600401617b119061efb4565b60405180910390fd5b600260008381526020019081526020016000206040518060400160405290816000820160009054906101000a900473ffffffffffffffffffffffffffffffffffffffff1673ffffffffffffffffffffffffffffffffffffffff1673ffffffffffffffffffffffffffffffffffffffff1681526020016000820160149054906101000a90046bffffffffffffffffffffffff166bffffffffffffffffffffffff166bffffffffffffffffffffffff16815250509050919050565b617bff7fc52d58cb757220dbcfcfc56d66107252855c9680cefcca8d2440bfdefb49689060001b6137cc565b617c2b7f580c895ce1219a12509313e32e1bce598dbe3da9521941890936f4150d36e54560001b6137cc565b617c577fb27d744ba4df9c4e3a6d4c93fc28e3ea81155b4c88c8cf11c411605d313e6e6660001b6137cc565b617c5f619788565b617c8b7fe689a5cd7aef4024ad321cfa06e7407d2c8c454cd0ef9bcef828c5cb35a3819c60001b6137cc565b617cb77fe26f30fd5bff364a2c552c70bbb74383f3af24b093f47c8875fd60f343dd605560001b615b96565b617ce37f6fe17d095a6e2aa76b6cc55cf71fe005e2ce7088d6d56ac58a4ad774fbb2659c60001b615b96565b617d0f7fcf6da61c2c20ac6f24cd4552633baf122778cf471db8c15a97985680420eb0a760001b615b96565b617d18836198d3565b617d447f7c6f4bbca0bbc987891804014039abef7dbf90f26e9e5ba5ecdf0c17e902ef2260001b615b96565b617d707f8c260458a9d19d424dc73f1ae38a28018bd01a710003f4ac104c871c841f77ad60001b615b96565b617d7b83838361bc9d565b505050565b617d8861d32c565b617db47ffa9f278087bc51ec3a7c805f8a02fc647c213056f80788a5e15f0a8756975e3960001b615b96565b617de07f5784e406dc9b91ca93f1e09783de744a81c83b958d79f016855af81d7a12df7c60001b615b96565b617e0c7f774b6f9ba21cde78104a496117e59043007b301f4d6abc38d985ea516aacc9b060001b615b96565b6014600084815260200190815260200160002060008381526020019081526020016000206040518060c00160405290816000820154815260200160018201548152602001600282018054617e5f9061e31d565b80601f0160208091040260200160405190810160405280929190818152602001828054617e8b9061e31d565b8015617ed85780601f10617ead57610100808354040283529160200191617ed8565b820191906000526020600020905b815481529060010190602001808311617ebb57829003601f168201915b505050505081526020016003820160009054906101000a900473ffffffffffffffffffffffffffffffffffffffff1673ffffffffffffffffffffffffffffffffffffffff1673ffffffffffffffffffffffffffffffffffffffff1681526020016004820160009054906101000a900473ffffffffffffffffffffffffffffffffffffffff1673ffffffffffffffffffffffffffffffffffffffff1673ffffffffffffffffffffffffffffffffffffffff1681526020016005820160009054906101000a900473ffffffffffffffffffffffffffffffffffffffff1673ffffffffffffffffffffffffffffffffffffffff1673ffffffffffffffffffffffffffffffffffffffff1681525050905092915050565b60606180197fa66201631e6016d2e5d598577377195668730a520ab1fb19fa76a7b529aaa12360001b615b96565b6180457f760c1d0b6824be3a93b5ee06f6ac3a0cdbc006aeb30b00b14e735c1cbfbe25a260001b615b96565b6180717ff8f74bbb403bbaacceb905c3a9ee413dddd87d3aa7160a5634768f6133ec0fc660001b615b96565b60006013600084815260200190815260200160002060020160009054906101000a900473ffffffffffffffffffffffffffffffffffffffff1690506180d87f836020962b3053c1aa87d2d6516614756265793c3d741e862d0683fc2e40534c60001b615b96565b6181047fbcad65fd50de7bd3e2397af9a906dbd3ad519a3f6097fa0cf5a0e5bdf377041460001b615b96565b73__$f906f20d797116ee89ed79945048c6ad36$__633edea73c84600073ffffffffffffffffffffffffffffffffffffffff168473ffffffffffffffffffffffffffffffffffffffff16146181c7578373ffffffffffffffffffffffffffffffffffffffff166318160ddd6040518163ffffffff1660e01b8152600401602060405180830381865afa15801561819e573d6000803e3d6000fd5b505050506040513d601f19601f820116820180604052508101906181c2919061ea47565b6181ca565b60005b6181d387614168565b60136000898152602001908152602001600020600301601360008a81526020019081526020016000206004016040518663ffffffff1660e01b815260040161821f95949392919061f097565b600060405180830381865af415801561823c573d6000803e3d6000fd5b505050506040513d6000823e3d601f19601f82011682018060405250810190618265919061f0e3565b915050919050565b600061829b7f18cd57f805352d9040119609ff7333cc2679d13aed504b06e5ffb9bb695d801160001b615b96565b6182c77fa02675ac1253fbd66aef6afa5e62dc9bdb568510d693ec645b4c088405a5831560001b615b96565b6182f37f982b772249aebf7510be627986a334206a44cceb0a19241d40a051e2e54b03a260001b615b96565b6013600083815260200190815260200160002060010160009054906101000a900473ffffffffffffffffffffffffffffffffffffffff169050919050565b61835d7fc52d58cb757220dbcfcfc56d66107252855c9680cefcca8d2440bfdefb49689060001b6137cc565b6183897f580c895ce1219a12509313e32e1bce598dbe3da9521941890936f4150d36e54560001b6137cc565b6183b57fb27d744ba4df9c4e3a6d4c93fc28e3ea81155b4c88c8cf11c411605d313e6e6660001b6137cc565b6183bd619788565b6183e97fe689a5cd7aef4024ad321cfa06e7407d2c8c454cd0ef9bcef828c5cb35a3819c60001b6137cc565b6184157fb5c929083175cc52ba7d27a3d0f1e4ba2df06d7a116ef4c7898616dd67eb5a0d60001b615b96565b6184417f4593fce2ac08d79fd08ffed6f0ba90f02a00ad7224a7dbd228f5541015f9ed5060001b615b96565b6185326185167e198a25e19615d82f53977db0fc1ee7f3701b0fdf1299a971cf997545879c0483600001602081019061847a919061d771565b8460200135600a6000876000016020810190618496919061d771565b73ffffffffffffffffffffffffffffffffffffffff1673ffffffffffffffffffffffffffffffffffffffff16815260200190815260200160002060008154809291906001019190505586604001606001356040516020016184fb95949392919061e9bf565b6040516020818303038152906040528051906020012061ab79565b826000016020810190618529919061d771565b8360400161acc0565b618552816000016020810190618548919061d771565b826020013561bf61565b50565b6185817fc52d58cb757220dbcfcfc56d66107252855c9680cefcca8d2440bfdefb49689060001b6137cc565b6185ad7f580c895ce1219a12509313e32e1bce598dbe3da9521941890936f4150d36e54560001b6137cc565b6185d97fb27d744ba4df9c4e3a6d4c93fc28e3ea81155b4c88c8cf11c411605d313e6e6660001b6137cc565b6185e1619788565b61860d7fe689a5cd7aef4024ad321cfa06e7407d2c8c454cd0ef9bcef828c5cb35a3819c60001b6137cc565b6186397fc316f1a8bad97a6ad07ca3c23b6d54b018caa7576de5ed280ef86c22584862c360001b615b96565b6186657fe442ad06ae33a57a7432f0495eee3a74d529e024da93a07e0e39e6baef693a4460001b615b96565b6186917f2ad884549683a9b346c13c725bb83135e91013f1907a21ec33436223d3889a3460001b615b96565b61869b828261c1ff565b6186c77f9597d7dddeb3bf9d16c2ce5a24e4a12c716ecfaea553722fad3b57b989ba55b860001b615b96565b6186f37f0592be1dcec3301186b775287dccecd5f1cfb65116d7d0183d3474d6f6db563360001b615b96565b6186fc8261b2aa565b5050565b600061872e7f5420af1361a86ebef69c564e763a3330dc8cb5bd39c43da7f7a79282f9d9cdc360001b6137cc565b61875a7f7483b4d0a98904f16de2199f5564102e27bcce95b3fa835c95b95aa5c5dc5df860001b6137cc565b6187867f876a2444ba1b6db7b79dd5813b8d7f25cafc6fb91c8251ff504c3afc3cda845260001b6137cc565b61878e61a905565b6187ba7f6584a36df80317cf23209f4a4906678ab7d65cee2e85ed5862a1afcf6bd8541060001b6137cc565b6187e67f7047c17595d9b1e36a2f3e8b4f6da3f919ecefba318cee677aeee04daf4d90d660001b615b96565b6188127f1c0f2364bc0187821d292aa0cce17869232f8a98159a205729fc37bdb2f0767260001b615b96565b61883e7f592317c214bb326301cba91b5dac762a7fd122d9870a30537bf574e60f2c87c360001b615b96565b600061884d8360000135614168565b905061887b7f16032d6c71e3af10a3455eeb2ca3123543f038016e3e4be416d888b6f2d88c5360001b615b96565b6189a36189997f4178441487eb967c15821c9ffee94853812f263a69ccb6352bdaac59f77e486f8560000135866020013587604001358880606001906188c1919061e607565b6040516188cf92919061e488565b60405180910390208960800160208101906188ea919061d771565b8a8060a001906188fa919061e607565b60405161890892919061e488565b6040518091039020600a60008b73ffffffffffffffffffffffffffffffffffffffff1673ffffffffffffffffffffffffffffffffffffffff1681526020019081526020016000206000815480929190600101919050558c60c0016060013560405160200161897e9998979695949392919061f165565b6040516020818303038152906040528051906020012061ab79565b828560c00161acc0565b6189cf7f050e1a06931452da290f308eb4a0067d9750c90205b0807cd75d12b8ac80957e60001b615b96565b6189fb7fe0d599250a1735b283c634f87c5b7fff11162d21f1742f4bf4640ee019865f2160001b615b96565b618b086040518060c00160405280856000013581526020018560200135815260200185604001358152602001858060600190618a37919061e607565b8080601f016020809104026020016040519081016040528093929190818152602001838380828437600081840152601f19601f820116905080830192505050505050508152602001856080016020810190618a92919061d771565b73ffffffffffffffffffffffffffffffffffffffff168152602001858060a00190618abd919061e607565b8080601f016020809104026020016040519081016040528093929190818152602001838380828437600081840152601f19601f8201169050808301925050505050505081525061aa7c565b915050919050565b6000600560008473ffffffffffffffffffffffffffffffffffffffff1673ffffffffffffffffffffffffffffffffffffffff16815260200190815260200160002060008373ffffffffffffffffffffffffffffffffffffffff1673ffffffffffffffffffffffffffffffffffffffff16815260200190815260200160002060009054906101000a900460ff16905092915050565b50565b6060618bd57f0c1f2ff7e0a9648521b4b0f9a7c6131a05c1c7ef39724adb419eca62312cb8e960001b615b96565b618c017f4b76b9bbff05daf280eff95c675949f40a1b9840f33cbd28ea9e198fc4287b5660001b615b96565b618c2d7f82f2d90bf8fe58f0207a7ab6a70da70247c5518eec863fa8ca1d2c679a8355b060001b615b96565b601360008381526020019081526020016000206003018054618c4e9061e31d565b80601f0160208091040260200160405190810160405280929190818152602001828054618c7a9061e31d565b8015618cc75780601f10618c9c57610100808354040283529160200191618cc7565b820191906000526020600020905b815481529060010190602001808311618caa57829003601f168201915b50505050509050919050565b6000618d017f2c9acd25c9540de399328a2375ce3d6c48afefb9cc6b1b151939157c8f88dee360001b618ba4565b618d2d7f0bfc0a393ce86133ea2330095f6425e51796d27a4d89f3b340171197263ce39a60001b618ba4565b618d597f1ba8bf142f1c509bd10ab6716346d2a55d0c8d7b6ddcc0822f6d5e7bdf4966b260001b618ba4565b618d6161c3d2565b905090565b618d6e61d3a4565b618d9a7f3e321caeea914d6acb2c1a47b6a549d107b91d5c615a23a45cad841c61e3eeb360001b615b96565b618dc67f5a3bc9be664b380b90a99c73d94c3f2cde36edfae341c069066599fdf87f007f60001b615b96565b618df27f2c796792bd30ccb7635373dcfb885255f0504f116c21e86d55efdad617e0f97960001b615b96565b601360008381526020019081526020016000206040518060c0016040529081600082015481526020016001820160009054906101000a900473ffffffffffffffffffffffffffffffffffffffff1673ffffffffffffffffffffffffffffffffffffffff1673ffffffffffffffffffffffffffffffffffffffff1681526020016002820160009054906101000a900473ffffffffffffffffffffffffffffffffffffffff1673ffffffffffffffffffffffffffffffffffffffff1673ffffffffffffffffffffffffffffffffffffffff168152602001600382018054618ed69061e31d565b80601f0160208091040260200160405190810160405280929190818152602001828054618f029061e31d565b8015618f4f5780601f10618f2457610100808354040283529160200191618f4f565b820191906000526020600020905b815481529060010190602001808311618f3257829003601f168201915b50505050508152602001600482018054618f689061e31d565b80601f0160208091040260200160405190810160405280929190818152602001828054618f949061e31d565b8015618fe15780601f10618fb657610100808354040283529160200191618fe1565b820191906000526020600020905b815481529060010190602001808311618fc457829003601f168201915b50505050508152602001600582018054618ffa9061e31d565b80601f01602080910402602001604051908101604052809291908181526020018280546190269061e31d565b80156190735780601f1061904857610100808354040283529160200191619073565b820191906000526020600020905b81548152906001019060200180831161905657829003601f168201915b5050505050815250509050919050565b6190af7fc52d58cb757220dbcfcfc56d66107252855c9680cefcca8d2440bfdefb49689060001b6137cc565b6190db7f580c895ce1219a12509313e32e1bce598dbe3da9521941890936f4150d36e54560001b6137cc565b6191077fb27d744ba4df9c4e3a6d4c93fc28e3ea81155b4c88c8cf11c411605d313e6e6660001b6137cc565b61910f619788565b61913b7fe689a5cd7aef4024ad321cfa06e7407d2c8c454cd0ef9bcef828c5cb35a3819c60001b6137cc565b6191677f42ed26c0a02d1b60cf7a33603aaeaf337547c94d54e94055a07365431674e91260001b615b96565b6191937f71c60031bd0fc72a74479dcd15c74d1205ce4a12318c25ce973bb2c716e94fd760001b615b96565b6191bf7f83e968f22436edddfce90ceb8ac852c22d263fc25b2d1ec9e1d6a88ecf14139760001b615b96565b6191c9338261bf61565b50565b600a6020528060005260406000206000915090505481565b60606192127fc52d58cb757220dbcfcfc56d66107252855c9680cefcca8d2440bfdefb49689060001b6137cc565b61923e7f580c895ce1219a12509313e32e1bce598dbe3da9521941890936f4150d36e54560001b6137cc565b61926a7fb27d744ba4df9c4e3a6d4c93fc28e3ea81155b4c88c8cf11c411605d313e6e6660001b6137cc565b619272619788565b61929e7fe689a5cd7aef4024ad321cfa06e7407d2c8c454cd0ef9bcef828c5cb35a3819c60001b6137cc565b6192ca7f34c695e5167faa830ff844aa0d794ef14d3b3774b6b4133883fc1b6d8879563460001b615b96565b6192f67f1b5059c9dba5e9a3e1066c0859af7de3e0b8800c5e95cd1c901b21e9f2e2763360001b615b96565b6193227f31c17411ab1f7b432a835099c74903459664d00d372bebfdd8cdb236e9689af660001b615b96565b73__$1e68a60ae0444699fe08192a29ecc09930$__636fb4b4633387878787601360126040518863ffffffff1660e01b8152600401619367979695949392919061ec69565b600060405180830381865af4158015619384573d6000803e3d6000fd5b505050506040513d6000823e3d601f19601f820116820180604052508101906193ad919061ed33565b9050949350505050565b60006193e57fc52d58cb757220dbcfcfc56d66107252855c9680cefcca8d2440bfdefb49689060001b6137cc565b6194117f580c895ce1219a12509313e32e1bce598dbe3da9521941890936f4150d36e54560001b6137cc565b61943d7fb27d744ba4df9c4e3a6d4c93fc28e3ea81155b4c88c8cf11c411605d313e6e6660001b6137cc565b619445619788565b6194717fe689a5cd7aef4024ad321cfa06e7407d2c8c454cd0ef9bcef828c5cb35a3819c60001b6137cc565b61949d7f8aab64818b8b9d0b912f82a00c4af8b93410ad12dac3e139d1b325073d30dfc160001b615b96565b6194c97fd99f2690321c7243a51e673ffa0d42b9186b581c6c5e885c0eacbeaca5ff27e260001b615b96565b6194f57fd1e4764a6f2d80f977650edef877db936da61e33dfd9af0f4f05eaa3e722af1b60001b615b96565b600d60003373ffffffffffffffffffffffffffffffffffffffff1673ffffffffffffffffffffffffffffffffffffffff16815260200190815260200160002060009054906101000a900460ff166195a4576195727f5246ee1bccfcde21ff15fd7a61a34a74a3893f99db8d99421332ed19a793a67560001b615b96565b6040517f561a858700000000000000000000000000000000000000000000000000000000815260040160405180910390fd5b6195d07f7f1ba1e762f2b3c104d41098591afe977a0b81bf6e21570faf2fc017b92f204360001b615b96565b6195fc7f7fe63441e1f426f3001107ecf232b10ab7b4558d36e2ed9e7df12c350fbfcc0060001b615b96565b6000601660008154600101919050819055905061962b836000016020810190619625919061d771565b8261c4da565b73__$1f7cbacb1f9f5d323b85b0487838426c8d$__637ecf4cde848360126013600e6040518663ffffffff1660e01b815260040161966d95949392919061f1b8565b60006040518083038186803b15801561968557600080fd5b505af4158015619699573d6000803e3d6000fd5b5050505080915050919050565b60007f80ac58cd000000000000000000000000000000000000000000000000000000007bffffffffffffffffffffffffffffffffffffffffffffffffffffffff1916827bffffffffffffffffffffffffffffffffffffffffffffffffffffffff1916148061977157507f5b5e139f000000000000000000000000000000000000000000000000000000007bffffffffffffffffffffffffffffffffffffffffffffffffffffffff1916827bffffffffffffffffffffffffffffffffffffffffffffffffffffffff1916145b8061978157506197808261c6f0565b5b9050919050565b6197b47f1ccd4ff09a9772a3957933d4416042bf55c71a34a22298af606fcb592574033760001b6137cc565b6197e07fd5b43353bd63727fb39bec424854083dbe7cd07e2df28766c188643db7459ff360001b6137cc565b61980c7f565ab12272475213e224973309d5f79b73bd315a4f1b9fd64f70e59987f1d8b360001b6137cc565b60028081111561981f5761981e61d739565b5b600c60009054906101000a900460ff1660028111156198415761984061d739565b5b14156198a5576198737f2a4390b0e477fb7030bc9e622b759845178ce31cad082f21cf59d48156f50e8160001b6137cc565b6040517f9e87fac800000000000000000000000000000000000000000000000000000000815260040160405180910390fd5b6198d17fb70ceb1dc0518aab7941887f4162c8849aa9a10a04df10d712f8717edb3b632e60001b6137cc565b565b6198ff7f761f50c4001502fa55679f70ea9bb6f918cba04eb242f5351fec96d3e7b54e4760001b615b96565b61992b7f9b9c89825d715f0cbf9a34a1b0f2dbed329972751eeae0c981dc44c974aa5c6060001b615b96565b6199577fc2391fea46413c89f2bfe693211316b7f1548bd5144932dbd55578332980f49f60001b615b96565b61996081614168565b73ffffffffffffffffffffffffffffffffffffffff163373ffffffffffffffffffffffffffffffffffffffff1614806199f757506011600082815260200190815260200160002060009054906101000a900473ffffffffffffffffffffffffffffffffffffffff1673ffffffffffffffffffffffffffffffffffffffff163373ffffffffffffffffffffffffffffffffffffffff16145b15619a8557619a287f80f120cd8f787b7afeebbf680d8f5ed3a9c29ba466bdc99f1006b6f5a50e0b5760001b615b96565b619a547f3f1d52e15ee9fcefb3ff590013589d979a032301af155beb57a45ac47abcb7dd60001b615b96565b619a807f76d23c668d801c8137d732a104b100cc1c24851675f5700ba5c594499a2f526860001b615b96565b619b0f565b619ab17fd43f3c4cd3e8e61b99d266a76ace1f866df91bfe49f991faf424be3df4f6a38460001b615b96565b619add7fdc412fea3993f8864206fce76a16cb64157575e4d137d0b3a81a57156b4a87fe60001b615b96565b6040517ff33ac98f00000000000000000000000000000000000000000000000000000000815260040160405180910390fd5b50565b619b3e7f272ed5396480ba1089ccf6d09a0405ee7775c25e9746841709f538130d6ff13660001b615b96565b619b6a7fe237b9534d2c1b6b5bed5209e5bb99ac5ec0f9516de38e24692b1efdd5ca9c2f60001b615b96565b619b967fe6a389a7df23b0efe30c018476297eb964dbf295e0d4d32ac969a053f129bb1760001b615b96565b61177061ffff16828290501115619c3157619bd37f45902c337fcba75ab72683661b7385b411fb57c4779f5f8b5c1f9b8bd03c709e60001b615b96565b619bff7fedafe26e749fa3385e21b873560f6e3745de3f6fb34e80be16a206ab58fc611560001b615b96565b6040517f781548c700000000000000000000000000000000000000000000000000000000815260040160405180910390fd5b619c5d7f84e91ad414efe381a1e8bdf3ad509a7526d352144b82061e5793fd7a97946b7e60001b615b96565b619c897f48ab29c1fd34735f319fc325b71608c94d976f89062c12d147f6779b2490ac5560001b615b96565b619cb57fbb0025cbd7ba802de3450fdebde19f0069a86b3db0157278948e2e825bbdc9ee60001b615b96565b8181601360008681526020019081526020016000206004019190619cda92919061d406565b50619d077f7155dfb3b892eeaddd608c354f0592cde192fdc5594506a6860fca68c630ec7060001b615b96565b619d337fc18816044e490e052dc9d28693ac30a21acd616887a7ba82197c07550a7e941d60001b615b96565b827fd5a5879cad33c830cc1432c1850107029a09c80c60e9bce1ecd08d24880bd46c838342604051619d679392919061f2ae565b60405180910390a2505050565b6000619da27f2f07719f64aa2efef659df280787dd0e83d08d3bdd0aaa81799cbae2a819242e60001b615b96565b619dce7f8c9ac87c837149f4ae59f900fb9c2ce6833004a1af0ac80568d87aff90fcc0c460001b615b96565b619dfa7fe410639e9463c2d473333f1a2c144b334e573d996a62acfb5e94177c8d8e8c1f60001b615b96565b6001905090565b619e2d7f16a92f2b6ac3c11b97febf2cc15b152fc9d04704871fac5e9063be9a4ec87c7660001b618ba4565b619e597f59d6fe526097614c257717b0069b4a067b8d3e4633fc4e08e55334b51fa8a37e60001b618ba4565b619e847e7cac95e89e29e94621f9b3d5802f175056324efcc07d2be0abee54b622e93760001b618ba4565b619e908484848461c75a565b619ebc7f302fa53f6316444e7d179fc393ade3a2ed8cd348c74c392908e3ccd2f4592fb560001b618ba4565b619ee87fa5049245cc22838fb02227d25c30d7b8e7c5e6a63b4a65b437e3830add39e30660001b618ba4565b7f414cd0b34676984f09a5f76ce9718d4062e50283abe0e7e274a9a5b4e0c99c308484848442604051619f1f95949392919061f2d2565b60405180910390a150505050565b619f597f508822763daba7a1ff3912cb223738306fb5e889919271231744fd57a25df93960001b6137cc565b619f857f6e8ebe002a816055770011c8c1479d486d49ab70472378363cc8bdd6a020aa3b60001b6137cc565b619fb17f85aee7b0f25cd552be273808bf10b8143626b1d9e70833043ec53b5a3dd2557160001b6137cc565b6000600c60009054906101000a900460ff169050619ff17f3d765367e8cecf67a1c17bd33d01e84d0b1b31c4a80c6004c9fa749893b222f360001b6137cc565b61a01d7f640bc15c83a43f0671d084b24d7e8ea4e462d3d91b79d61a79792b8c7cabdb5660001b6137cc565b81600c60006101000a81548160ff0219169083600281111561a0425761a04161d739565b5b021790555061a0737ffb5b79737f6692791aff6e8e22de1e4b1824fc0e209de15f63ec0a0c4ac24f4860001b6137cc565b61a09f7f41b5ff63a32c1394c3c5d0aecfade9cf646274629c5c24664c120e2f97f8950c60001b6137cc565b81600281111561a0b25761a0b161d739565b5b81600281111561a0c55761a0c461d739565b5b3373ffffffffffffffffffffffffffffffffffffffff167fa2f9a1499fc1f9b7796d21fe5761290ccb7e0ef6ccf35fa58b668f304a62a1ca4260405161a10b919061d728565b60405180910390a45050565b61a1437f6fad6a52682fd0c5d3f98fe23fde0bdfd2839cc13c1179704b667e4b5133f71660001b615b96565b61a16f7ff4bdd8727d1bae60cb17672bf5414ba76ae84d42905b9dfa1d6b4549dbca827160001b615b96565b61a19b7fa3e4f69c8668179f858319c74118b2cb708655cd5a74dca35106477ed43bfc8860001b615b96565b6000601760009054906101000a900473ffffffffffffffffffffffffffffffffffffffff16905061a1ee7f37e4c7bc905dca0485e0748e2c524f1b45a725aa28098e0f0b63647ef3d2238560001b615b96565b61a21a7f10eb59ecce27f1c5fb1aa0d5a97e9faa1b8dec6028a64190d70cab9636b5bb7860001b615b96565b81601760006101000a81548173ffffffffffffffffffffffffffffffffffffffff021916908373ffffffffffffffffffffffffffffffffffffffff16021790555061a2877f1fb238092190657c5f11ce525e53406ad3d68b223bae22850e8f78eef676445060001b615b96565b61a2b37f41ed8c6f5ac6289f8f30d7815e96b08f13e07a8c09776f0c409eb3d9db4611e960001b615b96565b8173ffffffffffffffffffffffffffffffffffffffff168173ffffffffffffffffffffffffffffffffffffffff163373ffffffffffffffffffffffffffffffffffffffff167fe552a55455b740845a5c07ed445d1724142fc997b389835495a29b30cddc1ccd4260405161a327919061d728565b60405180910390a45050565b60008073ffffffffffffffffffffffffffffffffffffffff166002600084815260200190815260200160002060000160009054906101000a900473ffffffffffffffffffffffffffffffffffffffff1673ffffffffffffffffffffffffffffffffffffffff1614159050919050565b600033905090565b816004600083815260200190815260200160002060006101000a81548173ffffffffffffffffffffffffffffffffffffffff021916908373ffffffffffffffffffffffffffffffffffffffff160217905550808273ffffffffffffffffffffffffffffffffffffffff1661a41d83614168565b73ffffffffffffffffffffffffffffffffffffffff167f8c5be1e5ebec7d5bd14f71427d1e84f3dd0314c0f7b2291e5b200ac8c7c3b92560405160405180910390a45050565b61a48f7ffca3b12f1d261356095f2c143462b1f7ee017be78c387667ac34c4e4f8ca101e60001b615b96565b61a4bb7f0a1353a1d5c0c297c5b2043a07dbeec7ade4d1f8602bfb14a8bcea9106d9968660001b615b96565b61a4e77f5f4a1f802d7e55b6da9228e819516ddc190f9841051b9a11c544d9a9004ae59860001b615b96565b601760009054906101000a900473ffffffffffffffffffffffffffffffffffffffff1673ffffffffffffffffffffffffffffffffffffffff163373ffffffffffffffffffffffffffffffffffffffff161461a59a5761a5687fdfb8e6c8a76e8559949a2769f29e685455888d2191b6413910cabf1f4e90c18860001b615b96565b6040517fb56f932c00000000000000000000000000000000000000000000000000000000815260040160405180910390fd5b61a5c67f218432a9e9ed6e8ff8b66a86111eb4b8659a4dbdb244b4923615b7eaecaad6a360001b615b96565b565b600061a5d38261a333565b61a612576040517f08c379a000000000000000000000000000000000000000000000000000000000815260040161a6099061f30c565b60405180910390fd5b600061a61d83614168565b90508073ffffffffffffffffffffffffffffffffffffffff168473ffffffffffffffffffffffffffffffffffffffff16148061a68c57508373ffffffffffffffffffffffffffffffffffffffff1661a67484611636565b73ffffffffffffffffffffffffffffffffffffffff16145b8061a69d575061a69c8185618b10565b5b91505092915050565b8273ffffffffffffffffffffffffffffffffffffffff1661a6c682614168565b73ffffffffffffffffffffffffffffffffffffffff161461a71c576040517f08c379a000000000000000000000000000000000000000000000000000000000815260040161a7139061f370565b60405180910390fd5b600073ffffffffffffffffffffffffffffffffffffffff168273ffffffffffffffffffffffffffffffffffffffff16141561a78c576040517f08c379a000000000000000000000000000000000000000000000000000000000815260040161a7839061f3d4565b60405180910390fd5b61a79783838361c784565b61a7a260008261a3aa565b6001600360008573ffffffffffffffffffffffffffffffffffffffff1673ffffffffffffffffffffffffffffffffffffffff168152602001908152602001600020600082825461a7f2919061f44e565b925050819055506001600360008473ffffffffffffffffffffffffffffffffffffffff1673ffffffffffffffffffffffffffffffffffffffff168152602001908152602001600020600082825461a849919061f46c565b92505081905550816002600083815260200190815260200160002060000160006101000a81548173ffffffffffffffffffffffffffffffffffffffff021916908373ffffffffffffffffffffffffffffffffffffffff160217905550808273ffffffffffffffffffffffffffffffffffffffff168473ffffffffffffffffffffffffffffffffffffffff167fddf252ad1be2c89b69c2b068fc378daa952ba7f163c4a11628f55a4df523b3ef60405160405180910390a4505050565b61a9317fadb50ba938924bf1d093017fe2cb4a29a13dc50a05578d4e431d3770a037c7d460001b6137cc565b61a95d7f35f493f3f113cfd448dae0bcced4d119803096f3e6c7f448d490eac21456538b60001b6137cc565b61a9897f8adafee7b28d7b0227b2d9722343e8b5342d45efb8dee540e700798f74ce31ae60001b6137cc565b6000600281111561a99d5761a99c61d739565b5b600c60009054906101000a900460ff16600281111561a9bf5761a9be61d739565b5b1461aa4e5761a9f07f7a71ba964ec3985d9a6e1001bc080d4d3b2bcae7eadf1745a5b1fc2fa7cee77b60001b6137cc565b61aa1c7f844495d20f45004e14714bbbad8addb64bc551a92943c2e789f3578b7e36fb6b60001b6137cc565b6040517f79c951d800000000000000000000000000000000000000000000000000000000815260040160405180910390fd5b61aa7a7f1aea17b81e2da93f940a1923960ed78e4b72f22e54f4717977a8a4b56be1197e60001b6137cc565b565b600061aaaa7f2607133650e18be3c99e82bb6f00382ce5f876efaf51c5c14303cd84cceb5a5260001b615b96565b61aad67f057ec6bc2227418e2eba06a0ffb1284788c1534369c7bab6478793b07ef6124b60001b615b96565b6000601360008460000151815260200190815260200160002060000160008154600101919050819055905073__$1f7cbacb1f9f5d323b85b0487838426c8d$__63764e3e938483601460106040518563ffffffff1660e01b815260040161ab40949392919061f48b565b60006040518083038186803b15801561ab5857600080fd5b505af415801561ab6c573d6000803e3d6000fd5b5050505080915050919050565b600061aba77fd89baf4740064c2ea281d128390a8e26b2bb8d9c1f7e5098f59e8c3a4b67141f60001b618ba4565b61abd37fd69731a1d1da4965af9d9c90aa9061df1077ee581b3c07ba1f5428cbf6b1767b60001b618ba4565b61abff7f766dec958317820722c21547e7581524be869e361a488a46d9c218a5684f531060001b618ba4565b600061ac2d7f0becec9f241d9d8f525066871448e608b11861523cfd503678499c2a225c609c60001b618ba4565b61ac3561c3d2565b8360405160200161ac4792919061f516565b60405160208183030381529060405280519060200120905061ac8b7f243480fa977ae50fdc4dd48978f3282c2ccfa3d0d894d5a741721bb6c3282ea960001b618ba4565b61acb77ffb392bb1bf46ce708778983447592b6f120afec52dbe13d5b3c3ce5f86f70fd160001b618ba4565b80915050919050565b61acec7f37fd276641baafc08e65809714161d731c6951eac760d8053aa40bfe4cdfde8560001b618ba4565b61ad187f98b35617702ea5c0ff1bc4207dd11c6250b65c76cbc2849af7b891bd1c6af6b560001b618ba4565b61ad447f48f26d1a0b4e6092ca616da92583cfca1e9e401780ea32254bbb8139d18d110760001b618ba4565b428160600135101561adae5761ad7c7fafc82607c6cd75ea9c6739eab8d4a6dbbb0af4d4f1b80132a2a917ed29efe7be60001b618ba4565b6040517f0819bdcd00000000000000000000000000000000000000000000000000000000815260040160405180910390fd5b61adda7fde1f8ee4b6a0cafcac9d32d2b0fdf1c0782c5f5ffca7dd02442c3edba16a335260001b618ba4565b61ae067f37973822d20079658b4df14254ef25c7fe25afa01b22cf8979bbf28b5cd061c560001b618ba4565b61ae327f4bb4c6180b4f8e747fd2262ecfcb1583111d7365fc9e93c0e047f85e2c85cbad60001b618ba4565b600060018483600001602081019061ae4a919061f539565b846020013585604001356040516000815260200160405260405161ae71949392919061f566565b6020604051602081039080840390855afa15801561ae93573d6000803e3d6000fd5b50505060206040510351905061aecb7fd09b70ba90ef890f32a078f145067ac8a4dbfc699f27f3c263c8f122e4123d7660001b618ba4565b61aef77f75351b233b3f07f28fbea901f1b8d48f697a9ff7a5db3009ce3e5955274754b560001b618ba4565b600073ffffffffffffffffffffffffffffffffffffffff168173ffffffffffffffffffffffffffffffffffffffff16148061af5e57508273ffffffffffffffffffffffffffffffffffffffff168173ffffffffffffffffffffffffffffffffffffffff1614155b1561afed5761af8f7f26e86910d8e361c9815e05022935a3ded7d3d3f6c901448de70bedd0237431eb60001b618ba4565b61afbb7f70181a645e7eb39e7d7cdba2b11414e40b00d29e2f94142ad9185f9fd4433bf360001b618ba4565b6040517f37e8456b00000000000000000000000000000000000000000000000000000000815260040160405180910390fd5b61b0197f5d285cbc8c9f4390c581e0c80f2d136d35e17b182f6534aa190b47221e8f9c0960001b618ba4565b50505050565b600061b04d7f3e99836b50742ac405b475bafdbd10760bab09c7bbf3252322c53c65a7ee561a60001b615b96565b61b0797f58c810617ae2731424e56dc0a12b0d6a0e108c14b851a6119e9e0c3f3090da9860001b615b96565b60006013600089815260200190815260200160002060000160008154600101919050819055905073__$1f7cbacb1f9f5d323b85b0487838426c8d$__639dbf0510898989898989886014600f60106040518b63ffffffff1660e01b815260040161b0ec9a9998979695949392919061f58f565b60006040518083038186803b15801561b10457600080fd5b505af415801561b118573d6000803e3d6000fd5b50505050809150509695505050505050565b61b1567f1e443033c6d02bbaa03bdf4970f561a75af3ed82ad9781c0ab4fd6e74ce75bae60001b618ba4565b61b1827f2a42674d77a265060340c7cf0fdc739cff691bcafb35037b7a8f3eccb971352260001b618ba4565b61b1ae7f441c7a71b50b4622ef6002013e492a2d78a773f74fd4b5a256dce13d1f2aa8d960001b618ba4565b61b1b8338261a5c8565b61b21a5761b1e87fad972cc2101e1e3de980e2c152e766b809664195285046f5481dedeac5ca8c9660001b618ba4565b6040517fdb1453ce00000000000000000000000000000000000000000000000000000000815260040160405180910390fd5b61b2467fd92f40cf9fee1ce225d8edcfa66dfea14bed6339e5bac50c6ad9f51fdc88bc5a60001b618ba4565b61b2727fb036ec274487e608e740a54e912a906f815223559be24c384605589efd3fea7460001b618ba4565b61b29e7f3bd8b994e9ed7fd1db7311da3911d68534a2196f3c78dc36624cc2cc516162fa60001b618ba4565b61b2a78161cbea565b50565b61b2d67ff6a70741c8ee390fb0d6e34b1356b8efbe144acc3c96f66df3e616ce373bcf9760001b615b96565b61b3027fdeaaad5257d662d13f32613bdf538a032dce37e1e019c921899bef97c7aef69960001b615b96565b61b32e7f5d7f01c17142feccd44c25643a9bda4676596456bc1486acbe887b0af27194e860001b615b96565b60006013600083815260200190815260200160002060030160405161b353919061f615565b6040518091039020905061b3897fb759f42c8688bfd46f7d11850140f8fa6989689728a0510f3674f4700e56530360001b615b96565b61b3b57fbff1f31ec7685864f8b423bf5f6b7def4ecfc7901fd0a1a04a1664ffc97840d760001b615b96565b600060126000838152602001908152602001600020819055505050565b61b3fe7f2c80d09b5fed21c56f4d1777bdd3b1df3150e8379a8e7b1a57b607f6d6215e4a60001b615b96565b61b42a7fd2eaa5be054e5ac71ff51b6ed71a37efeccc12682fb1dfdfca788717951d3ad160001b615b96565b61b4567f35468597b3e0b83b84c91cee16bfffba621e666d54dfb6a96a6efe532f28aa8b60001b615b96565b61b45f81614168565b73ffffffffffffffffffffffffffffffffffffffff163373ffffffffffffffffffffffffffffffffffffffff161461b4ef5761b4bd7f741bc0f899fd4017b2129025f9886b8b465185645d8b3d976bcce4f46dca430560001b615b96565b6040517ff194fae500000000000000000000000000000000000000000000000000000000815260040160405180910390fd5b61b51b7f8f33f81447f4704ba872f4c0e0e43f02b3b11c98cd5b3b05a5f58967fe99941360001b615b96565b50565b600061b54c7f56c30392bba5965fb5589bd01ea1a552bdde17c537b25d0651e449ff23b7673060001b615b96565b61b5787fdb4b1706421df534bfafb1b9872ca218ee84bee91dcdf93644989156be65397460001b615b96565b6000601360008460000151815260200190815260200160002060000160008154600101919050819055905073__$1f7cbacb1f9f5d323b85b0487838426c8d$__63e63aa93e848360136014600f60106040518763ffffffff1660e01b815260040161b5e89695949392919061f68f565b60006040518083038186803b15801561b60057600080fd5b505af415801561b614573d6000803e3d6000fd5b5050505080915050919050565b80600560008573ffffffffffffffffffffffffffffffffffffffff1673ffffffffffffffffffffffffffffffffffffffff16815260200190815260200160002060008473ffffffffffffffffffffffffffffffffffffffff1673ffffffffffffffffffffffffffffffffffffffff16815260200190815260200160002060006101000a81548160ff0219169083151502179055508173ffffffffffffffffffffffffffffffffffffffff168373ffffffffffffffffffffffffffffffffffffffff167f17307eab39ab6107e8899845ad3d59bd9653f200f220920489ca2b5937696c318360405161b712919061d4e8565b60405180910390a3505050565b600080600061b7507f73b67353b0b0f9d08909edc44f27deabea7107e9c0cedd85a9fe965a934b1d4c60001b61cd21565b61b77c7ff19b0ce3ffbfba04462ea71f22588413282b911f93dca6089111b07ba08e705b60001b61cd21565b61b7a87f57425442f5d3ce0f988fae64b289b7e1d66e0a52797eaa70cebccf1708611d0e60001b61cd21565b6000846000888152602001908152602001600020600087815260200190815260200160002060040160009054906101000a900473ffffffffffffffffffffffffffffffffffffffff16905061b81f7fdfea6479ed41dc1e8b33112a90474434dfc0c6b6fcd9f960961d0e42c4dbc0d960001b61cd21565b61b84b7f5bd6e76948a495e96ab60509223c17b9c84fe647a3926607aee1b135542e93a560001b61cd21565b600073ffffffffffffffffffffffffffffffffffffffff168173ffffffffffffffffffffffffffffffffffffffff161461b9125761b8ab7fc67d30ef302d3b10acf084c785ecb6d06a50ac21ebff37f693697c2efefe131360001b61cd21565b61b8d77f9689d655b7c42824468595b41cfa2d18e7c159bbbb6f09481255f18250f1434660001b61cd21565b61b9037f41927daa8b63cf959f02838e9a8f534725a9403a0de9a0236c3ed23a30966d8f60001b61cd21565b8686829350935093505061bc38565b61b93e7fde55e376893f68b7ca686eab95d1c7523288f8763283f6d295b4cd93b3f80c8660001b61cd21565b61b96a7f4f73848e71f579f1a633934c2275598aa58e59bec8ed9dd761eb9befb56292d960001b61cd21565b61b9967fb743fd379cca44ce663cb016dbcba5e27c17b0e4c6829a919c84250f026fee8b60001b61cd21565b6000856000898152602001908152602001600020600088815260200190815260200160002060000154905061b9ed7f3d0dda6fdd1f75f50f8dbed4053f4edd6870750a5210cd0772ddd1f4e9fa986460001b61cd21565b61ba197f97f37e499843843e37b4aab6d6bc16c04e696fff40925f7e2fbde59fae8d5dac60001b61cd21565b600081141561ba805761ba4e7fad5fe638d14d2369380a431d6ab23424bb04f01104f6995bef5c0eaeda87eaf360001b61cd21565b6040517fa43d2a7100000000000000000000000000000000000000000000000000000000815260040160405180910390fd5b61baac7f94b4dea1ac8f29fa1159b0504217dbb9331b7eee9289f83ce4a70c809c592d7860001b61cd21565b61bad87fd59cd30e4ec08ec3fe35d8506e27b0cb014ffcbfd45abbaaa70c586bff54e6c860001b61cd21565b61bb047f81c68c4fd9ad2099928dcb92e8144a335011041e9db19dfbfc0f94438b04b90060001b61cd21565b60008660008a8152602001908152602001600020600089815260200190815260200160002060010154905061bb5b7f7457d1ff2bde813769d0ec69d2b5cc842bbb2556a594d8623504b35791b46b7660001b61cd21565b61bb877f14676cd93803ffb40871c65cdb09d29506d5afd5398a6c074ddbe4c6af52e1aa60001b61cd21565b6000876000848152602001908152602001600020600083815260200190815260200160002060040160009054906101000a900473ffffffffffffffffffffffffffffffffffffffff16905061bbfe7f373704c040322f0a57c23b8d7f199b6aefc39fe283de6fdc9b455036029fd96f60001b61cd21565b61bc2a7fbd73626a1fad69703b934877bace6dab4bb0904ba44c4625ab7c58dac4f9521f60001b61cd21565b828282965096509650505050505b93509350939050565b61bc4c84848461a6a6565b61bc588484848461cd24565b61bc97576040517f08c379a000000000000000000000000000000000000000000000000000000000815260040161bc8e9061f785565b60405180910390fd5b50505050565b61bcc97ff284fab7ee3fba9b5f66d7b4978d1d4e8130e738dd135cf8ee71de5198e2d6f260001b615b96565b61bcf57f78de803786e173497985b165d7a3bd07af256434c5f21a85e08647112f490b6c60001b615b96565b61bd217f92c645040b2467ab117e99cf01875487827affb99eb67816e5ed39d252c2f52260001b615b96565b818160136000868152602001908152602001600020600501919061bd4692919061d406565b5061bd737f5b9c86e1a3930f027c4593f65ad4972ed5695087e110c4eff171b4af4dc1bebc60001b615b96565b61bd9f7fac1264735a5eec8715ab0c9127e102d1a3dcd7bb220d36ab8293ed7435f1465c60001b615b96565b827fe82886e1af6fcab5caef13815b22f51384e970c367a785f265d13860a7d6966d83834260405161bdd39392919061f2ae565b60405180910390a2505050565b61be0c7f25d8e61b8e3b8397785e1719eb2a5ecaaf20b3313c5d5e7295a8e2b3af46f1bb60001b615b96565b61be387f4beab4f833a560687d620d4742367f3de2f68995cbfdd0e601f979fed2314cf660001b615b96565b61be647f15da6b2b14e9ab846f5a7c76ff34d23cea7b8457ed8b6eb31495859e0d16536260001b615b96565b806011600084815260200190815260200160002060006101000a81548173ffffffffffffffffffffffffffffffffffffffff021916908373ffffffffffffffffffffffffffffffffffffffff16021790555061bee27fb8eb9a3cf6615b8176823b697a79a7d18cdf55f4b23394ad394653fc788ae19660001b615b96565b61bf0e7f8c1eece369ba915c58527512366902f360372ff0b668ccf25e5194f3dd2351bf60001b615b96565b8073ffffffffffffffffffffffffffffffffffffffff16827f22baaec4952f35f59e45bd2ddb287e1ccc6d319375770c09428eb8f8d604e0654260405161bf55919061d728565b60405180910390a35050565b61bf8d7ff87d641eb10aa372e76bd8e3f1c1419aaaf51535157d2f2b06fa06c5b77d07cb60001b615b96565b61bfb97f54385caf4933ba8ac84ebc76f21a5743da989cf908907647594455f88091993860001b615b96565b61bfe57f247ab9e236e317a42d031529b5367a58802a019ba5d8391d33bb394fb8b0ad2e60001b615b96565b60008111801561c029575061bff981614168565b73ffffffffffffffffffffffffffffffffffffffff168273ffffffffffffffffffffffffffffffffffffffff1614155b1561c08c5761c05a7fc37d10a0da996e5f83a24dca236354d4ef276f109d6996b397dd0251075b21c460001b615b96565b6040517ff194fae500000000000000000000000000000000000000000000000000000000815260040160405180910390fd5b61c0b87f8320758153120ea9cc76a518afcd9a45c19008fd5416a6ba6b15e5a05efb0fa560001b615b96565b61c0e47f98f89185c16b8cdae4ec85168940c5c7349265990b7dc9f90647e7fba7af844460001b615b96565b61c1107fbf38827469b12c922d92d65b425013dce0af3a40f2af0ece49e5ab3febf8b25660001b615b96565b80601560008473ffffffffffffffffffffffffffffffffffffffff1673ffffffffffffffffffffffffffffffffffffffff1681526020019081526020016000208190555061c1807f8b9cfd9bdc9fd4f5d5be354668c68122c05c0d7987974efb1c68e4214bea3e0c60001b615b96565b61c1ac7f0b95796f8abac3e029051bbe0a09c4a05346dce096c263207411fc10bddda63e60001b615b96565b808273ffffffffffffffffffffffffffffffffffffffff167f0afd7c479e8bc7dcdb856b3cc27d2332dfe1f018fde574ea124919ddcae8a9334260405161c1f3919061d728565b60405180910390a35050565b61c22b7fa52223f83782fafaa3dfd442cf854026aaa7c5d4c568369a80bbf8d49b4474ed60001b618ba4565b61c2577f7b78d8c297bfa0ad51cc2266e7e3585c54bdcdab7e467f27234013fe585b8c1560001b618ba4565b61c2837f2ab1d7704d4266f2d8bcb1d8234f61fc335f5ed52a97414dd8c34f6b8bb4fbdc60001b618ba4565b600061c28e83614168565b905061c2bc7f608bca24267773e18becdb3b48bf8a00a3a9e2f605c006d3e50e1d80989ab6a560001b618ba4565b61c36c61c3657f108ccda6d7331b00561a3eea66a2ae331622356585681c62731e4a01aae2261a85600a60008673ffffffffffffffffffffffffffffffffffffffff1673ffffffffffffffffffffffffffffffffffffffff168152602001908152602001600020600081548092919060010191905055866060013560405160200161c34a949392919061f7e9565b6040516020818303038152906040528051906020012061ab79565b828461acc0565b61c3987f578e04a864e27e7ca2ab3b9eefbe6dff5df8e593432c8f871ddb50c445bb055860001b618ba4565b61c3c47f257c96be6a897b65909d17df5083c3713e0e709328f5392a90239d0f7d83e39f60001b618ba4565b61c3cd8361cbea565b505050565b600061c4007ffb0f2c7c13c379f02f395dadfb5442f3153bfc665ad4e693f366cce7b118065660001b618ba4565b61c42c7faae53ca1781639af042f67a60dbc15512a817c702ef820bcfc9bc29526d9b83760001b618ba4565b61c4587fd38dee2c5fef587ce7ff6dfcd098f136da632ec3049dd628c2480bc5be25d54c60001b618ba4565b7f8b73c3c69bb8fe3d512ecc4cf759cc79239f7b179b0ffacaa9a75d522b39400f61c481611375565b805190602001207fc89efdaa54c0f20c7adf612882df0950f5a951637e0307cdcb4c672f298b8bc6463060405160200161c4bf95949392919061f80f565b60405160208183030381529060405280519060200120905090565b600073ffffffffffffffffffffffffffffffffffffffff168273ffffffffffffffffffffffffffffffffffffffff16141561c54a576040517f08c379a000000000000000000000000000000000000000000000000000000000815260040161c5419061f844565b60405180910390fd5b61c5538161a333565b1561c593576040517f08c379a000000000000000000000000000000000000000000000000000000000815260040161c58a9061f881565b60405180910390fd5b61c59f6000838361c784565b6001600360008473ffffffffffffffffffffffffffffffffffffffff1673ffffffffffffffffffffffffffffffffffffffff168152602001908152602001600020600082825461c5ef919061f46c565b92505081905550816002600083815260200190815260200160002060000160006101000a81548173ffffffffffffffffffffffffffffffffffffffff021916908373ffffffffffffffffffffffffffffffffffffffff160217905550426002600083815260200190815260200160002060000160146101000a8154816bffffffffffffffffffffffff02191690836bffffffffffffffffffffffff160217905550808273ffffffffffffffffffffffffffffffffffffffff16600073ffffffffffffffffffffffffffffffffffffffff167fddf252ad1be2c89b69c2b068fc378daa952ba7f163c4a11628f55a4df523b3ef60405160405180910390a45050565b60007f01ffc9a7000000000000000000000000000000000000000000000000000000007bffffffffffffffffffffffffffffffffffffffffffffffffffffffff1916827bffffffffffffffffffffffffffffffffffffffffffffffffffffffff1916149050919050565b83836000919061c76b92919061d406565b5081816001919061c77d92919061d406565b5050505050565b61c7b07fc52d58cb757220dbcfcfc56d66107252855c9680cefcca8d2440bfdefb49689060001b6137cc565b61c7dc7f580c895ce1219a12509313e32e1bce598dbe3da9521941890936f4150d36e54560001b6137cc565b61c8087fb27d744ba4df9c4e3a6d4c93fc28e3ea81155b4c88c8cf11c411605d313e6e6660001b6137cc565b61c810619788565b61c83c7fe689a5cd7aef4024ad321cfa06e7407d2c8c454cd0ef9bcef828c5cb35a3819c60001b6137cc565b61c8687fc00b2f842260beeb7f21ea82ea969e6b3db91dde45b556ad1cfb21b5469a242760001b615b96565b61c8947fd68975c544eae666e4e15db9d708480bbc98086d5f7703b879b064c731a450a260001b615b96565b61c8c07faec63ab1b39126c20cd58532c5d63e8812ee79689e112b6114cc47e6356822d360001b615b96565b600073ffffffffffffffffffffffffffffffffffffffff166011600083815260200190815260200160002060009054906101000a900473ffffffffffffffffffffffffffffffffffffffff1673ffffffffffffffffffffffffffffffffffffffff161461c9bb5761c9537f6411638a62aae3e79891475cc7cf969acfdf105685a332bae4009eefb92d975160001b615b96565b61c97f7fc655fdbb65e8e96ee05cf6fc569b1562d2eba509ecac129fa8ccb06793d32c1f60001b615b96565b61c9ab7fe7bc3637bf08dc311f86d1b92c4d0f1e153468b278e5f194e65ef40c4510b2a460001b615b96565b61c9b681600061bde0565b61c9e8565b61c9e77f122b218527afe7c7c01fe81c06e7757af7f13b700994bf5c429eda9511f35fc160001b615b96565b5b61ca147fb9d6e9371e24c7b3123c879dd8559b8078a7e65d0b632155b51b4e8b4a07988e60001b615b96565b61ca407fcf19a1bf6619661bc89ea23793cf8da60b743ebabb1228b01cd6de7f73e6af9860001b615b96565b80601560008573ffffffffffffffffffffffffffffffffffffffff1673ffffffffffffffffffffffffffffffffffffffff16815260200190815260200160002054141561cb555761cab37faecd69a5488c1cbc9681b9a28d40c8d590aa060fab6346441f3c6bf9aa4a7c1d60001b615b96565b61cadf7f1168182cf3ba80edc45c9ad4827e331623bc067e6f44d3f0317e869dd16c9c3460001b615b96565b61cb0b7f96fa203e1e0f4a785936e4637d4a813210de662a0feecbbc0d114367f35371db60001b615b96565b6000601560008573ffffffffffffffffffffffffffffffffffffffff1673ffffffffffffffffffffffffffffffffffffffff1681526020019081526020016000208190555061cb82565b61cb817ff4ada4434e3ec7463d1d70a08a5ca7a6bc404ec288a32b18e161f7a47ea3f00460001b615b96565b5b61cbae7f49d51186e4428672248d2bde20674268f7de8df921b7aa3f0a000908ff5dd11460001b615b96565b61cbda7faa036e8b62040b383494eb8b0a3ff5d0feaf1c258f1a4fe12fe73bea140a0f3060001b615b96565b61cbe583838361ceac565b505050565b600061cbf582614168565b905061cc038160008461c784565b61cc0e60008361a3aa565b6001600360008373ffffffffffffffffffffffffffffffffffffffff1673ffffffffffffffffffffffffffffffffffffffff168152602001908152602001600020600082825461cc5e919061f44e565b9250508190555060026000838152602001908152602001600020600080820160006101000a81549073ffffffffffffffffffffffffffffffffffffffff02191690556000820160146101000a8154906bffffffffffffffffffffffff0219169055505081600073ffffffffffffffffffffffffffffffffffffffff168273ffffffffffffffffffffffffffffffffffffffff167fddf252ad1be2c89b69c2b068fc378daa952ba7f163c4a11628f55a4df523b3ef60405160405180910390a45050565b50565b600061cd458473ffffffffffffffffffffffffffffffffffffffff1661cfc0565b1561ce9f578373ffffffffffffffffffffffffffffffffffffffff1663150b7a0261cd6e61a3a2565b8786866040518563ffffffff1660e01b815260040161cd90949392919061f8bf565b6020604051808303816000875af192505050801561cdcc57506040513d601f19601f8201168201806040525081019061cdc9919061f8fb565b60015b61ce4f573d806000811461cdfc576040519150601f19603f3d011682016040523d82523d6000602084013e61ce01565b606091505b5060008151141561ce47576040517f08c379a000000000000000000000000000000000000000000000000000000000815260040161ce3e9061f785565b60405180910390fd5b805181602001fd5b63150b7a0260e01b7bffffffffffffffffffffffffffffffffffffffffffffffffffffffff1916817bffffffffffffffffffffffffffffffffffffffffffffffffffffffff19161491505061cea4565b600190505b949350505050565b61ceb783838361cfe3565b600073ffffffffffffffffffffffffffffffffffffffff168373ffffffffffffffffffffffffffffffffffffffff16141561cefa5761cef58161cfe8565b61cf39565b8173ffffffffffffffffffffffffffffffffffffffff168373ffffffffffffffffffffffffffffffffffffffff161461cf385761cf37838261d031565b5b5b600073ffffffffffffffffffffffffffffffffffffffff168273ffffffffffffffffffffffffffffffffffffffff16141561cf7c5761cf778161d19e565b61cfbb565b8273ffffffffffffffffffffffffffffffffffffffff168273ffffffffffffffffffffffffffffffffffffffff161461cfba5761cfb9828261d26f565b5b5b505050565b6000808273ffffffffffffffffffffffffffffffffffffffff163b119050919050565b505050565b6008805490506009600083815260200190815260200160002081905550600881908060018154018082558091505060019003906000526020600020016000909190919091505550565b6000600161d03e84614444565b61d048919061f44e565b905060006007600084815260200190815260200160002054905081811461d12d576000600660008673ffffffffffffffffffffffffffffffffffffffff1673ffffffffffffffffffffffffffffffffffffffff168152602001908152602001600020600084815260200190815260200160002054905080600660008773ffffffffffffffffffffffffffffffffffffffff1673ffffffffffffffffffffffffffffffffffffffff168152602001908152602001600020600084815260200190815260200160002081905550816007600083815260200190815260200160002081905550505b6007600084815260200190815260200160002060009055600660008573ffffffffffffffffffffffffffffffffffffffff1673ffffffffffffffffffffffffffffffffffffffff16815260200190815260200160002060008381526020019081526020016000206000905550505050565b6000600160088054905061d1b2919061f44e565b905060006009600084815260200190815260200160002054905060006008838154811061d1e25761d1e161e80e565b5b90600052602060002001549050806008838154811061d2045761d20361e80e565b5b90600052602060002001819055508160096000838152602001908152602001600020819055506009600085815260200190815260200160002060009055600880548061d2535761d25261f922565b5b6001900381819060005260206000200160009055905550505050565b600061d27a83614444565b905081600660008573ffffffffffffffffffffffffffffffffffffffff1673ffffffffffffffffffffffffffffffffffffffff168152602001908152602001600020600083815260200190815260200160002081905550806007600084815260200190815260200160002081905550505050565b6040518060400160405280600073ffffffffffffffffffffffffffffffffffffffff16815260200160006bffffffffffffffffffffffff1681525090565b6040518060c00160405280600081526020016000815260200160608152602001600073ffffffffffffffffffffffffffffffffffffffff168152602001600073ffffffffffffffffffffffffffffffffffffffff168152602001600073ffffffffffffffffffffffffffffffffffffffff1681525090565b6040518060c0016040528060008152602001600073ffffffffffffffffffffffffffffffffffffffff168152602001600073ffffffffffffffffffffffffffffffffffffffff1681526020016060815260200160608152602001606081525090565b82805461d4129061e31d565b90600052602060002090601f01602090048101928261d434576000855561d47b565b82601f1061d44d57803560ff191683800117855561d47b565b8280016001018555821561d47b579182015b8281111561d47a57823582559160200191906001019061d45f565b5b50905061d488919061d48c565b5090565b5b8082111561d4a557600081600090555060010161d48d565b5090565b63ffffffff60e01b8116811461d4be57600080fd5b50565b60006020828403121561d4d357600080fd5b813561d4de8161d4a9565b8091505092915050565b6000602082019050821515825292915050565b60008083601f84011261d50d57600080fd5b8235905067ffffffffffffffff81111561d52657600080fd5b60208301915083602082850101111561d53e57600080fd5b9250929050565b60008060006040848603121561d55a57600080fd5b83359250602084013567ffffffffffffffff81111561d57857600080fd5b61d5848682870161d4fb565b915080935050809150509250925092565b60005b8381101561d5b357808201518184015260208101905061d598565b8381111561d5c2576000848401525b50505050565b6000815180845261d5e081602086016020860161d595565b6020601f19601f83011685010191505092915050565b60208152600061d609602083018461d5c8565b905092915050565b60008135905060018060a01b038116811461d62b57600080fd5b919050565b60008060008060006060868803121561d64857600080fd5b853567ffffffffffffffff8082111561d66057600080fd5b61d66c89838a0161d4fb565b925080975050819550602088013591508082111561d68957600080fd5b5061d6968882890161d4fb565b9150809450508092505061d6ac6040870161d611565b90509295509295909350565b60006020828403121561d6ca57600080fd5b8135905092915050565b60018060a01b03811682525050565b600060208201905060018060a01b038316825292915050565b6000806040838503121561d70f57600080fd5b61d7188361d611565b9150602083013590509250929050565b600060208201905082825292915050565b634e487b7160e01b600052602160045260246000fd5b60006020820190506003831061d7685761d76761d739565b5b82825292915050565b60006020828403121561d78357600080fd5b61d78c8261d611565b905092915050565b600081359050801515811461d7a857600080fd5b919050565b6000806040838503121561d7c057600080fd5b61d7c98361d611565b915061d7d76020840161d794565b90509250929050565b6000806020838503121561d7f357600080fd5b823567ffffffffffffffff81111561d80a57600080fd5b61d8168582860161d4fb565b915080935050809150509250929050565b60008060006060848603121561d83c57600080fd5b61d8458461d611565b925061d8536020850161d611565b9150604084013590509250925092565b60006020828403121561d87557600080fd5b8135905092915050565b600060c0828403121561d89157600080fd5b81905092915050565b60006020828403121561d8ac57600080fd5b813567ffffffffffffffff81111561d8c357600080fd5b61d8cf8482850161d87f565b91505092915050565b6000806040838503121561d8eb57600080fd5b82359150602083013590509250929050565b60006020820190506004831061d9165761d91561d739565b5b82825292915050565b600060e0828403121561d93157600080fd5b81905092915050565b60006020828403121561d94c57600080fd5b813567ffffffffffffffff81111561d96357600080fd5b61d96f8482850161d91f565b91505092915050565b6000610140828403121561d98b57600080fd5b81905092915050565b60006020828403121561d9a657600080fd5b813567ffffffffffffffff81111561d9bd57600080fd5b61d9c98482850161d978565b91505092915050565b60006020828403121561d9e457600080fd5b81356003811061d9f357600080fd5b8091505092915050565b60006040820190508382528260208301529392505050565b6000806000806060858703121561da2b57600080fd5b8435935061da3b6020860161d611565b9250604085013567ffffffffffffffff81111561da5757600080fd5b61da638782880161d4fb565b9150809350508091505092959194509250565b60006020828403121561da8857600080fd5b813567ffffffffffffffff81111561da9f57600080fd5b80830190506101a0818503121561dab557600080fd5b8091505092915050565b60006080828403121561dad157600080fd5b81905092915050565b600080600060c0848603121561daef57600080fd5b61daf88461d611565b92506020840135915061db0e856040860161dabf565b90509250925092565b6000806000806060858703121561db2d57600080fd5b8435935060208501359250604085013567ffffffffffffffff81111561db5257600080fd5b61db5e8782880161d4fb565b9150809350508091505092959194509250565b600080600080600060a0868803121561db8957600080fd5b85359450602086013593506040860135925061dba76060870161d611565b915061dbb56080870161d611565b90509295509295909350565b60008060008060e0858703121561dbd757600080fd5b61dbe08561d611565b935061dbee6020860161d611565b925061dbfc6040860161d794565b915061dc0b866060870161dabf565b905092959194509250565b60006020828403121561dc2857600080fd5b813567ffffffffffffffff81111561dc3f57600080fd5b61dc4b8482850161d91f565b91505092915050565b60006020808301818452808551808352604086019150838701925060005b8181101561dc9357835183528483019250848401935060018101905061dc72565b505080935050505092915050565b60006020828403121561dcb357600080fd5b813567ffffffffffffffff81111561dcca57600080fd5b61dcd68482850161d87f565b91505092915050565b60006020828403121561dcf157600080fd5b813567ffffffffffffffff81111561dd0857600080fd5b61dd148482850161d87f565b91505092915050565b60006020828403121561dd2f57600080fd5b813567ffffffffffffffff81111561dd4657600080fd5b8083019050610100818503121561dd5c57600080fd5b8091505092915050565b60006020828403121561dd7857600080fd5b813567ffffffffffffffff81111561dd8f57600080fd5b8083019050610120818503121561dda557600080fd5b8091505092915050565b634e487b7160e01b600052604160045260246000fd5b6000604051905060c0810181811067ffffffffffffffff8211171561dded5761ddec61ddaf565b5b806040525090565b60006040519050610120810181811067ffffffffffffffff8211171561de1e5761de1d61ddaf565b5b806040525090565b60006040519050601f19601f830116810181811067ffffffffffffffff8211171561de545761de5361ddaf565b5b8060405250919050565b600067ffffffffffffffff82111561de795761de7861ddaf565b5b6020601f19601f840116019050919050565b600082601f83011261de9c57600080fd5b813561deaf61deaa8261de5e565b61de26565b81815284602083860101111561dec457600080fd5b81602085016020830137600060208383010152809250505092915050565b6000806000806080858703121561def857600080fd5b61df018561d611565b935061df0f6020860161d611565b925060408501359150606085013567ffffffffffffffff81111561df3257600080fd5b61df3e8782880161de8b565b91505092959194509250565b60006020828403121561df5c57600080fd5b813567ffffffffffffffff81111561df7357600080fd5b61df7f8482850161d87f565b91505092915050565b6000806000806080858703121561df9e57600080fd5b843593506020850135925061dfb56040860161d611565b915061dfc36060860161d611565b905092959194509250565b600060c0828403121561dfe057600080fd5b61dfea838361d87f565b905092915050565b6000806040838503121561e00557600080fd5b8235915061e0156020840161d611565b90509250929050565b600060408201905060018060a01b0383511682526bffffffffffffffffffffffff602084015116602083015292915050565b6020815281516020820152602082015160408201526000604083015160c0606084015261e08060e084018261d5c8565b9050606084015160018060a01b0380821660808601528060808701511660a08601528060a08701511660c086015250508091505092915050565b600060c0828403121561e0cc57600080fd5b61e0d6838361d87f565b905092915050565b60008060a0838503121561e0f157600080fd5b8235915061e102846020850161dabf565b90509250929050565b60006020828403121561e11d57600080fd5b813567ffffffffffffffff81111561e13457600080fd5b61e1408482850161d978565b91505092915050565b6000806040838503121561e15c57600080fd5b61e1658361d611565b915061e1736020840161d611565b90509250929050565b600060208201905082825292915050565b60208152815160208201526000602083015160018060a01b0380821660408501528060408601511660608501525050606083015160c0608084015261e1d560e084018261d5c8565b90506080840151601f19808584030160a086015261e1f3838361d5c8565b925060a08601519150808584030160c08601525061e211828261d5c8565b9250505092915050565b60008083601f84011261e22d57600080fd5b8235905067ffffffffffffffff81111561e24657600080fd5b6020830191508360208260051b850101111561e26157600080fd5b9250929050565b6000806000806040858703121561e27e57600080fd5b843567ffffffffffffffff8082111561e29657600080fd5b61e2a28883890161e21b565b925080965050819450602087013591508082111561e2bf57600080fd5b5061e2cc8782880161e21b565b9150809350508091505092959194509250565b60006020828403121561e2f157600080fd5b813567ffffffffffffffff81111561e30857600080fd5b61e3148482850161d87f565b91505092915050565b60008160011c9050600182168061e33557607f821691505b6020821081141561e35657634e487b7160e01b600052602260045260246000fd5b50919050565b60208152602c60208201527f4552433732313a20617070726f76656420717565727920666f72206e6f6e657860408201527f697374656e7420746f6b656e000000000000000000000000000000000000000060608201526000608082019050919050565b60208152602160208201527f4552433732313a20617070726f76616c20746f2063757272656e74206f776e6560408201527f720000000000000000000000000000000000000000000000000000000000000060608201526000608082019050919050565b60208152603860208201527f4552433732313a20617070726f76652063616c6c6572206973206e6f74206f7760408201527f6e6572206e6f7220617070726f76656420666f7220616c6c000000000000000060608201526000608082019050919050565b81838237600082820160008152809150509392505050565b60208152603160208201527f4552433732313a207472616e736665722063616c6c6572206973206e6f74206f60408201527f776e6572206e6f7220617070726f76656400000000000000000000000000000060608201526000608082019050919050565b60208152602b60208201527f455243373231456e756d657261626c653a206f776e657220696e646578206f7560408201527f74206f6620626f756e647300000000000000000000000000000000000000000060608201526000608082019050919050565b600060c0823603121561e57a57600080fd5b61e58261ddc5565b823581526020830135602082015260408301356040820152606083013567ffffffffffffffff8082111561e5b557600080fd5b61e5c13683870161de8b565b606084015261e5d26080860161d611565b608084015260a085013591508082111561e5eb57600080fd5b5061e5f83682860161de8b565b60a08301525080915050919050565b6000808335601e1984360301811261e61e57600080fd5b80840190508035915067ffffffffffffffff82111561e63c57600080fd5b6020810192505080360382131561e65257600080fd5b9250929050565b600060c08201905087825286602083015260018060a01b03861660408301528460608301528360808301528260a0830152979650505050505050565b818352818160208501375060006020828401015260006020601f19601f840116840101905092915050565b86815260018060a01b038616602082015260a06040820152600061e6e860a08301868861e695565b9050836060830152826080830152979650505050505050565b6000808335601e1984360301811261e71857600080fd5b80840190508035915067ffffffffffffffff82111561e73657600080fd5b6020810192505080360382131561e74c57600080fd5b9250929050565b6000610120820190508a825289602083015288604083015260018060a01b03808916606084015287608084015280871660a0840152508460c08301528360e0830152826101008301529a9950505050505050505050565b60208152602c60208201527f455243373231456e756d657261626c653a20676c6f62616c20696e646578206f60408201527f7574206f6620626f756e6473000000000000000000000000000000000000000060608201526000608082019050919050565b634e487b7160e01b600052603260045260246000fd5b60208152603260208201527f4552433732313a206d696e742074696d657374616d7020717565727920666f7260408201527f206e6f6e6578697374656e7420746f6b656e000000000000000000000000000060608201526000608082019050919050565b60208152602960208201527f4552433732313a206f776e657220717565727920666f72206e6f6e657869737460408201527f656e7420746f6b656e000000000000000000000000000000000000000000000060608201526000608082019050919050565b60208152602a60208201527f4552433732313a2062616c616e636520717565727920666f7220746865207a6560408201527f726f20616464726573730000000000000000000000000000000000000000000060608201526000608082019050919050565b6000610180820190508d82528c60208301528b60408301528a60608301528960808301528860a083015260018060a01b0380891660c08401528760e0840152808716610100840152508461012083015283610140830152826101608301529d9c50505050505050505050505050565b600060a08201905086825260018060a01b03861660208301528460408301528360608301528260808301529695505050505050565b600060018060a01b03808b16835289602084015288604084015260e0606084015261ea2360e08401888a61e695565b91508086166080840152508360a08301528260c08301529998505050505050505050565b60006020828403121561ea5957600080fd5b8151905092915050565b600060608201905060018060a01b038086168352808516602084015250826040830152949350505050565b600060c08201905087825260018060a01b03808816602084015280871660408401525084151560608301528360808301528260a0830152979650505050505050565b6000808335601e1984360301811261eae757600080fd5b80840190508035915067ffffffffffffffff82111561eb0557600080fd5b602081019250508060051b360382131561eb1e57600080fd5b9250929050565b6000808335601e1984360301811261eb3c57600080fd5b80840190508035915067ffffffffffffffff82111561eb5a57600080fd5b602081019250508060051b360382131561eb7357600080fd5b9250929050565b600060018060fb1b0383111561eb8f57600080fd5b8260051b80858437808301905060008152809150509392505050565b6000818351839150602080860160005b8381101561ebdc57815185528285019450828201915060018101905061ebbb565b505050508091505092915050565b600060a0820190508682528560208301528460408301528360608301528260808301529695505050505050565b6000808335601e1984360301811261ec2e57600080fd5b8381019050803591506020810192505067ffffffffffffffff81111561ec5357600080fd5b80360383131561ec6257600080fd5b9250929050565b60018060a01b03881681526000602060a0818401528760a084015260018060fb1b0388111561ec9757600080fd5b8760051b808a60c0860137808401905060c081016000815260c08583030160408601528088825260e08301905060e08960051b84010191508960005b8a81101561ed125760df1985850301835261ecee828d61ec17565b61ecf986828461e695565b955050508582019150858301925060018101905061ecd3565b50505080935050505083606083015282608083015298975050505050505050565b6000602080838503121561ed4657600080fd5b825167ffffffffffffffff8082111561ed5e57600080fd5b818501915085601f83011261ed7257600080fd5b81518181111561ed855761ed8461ddaf565b5b8060051b915061ed9684830161de26565b808282528582019150858486010193508884111561edb357600080fd5b85850194505b8385101561edd457845182528582019150858501945061edb9565b80965050505050505092915050565b600060a0820190508682528560208301528460408301528360608301528260808301529695505050505050565b60208152601960208201527f4552433732313a20617070726f766520746f2063616c6c65720000000000000060408201526000606082019050919050565b600060c0820190508782528660208301528560408301528460608301528360808301528260a0830152979650505050505050565b6000610120823603121561ee9557600080fd5b61ee9d61ddf5565b82358152602083013567ffffffffffffffff8082111561eebc57600080fd5b61eec83683870161de8b565b60208401526040850135604084015260608501356060840152608085013591508082111561eef557600080fd5b61ef013683870161de8b565b608084015261ef1260a0860161d611565b60a084015260c085013591508082111561ef2b57600080fd5b61ef373683870161de8b565b60c084015261ef4860e0860161d611565b60e08401526101009150818501358181111561ef6357600080fd5b61ef6f3682880161de8b565b8385015250505080915050919050565b600060a08201905086825285602083015260018060a01b03851660408301528360608301528260808301529695505050505050565b60208152602e60208201527f4552433732313a20746f6b656e206461746120717565727920666f72206e6f6e60408201527f6578697374656e7420746f6b656e00000000000000000000000000000000000060608201526000608082019050919050565b6000815461f0258161e31d565b808552602060018084166000811461f044576001811461f0585761f08c565b60ff1985168389015260408801955061f08c565b866000528260002060005b8581101561f08257815485828c0101528382019150848101905061f063565b84818b0101975050505b505050505092915050565b85815284602082015260018060a01b038416604082015260a06060820152600061f0c460a083018561f018565b828103608084015261f0d6818561f018565b9150509695505050505050565b60006020828403121561f0f557600080fd5b815167ffffffffffffffff81111561f10c57600080fd5b808301905083601f82011261f12057600080fd5b805161f13361f12e8261de5e565b61de26565b81815285602083850101111561f14857600080fd5b61f15982602083016020860161d595565b80935050505092915050565b6000610120820190508a825289602083015288604083015287606083015286608083015260018060a01b03861660a08301528460c08301528360e0830152826101008301529a9950505050505050505050565b60a08152600060018060a01b038061f1cf8961d611565b1660a084015261f1e2602089018961ec17565b60c08086015261f1f76101608601828461e695565b91505061f20760408a018a61ec17565b609f19808785030160e088015261f21f84838561e695565b93508461f22e60608e0161d611565b1661010088015261f24260808d018d61ec17565b95509250808785030161012088015261f25c84868561e695565b945061f26b60a08d018d61ec17565b945092508087860301610140880152505061f28783838361e695565b93505050508560208301528460408301528360608301528260808301529695505050505050565b60408152600061f2c260408301858761e695565b9050826020830152949350505050565b60608152600061f2e660608301878961e695565b828103602084015261f2f981868861e695565b9150508260408301529695505050505050565b60208152602c60208201527f4552433732313a206f70657261746f7220717565727920666f72206e6f6e657860408201527f697374656e7420746f6b656e000000000000000000000000000000000000000060608201526000608082019050919050565b60208152602960208201527f4552433732313a207472616e73666572206f6620746f6b656e2074686174206960408201527f73206e6f74206f776e000000000000000000000000000000000000000000000060608201526000608082019050919050565b60208152602460208201527f4552433732313a207472616e7366657220746f20746865207a65726f2061646460408201527f726573730000000000000000000000000000000000000000000000000000000060608201526000608082019050919050565b634e487b7160e01b600052601160045260246000fd5b60008282101561f4615761f46061f438565b5b828203905092915050565b6000821982111561f4805761f47f61f438565b5b828201905092915050565b6080815284516080820152602085015160a0820152604085015160c08201526000606086015160c060e084015261f4c661014084018261d5c8565b905060018060a01b0360808801511661010084015260a0870151607f198483030161012085015261f4f7828261d5c8565b9250505084602083015283604083015282606083015295945050505050565b61190160f01b815282600282015281602282015260006042820190509392505050565b60006020828403121561f54b57600080fd5b813560ff8116811461f55c57600080fd5b8091505092915050565b600060808201905085825260ff8516602083015283604083015282606083015295945050505050565b60006101408c835280602084015261f5a98184018d61d5c8565b905060018060a01b03808c166040850152838203606085015261f5cc828c61d5c8565b9150808a1660808501525082810360a084015261f5e9818961d5c8565b9150508560c08301528460e083015283610100830152826101208301529b9a5050505050505050505050565b600080835461f6238161e31d565b60018083166000811461f63d576001811461f64e5761f681565b60ff1984168752828701945061f681565b8760005260208060002060005b8581101561f678578154818b01528482019150828101905061f65b565b50505082870194505b505050508091505092915050565b60c08152865160c0820152600060208801516101208060e085015261f6b86101e085018361d5c8565b915060408a0151610100818187015260608c01518387015260808c0151925060bf199150818685030161014087015261f6f1848461d5c8565b935060a08c0151925061f70861016087018461d6d4565b60c08c01519250818685030161018087015261f724848461d5c8565b935060e08c0151925061f73b6101a087018461d6d4565b808c015192505080858403016101c08601525061f758828261d5c8565b925050508660208301528560408301528460608301528360808301528260a0830152979650505050505050565b60208152603260208201527f4552433732313a207472616e7366657220746f206e6f6e20455243373231526560408201527f63656976657220696d706c656d656e746572000000000000000000000000000060608201526000608082019050919050565b600060808201905085825284602083015283604083015282606083015295945050505050565b600060a08201905086825285602083015284604083015283606083015260018060a01b03831660808301529695505050505050565b602081526020808201527f4552433732313a206d696e7420746f20746865207a65726f206164647265737360408201526000606082019050919050565b60208152601c60208201527f4552433732313a20746f6b656e20616c7265616479206d696e7465640000000060408201526000606082019050919050565b600060018060a01b0380871683528086166020840152508360408301526080606083015261f8f0608083018461d5c8565b905095945050505050565b60006020828403121561f90d57600080fd5b815161f9188161d4a9565b8091505092915050565b634e487b7160e01b600052603160045260246000fdfea26469706673582212204a6bde5497dd787199ae1131db24c0c3a054b242730fe86550752ca03e36216964736f6c634300080a0033",
  "linkReferences": {
    "contracts/libraries/InteractionLogic.sol": {
      "InteractionLogic": [
        {
          "length": 20,
          "start": 21528
        },
        {
          "length": 20,
          "start": 24515
        },
        {
          "length": 20,
          "start": 28817
        },
        {
          "length": 20,
          "start": 38929
        }
      ]
    },
    "contracts/libraries/ProfileTokenURILogic.sol": {
      "ProfileTokenURILogic": [
        {
          "length": 20,
          "start": 34291
        }
      ]
    },
    "contracts/libraries/PublishingLogic.sol": {
      "PublishingLogic": [
        {
          "length": 20,
          "start": 13220
        },
        {
          "length": 20,
          "start": 18601
        },
        {
          "length": 20,
          "start": 39706
        },
        {
          "length": 20,
          "start": 45040
        },
        {
          "length": 20,
          "start": 46479
        },
        {
          "length": 20,
          "start": 47762
        }
      ]
    }
  },
  "deployedLinkReferences": {
    "contracts/libraries/InteractionLogic.sol": {
      "InteractionLogic": [
        {
          "length": 20,
          "start": 20267
        },
        {
          "length": 20,
          "start": 23254
        },
        {
          "length": 20,
          "start": 27556
        },
        {
          "length": 20,
          "start": 37668
        }
      ]
    },
    "contracts/libraries/ProfileTokenURILogic.sol": {
      "ProfileTokenURILogic": [
        {
          "length": 20,
          "start": 33030
        }
      ]
    },
    "contracts/libraries/PublishingLogic.sol": {
      "PublishingLogic": [
        {
          "length": 20,
          "start": 11959
        },
        {
          "length": 20,
          "start": 17340
        },
        {
          "length": 20,
          "start": 38445
        },
        {
          "length": 20,
          "start": 43779
        },
        {
          "length": 20,
          "start": 45218
        },
        {
          "length": 20,
          "start": 46501
        }
      ]
    }
  }
}